{
  "contractName": "Oracle",
  "abi": [
    {
      "inputs": [],
      "stateMutability": "nonpayable",
      "type": "constructor"
    },
    {
      "anonymous": false,
      "inputs": [
        {
          "indexed": true,
          "internalType": "address",
          "name": "previousOwner",
          "type": "address"
        },
        {
          "indexed": true,
          "internalType": "address",
          "name": "newOwner",
          "type": "address"
        }
      ],
      "name": "OwnershipTransferred",
      "type": "event"
    },
    {
      "inputs": [],
      "name": "oracle",
      "outputs": [
        {
          "internalType": "address",
          "name": "",
          "type": "address"
        }
      ],
      "stateMutability": "view",
      "type": "function"
    },
    {
      "inputs": [],
      "name": "owner",
      "outputs": [
        {
          "internalType": "address",
          "name": "",
          "type": "address"
        }
      ],
      "stateMutability": "view",
      "type": "function"
    },
    {
      "inputs": [],
      "name": "renounceOwnership",
      "outputs": [],
      "stateMutability": "nonpayable",
      "type": "function"
    },
    {
      "inputs": [
        {
          "internalType": "address",
          "name": "newOwner",
          "type": "address"
        }
      ],
      "name": "transferOwnership",
      "outputs": [],
      "stateMutability": "nonpayable",
      "type": "function"
    },
    {
      "inputs": [
        {
          "internalType": "address",
          "name": "_oracle",
          "type": "address"
        }
      ],
      "name": "setOracle",
      "outputs": [],
      "stateMutability": "nonpayable",
      "type": "function"
    }
  ],
  "bytecode": "0x608060405234801561001057600080fd5b5061002d61002261007360201b60201c565b61007b60201b60201c565b33600160006101000a81548173ffffffffffffffffffffffffffffffffffffffff021916908373ffffffffffffffffffffffffffffffffffffffff16021790555061013f565b600033905090565b60008060009054906101000a900473ffffffffffffffffffffffffffffffffffffffff169050816000806101000a81548173ffffffffffffffffffffffffffffffffffffffff021916908373ffffffffffffffffffffffffffffffffffffffff1602179055508173ffffffffffffffffffffffffffffffffffffffff168173ffffffffffffffffffffffffffffffffffffffff167f8be0079c531659141344cd1fd0a4f28419497f9722a3daafe3b4186f6b6457e060405160405180910390a35050565b6105568061014e6000396000f3fe608060405234801561001057600080fd5b50600436106100575760003560e01c8063715018a61461005c5780637adbf973146100665780637dc0d1d0146100825780638da5cb5b146100a0578063f2fde38b146100be575b600080fd5b6100646100da565b005b610080600480360381019061007b91906103ba565b6100ee565b005b61008a61013a565b60405161009791906103f6565b60405180910390f35b6100a8610160565b6040516100b591906103f6565b60405180910390f35b6100d860048036038101906100d391906103ba565b610189565b005b6100e261020d565b6100ec600061028b565b565b6100f661020d565b80600160006101000a81548173ffffffffffffffffffffffffffffffffffffffff021916908373ffffffffffffffffffffffffffffffffffffffff16021790555050565b600160009054906101000a900473ffffffffffffffffffffffffffffffffffffffff1681565b60008060009054906101000a900473ffffffffffffffffffffffffffffffffffffffff16905090565b61019161020d565b600073ffffffffffffffffffffffffffffffffffffffff168173ffffffffffffffffffffffffffffffffffffffff161415610201576040517f08c379a00000000000000000000000000000000000000000000000000000000081526004016101f890610494565b60405180910390fd5b61020a8161028b565b50565b61021561034f565b73ffffffffffffffffffffffffffffffffffffffff16610233610160565b73ffffffffffffffffffffffffffffffffffffffff1614610289576040517f08c379a000000000000000000000000000000000000000000000000000000000815260040161028090610500565b60405180910390fd5b565b60008060009054906101000a900473ffffffffffffffffffffffffffffffffffffffff169050816000806101000a81548173ffffffffffffffffffffffffffffffffffffffff021916908373ffffffffffffffffffffffffffffffffffffffff1602179055508173ffffffffffffffffffffffffffffffffffffffff168173ffffffffffffffffffffffffffffffffffffffff167f8be0079c531659141344cd1fd0a4f28419497f9722a3daafe3b4186f6b6457e060405160405180910390a35050565b600033905090565b600080fd5b600073ffffffffffffffffffffffffffffffffffffffff82169050919050565b60006103878261035c565b9050919050565b6103978161037c565b81146103a257600080fd5b50565b6000813590506103b48161038e565b92915050565b6000602082840312156103d0576103cf610357565b5b60006103de848285016103a5565b91505092915050565b6103f08161037c565b82525050565b600060208201905061040b60008301846103e7565b92915050565b600082825260208201905092915050565b7f4f776e61626c653a206e6577206f776e657220697320746865207a65726f206160008201527f6464726573730000000000000000000000000000000000000000000000000000602082015250565b600061047e602683610411565b915061048982610422565b604082019050919050565b600060208201905081810360008301526104ad81610471565b9050919050565b7f4f776e61626c653a2063616c6c6572206973206e6f7420746865206f776e6572600082015250565b60006104ea602083610411565b91506104f5826104b4565b602082019050919050565b60006020820190508181036000830152610519816104dd565b905091905056fea26469706673582212201271a57c9e5c17688c3c6061b61abf9e89ebd6410e2dccb6c9f4f5a267ee4d5064736f6c634300080a0033",
  "immutableReferences": {},
  "source": "// SPDX-License-Identifier: MIT\npragma solidity >=0.8.10;\n\nimport \"@openzeppelin/contracts/access/Ownable.sol\";\n\n/**\n * @title      Contract for oracle operations\n * @author     Orun Altnsoy\n * @notice     This is a very basic contract for oracle role\n * @dev        If oracle is not set it is defaulted to contract owner.\n */\ncontract Oracle is Ownable\n{\n    /**\n     * @notice     Stores the address of oracle\n     */\n\taddress public oracle;\n\n\n\n\n    constructor ()\n    {\n        oracle = msg.sender;\n    }\n\n\n\n\n    modifier onlyOracle ()\n    {\n        require(oracle == msg.sender, \"Oracle: caller is not the oracle\");\n\n        _;\n    }\n\n\n\n\n    /**\n     * @notice     Sets the address of oracle\n     * @dev        Only contract owner can set the address.\n     * @param      _oracle  New oracle address\n     */\n    function setOracle (address _oracle) public onlyOwner\n    {\n        oracle = _oracle;\n    }\n}\n",
  "sourcePath": "/battle/contracts/Oracle.sol",
  "compiler": {
    "name": "solc",
    "version": "0.8.10+commit.fc410830.Emscripten.clang"
  },
  "schemaVersion": "3.4.13",
  "updatedAt": "2023-03-18T21:21:47.060Z",
  "devdoc": {
    "author": "Orun Altnsoy",
    "details": "If oracle is not set it is defaulted to contract owner.",
    "kind": "dev",
    "methods": {
      "owner()": {
        "details": "Returns the address of the current owner."
      },
      "renounceOwnership()": {
        "details": "Leaves the contract without owner. It will not be possible to call `onlyOwner` functions anymore. Can only be called by the current owner. NOTE: Renouncing ownership will leave the contract without an owner, thereby removing any functionality that is only available to the owner."
      },
      "setOracle(address)": {
        "details": "Only contract owner can set the address.",
        "params": {
          "_oracle": "New oracle address"
        }
      },
      "transferOwnership(address)": {
        "details": "Transfers ownership of the contract to a new account (`newOwner`). Can only be called by the current owner."
      }
    },
    "title": "Contract for oracle operations",
    "version": 1
  },
  "userdoc": {
    "kind": "user",
    "methods": {
      "oracle()": {
        "notice": "Stores the address of oracle"
      },
      "setOracle(address)": {
        "notice": "Sets the address of oracle"
      }
    },
    "notice": "This is a very basic contract for oracle role",
    "version": 1
  }
}