{
  "contractName": "PlayerContract",
  "abi": [
    {
      "anonymous": false,
      "inputs": [
        {
          "indexed": false,
          "internalType": "uint256",
          "name": "id",
          "type": "uint256"
        },
        {
          "indexed": false,
          "internalType": "string",
          "name": "name",
          "type": "string"
        }
      ],
      "name": "NewPlayerCreated",
      "type": "event"
    },
    {
      "inputs": [
        {
          "internalType": "address",
          "name": "",
          "type": "address"
        }
      ],
      "name": "addressToPlayerId",
      "outputs": [
        {
          "internalType": "uint256",
          "name": "",
          "type": "uint256"
        }
      ],
      "stateMutability": "view",
      "type": "function",
      "constant": true
    },
    {
      "inputs": [
        {
          "internalType": "uint256",
          "name": "",
          "type": "uint256"
        }
      ],
      "name": "players",
      "outputs": [
        {
          "internalType": "uint256",
          "name": "id",
          "type": "uint256"
        },
        {
          "internalType": "string",
          "name": "name",
          "type": "string"
        },
        {
          "internalType": "uint256",
          "name": "winCount",
          "type": "uint256"
        },
        {
          "internalType": "uint256",
          "name": "lossCount",
          "type": "uint256"
        }
      ],
      "stateMutability": "view",
      "type": "function",
      "constant": true
    },
    {
      "inputs": [
        {
          "internalType": "string",
          "name": "_name",
          "type": "string"
        }
      ],
      "name": "createPlayer",
      "outputs": [],
      "stateMutability": "nonpayable",
      "type": "function"
    }
  ],
  "bytecode": "0x608060405234801561001057600080fd5b5061096a806100206000396000f3fe608060405234801561001057600080fd5b50600436106100415760003560e01c8063537288d614610046578063b586a74014610076578063f71d96cb14610092575b600080fd5b610060600480360381019061005b919061046f565b6100c5565b60405161006d91906104b5565b60405180910390f35b610090600480360381019061008b9190610616565b6100dd565b005b6100ac60048036038101906100a7919061068b565b610292565b6040516100bc9493929190610740565b60405180910390f35b60016020528060005260406000206000915090505481565b6000600160003373ffffffffffffffffffffffffffffffffffffffff1673ffffffffffffffffffffffffffffffffffffffff168152602001908152602001600020541461015f576040517f08c379a0000000000000000000000000000000000000000000000000000000008152600401610156906107fe565b60405180910390fd5b60006001600080549050610173919061084d565b9050600060405180608001604052806001600080549050610194919061084d565b815260200184815260200160008152602001600081525090806001815401808255809150506001900390600052602060002090600402016000909190919091506000820151816000015560208201518160010190805190602001906101fa92919061035a565b506040820151816002015560608201518160030155505080600160003373ffffffffffffffffffffffffffffffffffffffff1673ffffffffffffffffffffffffffffffffffffffff168152602001908152602001600020819055507fc613856e36141bd14e64b3158acae3752d0dc905757b70c6f8178f7a0747d1e981836040516102869291906108a3565b60405180910390a15050565b600081815481106102a257600080fd5b90600052602060002090600402016000915090508060000154908060010180546102cb90610902565b80601f01602080910402602001604051908101604052809291908181526020018280546102f790610902565b80156103445780601f1061031957610100808354040283529160200191610344565b820191906000526020600020905b81548152906001019060200180831161032757829003601f168201915b5050505050908060020154908060030154905084565b82805461036690610902565b90600052602060002090601f01602090048101928261038857600085556103cf565b82601f106103a157805160ff19168380011785556103cf565b828001600101855582156103cf579182015b828111156103ce5782518255916020019190600101906103b3565b5b5090506103dc91906103e0565b5090565b5b808211156103f95760008160009055506001016103e1565b5090565b6000604051905090565b600080fd5b600080fd5b600073ffffffffffffffffffffffffffffffffffffffff82169050919050565b600061043c82610411565b9050919050565b61044c81610431565b811461045757600080fd5b50565b60008135905061046981610443565b92915050565b60006020828403121561048557610484610407565b5b60006104938482850161045a565b91505092915050565b6000819050919050565b6104af8161049c565b82525050565b60006020820190506104ca60008301846104a6565b92915050565b600080fd5b600080fd5b6000601f19601f8301169050919050565b7f4e487b7100000000000000000000000000000000000000000000000000000000600052604160045260246000fd5b610523826104da565b810181811067ffffffffffffffff82111715610542576105416104eb565b5b80604052505050565b60006105556103fd565b9050610561828261051a565b919050565b600067ffffffffffffffff821115610581576105806104eb565b5b61058a826104da565b9050602081019050919050565b82818337600083830152505050565b60006105b96105b484610566565b61054b565b9050828152602081018484840111156105d5576105d46104d5565b5b6105e0848285610597565b509392505050565b600082601f8301126105fd576105fc6104d0565b5b813561060d8482602086016105a6565b91505092915050565b60006020828403121561062c5761062b610407565b5b600082013567ffffffffffffffff81111561064a5761064961040c565b5b610656848285016105e8565b91505092915050565b6106688161049c565b811461067357600080fd5b50565b6000813590506106858161065f565b92915050565b6000602082840312156106a1576106a0610407565b5b60006106af84828501610676565b91505092915050565b600081519050919050565b600082825260208201905092915050565b60005b838110156106f25780820151818401526020810190506106d7565b83811115610701576000848401525b50505050565b6000610712826106b8565b61071c81856106c3565b935061072c8185602086016106d4565b610735816104da565b840191505092915050565b600060808201905061075560008301876104a6565b81810360208301526107678186610707565b905061077660408301856104a6565b61078360608301846104a6565b95945050505050565b7f506c617965723a20706c6179657220616c72656164792065786973747320666f60008201527f7220616464726573730000000000000000000000000000000000000000000000602082015250565b60006107e86029836106c3565b91506107f38261078c565b604082019050919050565b60006020820190508181036000830152610817816107db565b9050919050565b7f4e487b7100000000000000000000000000000000000000000000000000000000600052601160045260246000fd5b60006108588261049c565b91506108638361049c565b9250827fffffffffffffffffffffffffffffffffffffffffffffffffffffffffffffffff038211156108985761089761081e565b5b828201905092915050565b60006040820190506108b860008301856104a6565b81810360208301526108ca8184610707565b90509392505050565b7f4e487b7100000000000000000000000000000000000000000000000000000000600052602260045260246000fd5b6000600282049050600182168061091a57607f821691505b6020821081141561092e5761092d6108d3565b5b5091905056fea2646970667358221220719a864abe44c15bde6531b7c09ba9ba4f1f52df93ae2e36266ee68c0c01b9ea64736f6c634300080a0033",
  "immutableReferences": {},
  "source": "// SPDX-License-Identifier: MIT\npragma solidity >=0.8.10;\n\ncontract PlayerContract\n{\n\tstruct Player {\n\t\tuint id;\n        string name;\n        uint winCount;\n        uint lossCount;\n    }\n\n    Player[] public players;\n\n    mapping (address => uint) public addressToPlayerId;\n\n\n\n\n    event NewPlayerCreated(uint id, string name);\n\n\n\n\n    function createPlayer (string memory _name) public\n    {\n    \trequire(addressToPlayerId[msg.sender] == 0, \"Player: player already exists for address\");\n\n    \tuint id = players.length + 1;\n\n        players.push(Player(players.length + 1, _name, 0, 0));\n\n        addressToPlayerId[msg.sender] = id;\n\n        emit NewPlayerCreated(id, _name);\n    }\n}\n",
  "sourcePath": "/home/orcun/battle/solidity/contracts/Player.sol",
  "compiler": {
    "name": "solc",
    "version": "0.8.10+commit.fc410830.Emscripten.clang"
  },
  "schemaVersion": "3.4.4",
  "updatedAt": "2022-08-09T15:27:27.374Z",
  "networkType": "ethereum",
  "devdoc": {
    "kind": "dev",
    "methods": {},
    "version": 1
  },
  "userdoc": {
    "kind": "user",
    "methods": {},
    "version": 1
  }
}