{
  "contractName": "PlayerContract",
  "abi": [
    {
      "anonymous": false,
      "inputs": [
        {
          "indexed": true,
          "internalType": "address",
          "name": "attacker",
          "type": "address"
        },
        {
          "indexed": true,
          "internalType": "address",
          "name": "defender",
          "type": "address"
        },
        {
          "indexed": false,
          "internalType": "uint256",
          "name": "startingMinute",
          "type": "uint256"
        },
        {
          "indexed": false,
          "internalType": "bool",
          "name": "side",
          "type": "bool"
        }
      ],
      "name": "AttackRegistered",
      "type": "event"
    },
    {
      "anonymous": false,
      "inputs": [
        {
          "indexed": false,
          "internalType": "uint256",
          "name": "id",
          "type": "uint256"
        },
        {
          "indexed": false,
          "internalType": "string",
          "name": "name",
          "type": "string"
        }
      ],
      "name": "NewPlayerCreated",
      "type": "event"
    },
    {
      "inputs": [
        {
          "internalType": "address",
          "name": "",
          "type": "address"
        },
        {
          "internalType": "uint256",
          "name": "",
          "type": "uint256"
        }
      ],
      "name": "addressToAttacks",
      "outputs": [
        {
          "internalType": "uint256",
          "name": "startingMinute",
          "type": "uint256"
        },
        {
          "internalType": "address",
          "name": "defender",
          "type": "address"
        },
        {
          "internalType": "bool",
          "name": "side",
          "type": "bool"
        },
        {
          "internalType": "bool",
          "name": "finished",
          "type": "bool"
        },
        {
          "internalType": "bool",
          "name": "won",
          "type": "bool"
        }
      ],
      "stateMutability": "view",
      "type": "function",
      "constant": true
    },
    {
      "inputs": [
        {
          "internalType": "address",
          "name": "",
          "type": "address"
        }
      ],
      "name": "addressToPlayer",
      "outputs": [
        {
          "internalType": "uint256",
          "name": "id",
          "type": "uint256"
        },
        {
          "internalType": "string",
          "name": "name",
          "type": "string"
        },
        {
          "internalType": "uint256",
          "name": "attackWinCount",
          "type": "uint256"
        },
        {
          "internalType": "uint256",
          "name": "attackLossCount",
          "type": "uint256"
        },
        {
          "internalType": "uint256",
          "name": "defendWinCount",
          "type": "uint256"
        },
        {
          "internalType": "uint256",
          "name": "defendLossCount",
          "type": "uint256"
        },
        {
          "internalType": "int256",
          "name": "points",
          "type": "int256"
        }
      ],
      "stateMutability": "view",
      "type": "function",
      "constant": true
    },
    {
      "inputs": [
        {
          "internalType": "address",
          "name": "",
          "type": "address"
        }
      ],
      "name": "addressToRegisteredAttack",
      "outputs": [
        {
          "internalType": "bool",
          "name": "",
          "type": "bool"
        }
      ],
      "stateMutability": "view",
      "type": "function",
      "constant": true
    },
    {
      "inputs": [
        {
          "internalType": "uint256",
          "name": "",
          "type": "uint256"
        }
      ],
      "name": "players",
      "outputs": [
        {
          "internalType": "uint256",
          "name": "id",
          "type": "uint256"
        },
        {
          "internalType": "string",
          "name": "name",
          "type": "string"
        },
        {
          "internalType": "uint256",
          "name": "attackWinCount",
          "type": "uint256"
        },
        {
          "internalType": "uint256",
          "name": "attackLossCount",
          "type": "uint256"
        },
        {
          "internalType": "uint256",
          "name": "defendWinCount",
          "type": "uint256"
        },
        {
          "internalType": "uint256",
          "name": "defendLossCount",
          "type": "uint256"
        },
        {
          "internalType": "int256",
          "name": "points",
          "type": "int256"
        }
      ],
      "stateMutability": "view",
      "type": "function",
      "constant": true
    },
    {
      "inputs": [
        {
          "internalType": "string",
          "name": "_name",
          "type": "string"
        }
      ],
      "name": "createPlayer",
      "outputs": [],
      "stateMutability": "nonpayable",
      "type": "function"
    },
    {
      "inputs": [],
      "name": "getPlayer",
      "outputs": [
        {
          "components": [
            {
              "internalType": "uint256",
              "name": "id",
              "type": "uint256"
            },
            {
              "internalType": "string",
              "name": "name",
              "type": "string"
            },
            {
              "internalType": "uint256",
              "name": "attackWinCount",
              "type": "uint256"
            },
            {
              "internalType": "uint256",
              "name": "attackLossCount",
              "type": "uint256"
            },
            {
              "internalType": "uint256",
              "name": "defendWinCount",
              "type": "uint256"
            },
            {
              "internalType": "uint256",
              "name": "defendLossCount",
              "type": "uint256"
            },
            {
              "internalType": "int256",
              "name": "points",
              "type": "int256"
            }
          ],
          "internalType": "struct PlayerContract.Player",
          "name": "",
          "type": "tuple"
        }
      ],
      "stateMutability": "view",
      "type": "function",
      "constant": true
    },
    {
      "inputs": [
        {
          "internalType": "address",
          "name": "_defender",
          "type": "address"
        },
        {
          "internalType": "uint256",
          "name": "_startingMinute",
          "type": "uint256"
        },
        {
          "internalType": "bool",
          "name": "_side",
          "type": "bool"
        }
      ],
      "name": "registerAttack",
      "outputs": [],
      "stateMutability": "nonpayable",
      "type": "function"
    }
  ],
  "bytecode": "0x608060405234801561001057600080fd5b5061186f806100206000396000f3fe608060405234801561001057600080fd5b506004361061007d5760003560e01c806379a39ebd1161005b57806379a39ebd146100ec578063b586a74014610122578063c487f8c11461013e578063f71d96cb146101725761007d565b80631b8493f9146100825780633308f42d1461009e5780635e020021146100bc575b600080fd5b61009c60048036038101906100979190610e8e565b6101a8565b005b6100a661057c565b6040516100b3919061103e565b60405180910390f35b6100d660048036038101906100d19190611060565b610726565b6040516100e3919061109c565b60405180910390f35b61010660048036038101906101019190611060565b610746565b604051610119979695949392919061111f565b60405180910390f35b61013c600480360381019061013791906111fa565b610810565b005b61015860048036038101906101539190611247565b610aa0565b604051610169959493929190611296565b60405180910390f35b61018c600480360381019061018791906112e9565b610b3a565b60405161019f979695949392919061111f565b60405180910390f35b6000600160003373ffffffffffffffffffffffffffffffffffffffff1673ffffffffffffffffffffffffffffffffffffffff168152602001908152602001600020600001541161022d576040517f08c379a000000000000000000000000000000000000000000000000000000000815260040161022490611388565b60405180910390fd5b6000600160008573ffffffffffffffffffffffffffffffffffffffff1673ffffffffffffffffffffffffffffffffffffffff16815260200190815260200160002060000154116102b2576040517f08c379a00000000000000000000000000000000000000000000000000000000081526004016102a9906113f4565b60405180910390fd5b60006102bd83610c14565b905060006102ca42610c14565b905080821161030e576040517f08c379a000000000000000000000000000000000000000000000000000000000815260040161030590611486565b60405180910390fd5b620151808161031d91906114d5565b821061035e576040517f08c379a00000000000000000000000000000000000000000000000000000000081526004016103559061159d565b60405180910390fd5b610366610c2a565b156103a6576040517f08c379a000000000000000000000000000000000000000000000000000000000815260040161039d9061162f565b60405180910390fd5b6103ae610c7e565b600360003373ffffffffffffffffffffffffffffffffffffffff1673ffffffffffffffffffffffffffffffffffffffff1681526020019081526020016000206040518060a001604052808481526020018773ffffffffffffffffffffffffffffffffffffffff16815260200185151581526020016000151581526020016000151581525090806001815401808255809150506001900390600052602060002090600202016000909190919091506000820151816000015560208201518160010160006101000a81548173ffffffffffffffffffffffffffffffffffffffff021916908373ffffffffffffffffffffffffffffffffffffffff16021790555060408201518160010160146101000a81548160ff02191690831515021790555060608201518160010160156101000a81548160ff02191690831515021790555060808201518160010160166101000a81548160ff02191690831515021790555050508473ffffffffffffffffffffffffffffffffffffffff163373ffffffffffffffffffffffffffffffffffffffff167fb005412a6654cb2de467a8d5793294d014b6315427fc13ba49998a46831abe6a848660405161056d92919061164f565b60405180910390a35050505050565b610584610cd8565b6000600160003373ffffffffffffffffffffffffffffffffffffffff1673ffffffffffffffffffffffffffffffffffffffff1681526020019081526020016000206000015411610609576040517f08c379a000000000000000000000000000000000000000000000000000000000815260040161060090611388565b60405180910390fd5b600160003373ffffffffffffffffffffffffffffffffffffffff1673ffffffffffffffffffffffffffffffffffffffff1681526020019081526020016000206040518060e00160405290816000820154815260200160018201805461066d906116a7565b80601f0160208091040260200160405190810160405280929190818152602001828054610699906116a7565b80156106e65780601f106106bb576101008083540402835291602001916106e6565b820191906000526020600020905b8154815290600101906020018083116106c957829003601f168201915b5050505050815260200160028201548152602001600382015481526020016004820154815260200160058201548152602001600682015481525050905090565b60026020528060005260406000206000915054906101000a900460ff1681565b600160205280600052604060002060009150905080600001549080600101805461076f906116a7565b80601f016020809104026020016040519081016040528092919081815260200182805461079b906116a7565b80156107e85780601f106107bd576101008083540402835291602001916107e8565b820191906000526020600020905b8154815290600101906020018083116107cb57829003601f168201915b5050505050908060020154908060030154908060040154908060050154908060060154905087565b6000600160003373ffffffffffffffffffffffffffffffffffffffff1673ffffffffffffffffffffffffffffffffffffffff1681526020019081526020016000206000015414610895576040517f08c379a000000000000000000000000000000000000000000000000000000000815260040161088c9061174b565b60405180910390fd5b600060016000805490506108a991906114d5565b905060006040518060e0016040528060016000805490506108ca91906114d5565b815260200185858080601f016020809104026020016040519081016040528093929190818152602001838380828437600081840152601f19601f8201169050808301925050505050505081526020016000815260200160008152602001600081526020016000815260200160008152509050600081908060018154018082558091505060019003906000526020600020906007020160009091909190915060008201518160000155602082015181600101908051906020019061098e929190610d15565b5060408201518160020155606082015181600301556080820151816004015560a0820151816005015560c08201518160060155505080600160003373ffffffffffffffffffffffffffffffffffffffff1673ffffffffffffffffffffffffffffffffffffffff168152602001908152602001600020600082015181600001556020820151816001019080519060200190610a29929190610d15565b5060408201518160020155606082015181600301556080820151816004015560a0820151816005015560c082015181600601559050507fc613856e36141bd14e64b3158acae3752d0dc905757b70c6f8178f7a0747d1e9828585604051610a92939291906117a7565b60405180910390a150505050565b60036020528160005260406000208181548110610abc57600080fd5b9060005260206000209060020201600091509150508060000154908060010160009054906101000a900473ffffffffffffffffffffffffffffffffffffffff16908060010160149054906101000a900460ff16908060010160159054906101000a900460ff16908060010160169054906101000a900460ff16905085565b60008181548110610b4a57600080fd5b9060005260206000209060070201600091509050806000015490806001018054610b73906116a7565b80601f0160208091040260200160405190810160405280929190818152602001828054610b9f906116a7565b8015610bec5780601f10610bc157610100808354040283529160200191610bec565b820191906000526020600020905b815481529060010190602001808311610bcf57829003601f168201915b5050505050908060020154908060030154908060040154908060050154908060060154905087565b6000603c82610c239190611808565b9050919050565b6000600260003373ffffffffffffffffffffffffffffffffffffffff1673ffffffffffffffffffffffffffffffffffffffff16815260200190815260200160002060009054906101000a900460ff16905090565b6001600260003373ffffffffffffffffffffffffffffffffffffffff1673ffffffffffffffffffffffffffffffffffffffff16815260200190815260200160002060006101000a81548160ff021916908315150217905550565b6040518060e00160405280600081526020016060815260200160008152602001600081526020016000815260200160008152602001600081525090565b828054610d21906116a7565b90600052602060002090601f016020900481019282610d435760008555610d8a565b82601f10610d5c57805160ff1916838001178555610d8a565b82800160010185558215610d8a579182015b82811115610d89578251825591602001919060010190610d6e565b5b509050610d979190610d9b565b5090565b5b80821115610db4576000816000905550600101610d9c565b5090565b600080fd5b600080fd5b600073ffffffffffffffffffffffffffffffffffffffff82169050919050565b6000610ded82610dc2565b9050919050565b610dfd81610de2565b8114610e0857600080fd5b50565b600081359050610e1a81610df4565b92915050565b6000819050919050565b610e3381610e20565b8114610e3e57600080fd5b50565b600081359050610e5081610e2a565b92915050565b60008115159050919050565b610e6b81610e56565b8114610e7657600080fd5b50565b600081359050610e8881610e62565b92915050565b600080600060608486031215610ea757610ea6610db8565b5b6000610eb586828701610e0b565b9350506020610ec686828701610e41565b9250506040610ed786828701610e79565b9150509250925092565b610eea81610e20565b82525050565b600081519050919050565b600082825260208201905092915050565b60005b83811015610f2a578082015181840152602081019050610f0f565b83811115610f39576000848401525b50505050565b6000601f19601f8301169050919050565b6000610f5b82610ef0565b610f658185610efb565b9350610f75818560208601610f0c565b610f7e81610f3f565b840191505092915050565b6000819050919050565b610f9c81610f89565b82525050565b600060e083016000830151610fba6000860182610ee1565b5060208301518482036020860152610fd28282610f50565b9150506040830151610fe76040860182610ee1565b506060830151610ffa6060860182610ee1565b50608083015161100d6080860182610ee1565b5060a083015161102060a0860182610ee1565b5060c083015161103360c0860182610f93565b508091505092915050565b600060208201905081810360008301526110588184610fa2565b905092915050565b60006020828403121561107657611075610db8565b5b600061108484828501610e0b565b91505092915050565b61109681610e56565b82525050565b60006020820190506110b1600083018461108d565b92915050565b6110c081610e20565b82525050565b600082825260208201905092915050565b60006110e282610ef0565b6110ec81856110c6565b93506110fc818560208601610f0c565b61110581610f3f565b840191505092915050565b61111981610f89565b82525050565b600060e082019050611134600083018a6110b7565b818103602083015261114681896110d7565b905061115560408301886110b7565b61116260608301876110b7565b61116f60808301866110b7565b61117c60a08301856110b7565b61118960c0830184611110565b98975050505050505050565b600080fd5b600080fd5b600080fd5b60008083601f8401126111ba576111b9611195565b5b8235905067ffffffffffffffff8111156111d7576111d661119a565b5b6020830191508360018202830111156111f3576111f261119f565b5b9250929050565b6000806020838503121561121157611210610db8565b5b600083013567ffffffffffffffff81111561122f5761122e610dbd565b5b61123b858286016111a4565b92509250509250929050565b6000806040838503121561125e5761125d610db8565b5b600061126c85828601610e0b565b925050602061127d85828601610e41565b9150509250929050565b61129081610de2565b82525050565b600060a0820190506112ab60008301886110b7565b6112b86020830187611287565b6112c5604083018661108d565b6112d2606083018561108d565b6112df608083018461108d565b9695505050505050565b6000602082840312156112ff576112fe610db8565b5b600061130d84828501610e41565b91505092915050565b7f506c617965723a20706c61796572206e6f7420657869737420666f722061646460008201527f7265737300000000000000000000000000000000000000000000000000000000602082015250565b60006113726024836110c6565b915061137d82611316565b604082019050919050565b600060208201905081810360008301526113a181611365565b9050919050565b7f506c617965723a20646566656e646572206e6f74206578697374000000000000600082015250565b60006113de601a836110c6565b91506113e9826113a8565b602082019050919050565b6000602082019050818103600083015261140d816113d1565b9050919050565b7f506c617965723a207374617274696e67206d696e757465206d7573742062652060008201527f61206675747572652074696d6500000000000000000000000000000000000000602082015250565b6000611470602d836110c6565b915061147b82611414565b604082019050919050565b6000602082019050818103600083015261149f81611463565b9050919050565b7f4e487b7100000000000000000000000000000000000000000000000000000000600052601160045260246000fd5b60006114e082610e20565b91506114eb83610e20565b9250827fffffffffffffffffffffffffffffffffffffffffffffffffffffffffffffffff038211156115205761151f6114a6565b5b828201905092915050565b7f506c617965723a207374617274696e67206d696e757465206d757374206e6f7460008201527f2062652066617220617761790000000000000000000000000000000000000000602082015250565b6000611587602c836110c6565b91506115928261152b565b604082019050919050565b600060208201905081810360008301526115b68161157a565b9050919050565b7f506c617965723a20616c7265616479207265676973746572656420666f72206160008201527f6e2061747461636b000000000000000000000000000000000000000000000000602082015250565b60006116196028836110c6565b9150611624826115bd565b604082019050919050565b600060208201905081810360008301526116488161160c565b9050919050565b600060408201905061166460008301856110b7565b611671602083018461108d565b9392505050565b7f4e487b7100000000000000000000000000000000000000000000000000000000600052602260045260246000fd5b600060028204905060018216806116bf57607f821691505b602082108114156116d3576116d2611678565b5b50919050565b7f506c617965723a20706c6179657220616c72656164792065786973747320666f60008201527f7220616464726573730000000000000000000000000000000000000000000000602082015250565b60006117356029836110c6565b9150611740826116d9565b604082019050919050565b6000602082019050818103600083015261176481611728565b9050919050565b82818337600083830152505050565b600061178683856110c6565b935061179383858461176b565b61179c83610f3f565b840190509392505050565b60006040820190506117bc60008301866110b7565b81810360208301526117cf81848661177a565b9050949350505050565b7f4e487b7100000000000000000000000000000000000000000000000000000000600052601260045260246000fd5b600061181382610e20565b915061181e83610e20565b92508261182e5761182d6117d9565b5b82820490509291505056fea2646970667358221220c2fbd99df2d4dcef7e368d9184b7dec227d8fae7ca97af3e19b392af8f57f42264736f6c634300080a0033",
  "immutableReferences": {},
  "source": "// SPDX-License-Identifier: MIT\npragma solidity >=0.8.10;\n\ncontract PlayerContract\n{\n\tstruct Player {\n\t\tuint id;\n        string name;\n        uint attackWinCount;\n        uint attackLossCount;\n        uint defendWinCount;\n        uint defendLossCount;\n        int points;\n    }\n\n    struct Attack {\n        uint startingMinute;\n        address defender;\n        bool side;\n        bool finished;\n        bool won;\n    }\n\n    Player[] public players;\n    mapping (address => Player) public addressToPlayer;\n    mapping (address => bool) public addressToRegisteredAttack;\n    mapping (address => Attack[]) public addressToAttacks;\n\n\n\n\n    event NewPlayerCreated(uint id, string name);\n    event AttackRegistered(address indexed attacker, address indexed defender, uint startingMinute, bool side);\n\n\n\n\n    modifier senderMustExists ()\n    {\n        require(addressToPlayer[msg.sender].id > 0, \"Player: player not exist for address\");\n\n        _;\n    }\n\n\n\n\n    function createPlayer (string calldata _name) public\n    {\n    \trequire(addressToPlayer[msg.sender].id == 0, \"Player: player already exists for address\");\n\n        uint id = players.length + 1;\n    \tPlayer memory player = Player(players.length + 1, _name, 0, 0, 0, 0, 0);\n\n        players.push(player);\n        addressToPlayer[msg.sender] = player;\n\n        emit NewPlayerCreated(id, _name);\n    }\n\n    function getPlayer () public view senderMustExists returns (Player memory)\n    {\n        return addressToPlayer[msg.sender];\n    }\n\n    function registerAttack (address _defender, uint _startingMinute, bool _side) public senderMustExists\n    {\n        require(addressToPlayer[_defender].id > 0, \"Player: defender not exist\");\n\n        uint startingMinute = _getMinute(_startingMinute);\n        uint currentMinute = _getMinute(block.timestamp);\n\n        require(startingMinute > currentMinute, \"Player: starting minute must be a future time\");\n        require(startingMinute < currentMinute + 1 days, \"Player: starting minute must not be far away\");\n\n        require(!_hasRegisteredAttack(), \"Player: already registered for an attack\");\n\n        _registerAttack();\n\n        addressToAttacks[msg.sender].push(Attack(startingMinute, _defender, _side, false, false));\n\n        emit AttackRegistered(msg.sender, _defender, startingMinute, _side);\n    }\n\n\n\n\n    function _getMinute (uint _datetime) internal pure returns (uint)\n    {\n        return _datetime / 60;\n    }\n\n    function _hasRegisteredAttack () internal view returns (bool)\n    {\n        return addressToRegisteredAttack[msg.sender];\n    }\n\n    function _registerAttack () internal\n    {\n        addressToRegisteredAttack[msg.sender] = true;\n    }\n}\n",
  "sourcePath": "/home/orcun/battle/solidity/contracts/Player.sol",
  "compiler": {
    "name": "solc",
    "version": "0.8.10+commit.fc410830.Emscripten.clang"
  },
  "schemaVersion": "3.4.4",
  "updatedAt": "2022-08-10T19:07:54.531Z",
  "networkType": "ethereum",
  "devdoc": {
    "kind": "dev",
    "methods": {},
    "version": 1
  },
  "userdoc": {
    "kind": "user",
    "methods": {},
    "version": 1
  }
}