{
  "contractName": "PlayerContract",
  "abi": [
    {
      "anonymous": false,
      "inputs": [
        {
          "indexed": false,
          "internalType": "uint256",
          "name": "id",
          "type": "uint256"
        },
        {
          "indexed": false,
          "internalType": "string",
          "name": "name",
          "type": "string"
        }
      ],
      "name": "NewPlayerCreated",
      "type": "event"
    },
    {
      "inputs": [
        {
          "internalType": "address",
          "name": "",
          "type": "address"
        }
      ],
      "name": "addressToPlayer",
      "outputs": [
        {
          "internalType": "uint256",
          "name": "id",
          "type": "uint256"
        },
        {
          "internalType": "string",
          "name": "name",
          "type": "string"
        },
        {
          "internalType": "uint256",
          "name": "winCount",
          "type": "uint256"
        },
        {
          "internalType": "uint256",
          "name": "lossCount",
          "type": "uint256"
        }
      ],
      "stateMutability": "view",
      "type": "function",
      "constant": true
    },
    {
      "inputs": [
        {
          "internalType": "uint256",
          "name": "",
          "type": "uint256"
        }
      ],
      "name": "players",
      "outputs": [
        {
          "internalType": "uint256",
          "name": "id",
          "type": "uint256"
        },
        {
          "internalType": "string",
          "name": "name",
          "type": "string"
        },
        {
          "internalType": "uint256",
          "name": "winCount",
          "type": "uint256"
        },
        {
          "internalType": "uint256",
          "name": "lossCount",
          "type": "uint256"
        }
      ],
      "stateMutability": "view",
      "type": "function",
      "constant": true
    },
    {
      "inputs": [
        {
          "internalType": "string",
          "name": "_name",
          "type": "string"
        }
      ],
      "name": "createPlayer",
      "outputs": [],
      "stateMutability": "nonpayable",
      "type": "function"
    },
    {
      "inputs": [],
      "name": "getPlayer",
      "outputs": [
        {
          "components": [
            {
              "internalType": "uint256",
              "name": "id",
              "type": "uint256"
            },
            {
              "internalType": "string",
              "name": "name",
              "type": "string"
            },
            {
              "internalType": "uint256",
              "name": "winCount",
              "type": "uint256"
            },
            {
              "internalType": "uint256",
              "name": "lossCount",
              "type": "uint256"
            }
          ],
          "internalType": "struct PlayerContract.Player",
          "name": "",
          "type": "tuple"
        }
      ],
      "stateMutability": "view",
      "type": "function",
      "constant": true
    }
  ],
  "bytecode": "0x608060405234801561001057600080fd5b50610d31806100206000396000f3fe608060405234801561001057600080fd5b506004361061004c5760003560e01c80633308f42d1461005157806379a39ebd1461006f578063b586a740146100a2578063f71d96cb146100be575b600080fd5b6100596100f1565b604051610066919061081c565b60405180910390f35b610089600480360381019061008491906108a6565b61027d565b604051610099949392919061092c565b60405180910390f35b6100bc60048036038101906100b791906109dd565b610335565b005b6100d860048036038101906100d39190610a56565b610574565b6040516100e8949392919061092c565b60405180910390f35b6100f961063c565b6000600160003373ffffffffffffffffffffffffffffffffffffffff1673ffffffffffffffffffffffffffffffffffffffff168152602001908152602001600020600001541161017e576040517f08c379a000000000000000000000000000000000000000000000000000000000815260040161017590610af5565b60405180910390fd5b600160003373ffffffffffffffffffffffffffffffffffffffff1673ffffffffffffffffffffffffffffffffffffffff168152602001908152602001600020604051806080016040529081600082015481526020016001820180546101e290610b44565b80601f016020809104026020016040519081016040528092919081815260200182805461020e90610b44565b801561025b5780601f106102305761010080835404028352916020019161025b565b820191906000526020600020905b81548152906001019060200180831161023e57829003601f168201915b5050505050815260200160028201548152602001600382015481525050905090565b60016020528060005260406000206000915090508060000154908060010180546102a690610b44565b80601f01602080910402602001604051908101604052809291908181526020018280546102d290610b44565b801561031f5780601f106102f45761010080835404028352916020019161031f565b820191906000526020600020905b81548152906001019060200180831161030257829003601f168201915b5050505050908060020154908060030154905084565b6000600160003373ffffffffffffffffffffffffffffffffffffffff1673ffffffffffffffffffffffffffffffffffffffff16815260200190815260200160002060000154146103ba576040517f08c379a00000000000000000000000000000000000000000000000000000000081526004016103b190610be8565b60405180910390fd5b600060016000805490506103ce9190610c37565b90506000604051806080016040528060016000805490506103ef9190610c37565b815260200185858080601f016020809104026020016040519081016040528093929190818152602001838380828437600081840152601f19601f8201169050808301925050505050505081526020016000815260200160008152509050600081908060018154018082558091505060019003906000526020600020906004020160009091909190915060008201518160000155602082015181600101908051906020019061049e929190610664565b506040820151816002015560608201518160030155505080600160003373ffffffffffffffffffffffffffffffffffffffff1673ffffffffffffffffffffffffffffffffffffffff16815260200190815260200160002060008201518160000155602082015181600101908051906020019061051b929190610664565b5060408201518160020155606082015181600301559050507fc613856e36141bd14e64b3158acae3752d0dc905757b70c6f8178f7a0747d1e982858560405161056693929190610cc9565b60405180910390a150505050565b6000818154811061058457600080fd5b90600052602060002090600402016000915090508060000154908060010180546105ad90610b44565b80601f01602080910402602001604051908101604052809291908181526020018280546105d990610b44565b80156106265780601f106105fb57610100808354040283529160200191610626565b820191906000526020600020905b81548152906001019060200180831161060957829003601f168201915b5050505050908060020154908060030154905084565b6040518060800160405280600081526020016060815260200160008152602001600081525090565b82805461067090610b44565b90600052602060002090601f01602090048101928261069257600085556106d9565b82601f106106ab57805160ff19168380011785556106d9565b828001600101855582156106d9579182015b828111156106d85782518255916020019190600101906106bd565b5b5090506106e691906106ea565b5090565b5b808211156107035760008160009055506001016106eb565b5090565b6000819050919050565b61071a81610707565b82525050565b600081519050919050565b600082825260208201905092915050565b60005b8381101561075a57808201518184015260208101905061073f565b83811115610769576000848401525b50505050565b6000601f19601f8301169050919050565b600061078b82610720565b610795818561072b565b93506107a581856020860161073c565b6107ae8161076f565b840191505092915050565b60006080830160008301516107d16000860182610711565b50602083015184820360208601526107e98282610780565b91505060408301516107fe6040860182610711565b5060608301516108116060860182610711565b508091505092915050565b6000602082019050818103600083015261083681846107b9565b905092915050565b600080fd5b600080fd5b600073ffffffffffffffffffffffffffffffffffffffff82169050919050565b600061087382610848565b9050919050565b61088381610868565b811461088e57600080fd5b50565b6000813590506108a08161087a565b92915050565b6000602082840312156108bc576108bb61083e565b5b60006108ca84828501610891565b91505092915050565b6108dc81610707565b82525050565b600082825260208201905092915050565b60006108fe82610720565b61090881856108e2565b935061091881856020860161073c565b6109218161076f565b840191505092915050565b600060808201905061094160008301876108d3565b818103602083015261095381866108f3565b905061096260408301856108d3565b61096f60608301846108d3565b95945050505050565b600080fd5b600080fd5b600080fd5b60008083601f84011261099d5761099c610978565b5b8235905067ffffffffffffffff8111156109ba576109b961097d565b5b6020830191508360018202830111156109d6576109d5610982565b5b9250929050565b600080602083850312156109f4576109f361083e565b5b600083013567ffffffffffffffff811115610a1257610a11610843565b5b610a1e85828601610987565b92509250509250929050565b610a3381610707565b8114610a3e57600080fd5b50565b600081359050610a5081610a2a565b92915050565b600060208284031215610a6c57610a6b61083e565b5b6000610a7a84828501610a41565b91505092915050565b7f506c617965723a20706c61796572206e6f7420657869737420666f722061646460008201527f7265737300000000000000000000000000000000000000000000000000000000602082015250565b6000610adf6024836108e2565b9150610aea82610a83565b604082019050919050565b60006020820190508181036000830152610b0e81610ad2565b9050919050565b7f4e487b7100000000000000000000000000000000000000000000000000000000600052602260045260246000fd5b60006002820490506001821680610b5c57607f821691505b60208210811415610b7057610b6f610b15565b5b50919050565b7f506c617965723a20706c6179657220616c72656164792065786973747320666f60008201527f7220616464726573730000000000000000000000000000000000000000000000602082015250565b6000610bd26029836108e2565b9150610bdd82610b76565b604082019050919050565b60006020820190508181036000830152610c0181610bc5565b9050919050565b7f4e487b7100000000000000000000000000000000000000000000000000000000600052601160045260246000fd5b6000610c4282610707565b9150610c4d83610707565b9250827fffffffffffffffffffffffffffffffffffffffffffffffffffffffffffffffff03821115610c8257610c81610c08565b5b828201905092915050565b82818337600083830152505050565b6000610ca883856108e2565b9350610cb5838584610c8d565b610cbe8361076f565b840190509392505050565b6000604082019050610cde60008301866108d3565b8181036020830152610cf1818486610c9c565b905094935050505056fea2646970667358221220e7a0a920d5652f86b414db134ef4b53576a81836d299e96150c9c648a8d8004964736f6c634300080a0033",
  "immutableReferences": {},
  "source": "// SPDX-License-Identifier: MIT\npragma solidity >=0.8.10;\n\ncontract PlayerContract\n{\n\tstruct Player {\n\t\tuint id;\n        string name;\n        uint winCount;\n        uint lossCount;\n    }\n\n    Player[] public players;\n    mapping (address => Player) public addressToPlayer;\n\n\n\n\n    event NewPlayerCreated(uint id, string name);\n\n\n\n\n    function createPlayer (string calldata _name) public\n    {\n    \trequire(addressToPlayer[msg.sender].id == 0, \"Player: player already exists for address\");\n\n        uint id = players.length + 1;\n    \tPlayer memory player = Player(players.length + 1, _name, 0, 0);\n\n        players.push(player);\n        addressToPlayer[msg.sender] = player;\n\n        emit NewPlayerCreated(id, _name);\n    }\n\n    function getPlayer () public view returns (Player memory)\n    {\n        require(addressToPlayer[msg.sender].id > 0, \"Player: player not exist for address\");\n\n        return addressToPlayer[msg.sender];\n    }\n}\n",
  "sourcePath": "/home/orcun/battle/solidity/contracts/Player.sol",
  "compiler": {
    "name": "solc",
    "version": "0.8.10+commit.fc410830.Emscripten.clang"
  },
  "schemaVersion": "3.4.4",
  "updatedAt": "2022-08-09T18:47:50.341Z",
  "networkType": "ethereum",
  "devdoc": {
    "kind": "dev",
    "methods": {},
    "version": 1
  },
  "userdoc": {
    "kind": "user",
    "methods": {},
    "version": 1
  }
}