{
  "contractName": "PlayerContract",
  "abi": [
    {
      "anonymous": false,
      "inputs": [
        {
          "indexed": true,
          "internalType": "address",
          "name": "attacker",
          "type": "address"
        },
        {
          "indexed": true,
          "internalType": "address",
          "name": "defender",
          "type": "address"
        },
        {
          "indexed": false,
          "internalType": "uint256",
          "name": "startingMinute",
          "type": "uint256"
        },
        {
          "indexed": false,
          "internalType": "bool",
          "name": "side",
          "type": "bool"
        }
      ],
      "name": "AttackRegistered",
      "type": "event"
    },
    {
      "anonymous": false,
      "inputs": [
        {
          "indexed": false,
          "internalType": "uint256",
          "name": "id",
          "type": "uint256"
        },
        {
          "indexed": false,
          "internalType": "string",
          "name": "name",
          "type": "string"
        }
      ],
      "name": "NewPlayerCreated",
      "type": "event"
    },
    {
      "inputs": [
        {
          "internalType": "address",
          "name": "",
          "type": "address"
        },
        {
          "internalType": "uint256",
          "name": "",
          "type": "uint256"
        }
      ],
      "name": "addressToAttacks",
      "outputs": [
        {
          "internalType": "uint256",
          "name": "startingMinute",
          "type": "uint256"
        },
        {
          "internalType": "address",
          "name": "defender",
          "type": "address"
        },
        {
          "internalType": "bool",
          "name": "side",
          "type": "bool"
        },
        {
          "internalType": "bool",
          "name": "finished",
          "type": "bool"
        },
        {
          "internalType": "bool",
          "name": "won",
          "type": "bool"
        }
      ],
      "stateMutability": "view",
      "type": "function",
      "constant": true
    },
    {
      "inputs": [
        {
          "internalType": "address",
          "name": "",
          "type": "address"
        }
      ],
      "name": "addressToHasRegisteredAttack",
      "outputs": [
        {
          "internalType": "bool",
          "name": "",
          "type": "bool"
        }
      ],
      "stateMutability": "view",
      "type": "function",
      "constant": true
    },
    {
      "inputs": [
        {
          "internalType": "address",
          "name": "",
          "type": "address"
        }
      ],
      "name": "addressToPlayer",
      "outputs": [
        {
          "internalType": "uint256",
          "name": "id",
          "type": "uint256"
        },
        {
          "internalType": "string",
          "name": "name",
          "type": "string"
        },
        {
          "internalType": "uint256",
          "name": "attackWinCount",
          "type": "uint256"
        },
        {
          "internalType": "uint256",
          "name": "attackLossCount",
          "type": "uint256"
        },
        {
          "internalType": "uint256",
          "name": "defendWinCount",
          "type": "uint256"
        },
        {
          "internalType": "uint256",
          "name": "defendLossCount",
          "type": "uint256"
        },
        {
          "internalType": "int256",
          "name": "points",
          "type": "int256"
        }
      ],
      "stateMutability": "view",
      "type": "function",
      "constant": true
    },
    {
      "inputs": [
        {
          "internalType": "uint256",
          "name": "",
          "type": "uint256"
        }
      ],
      "name": "players",
      "outputs": [
        {
          "internalType": "uint256",
          "name": "id",
          "type": "uint256"
        },
        {
          "internalType": "string",
          "name": "name",
          "type": "string"
        },
        {
          "internalType": "uint256",
          "name": "attackWinCount",
          "type": "uint256"
        },
        {
          "internalType": "uint256",
          "name": "attackLossCount",
          "type": "uint256"
        },
        {
          "internalType": "uint256",
          "name": "defendWinCount",
          "type": "uint256"
        },
        {
          "internalType": "uint256",
          "name": "defendLossCount",
          "type": "uint256"
        },
        {
          "internalType": "int256",
          "name": "points",
          "type": "int256"
        }
      ],
      "stateMutability": "view",
      "type": "function",
      "constant": true
    },
    {
      "inputs": [
        {
          "internalType": "string",
          "name": "_name",
          "type": "string"
        }
      ],
      "name": "createPlayer",
      "outputs": [],
      "stateMutability": "nonpayable",
      "type": "function"
    },
    {
      "inputs": [],
      "name": "getPlayer",
      "outputs": [
        {
          "components": [
            {
              "internalType": "uint256",
              "name": "id",
              "type": "uint256"
            },
            {
              "internalType": "string",
              "name": "name",
              "type": "string"
            },
            {
              "internalType": "uint256",
              "name": "attackWinCount",
              "type": "uint256"
            },
            {
              "internalType": "uint256",
              "name": "attackLossCount",
              "type": "uint256"
            },
            {
              "internalType": "uint256",
              "name": "defendWinCount",
              "type": "uint256"
            },
            {
              "internalType": "uint256",
              "name": "defendLossCount",
              "type": "uint256"
            },
            {
              "internalType": "int256",
              "name": "points",
              "type": "int256"
            }
          ],
          "internalType": "struct PlayerContract.Player",
          "name": "",
          "type": "tuple"
        }
      ],
      "stateMutability": "view",
      "type": "function",
      "constant": true
    },
    {
      "inputs": [
        {
          "internalType": "address",
          "name": "_defender",
          "type": "address"
        },
        {
          "internalType": "uint256",
          "name": "_startingMinute",
          "type": "uint256"
        },
        {
          "internalType": "bool",
          "name": "_side",
          "type": "bool"
        }
      ],
      "name": "registerAttack",
      "outputs": [],
      "stateMutability": "nonpayable",
      "type": "function"
    }
  ],
  "bytecode": "0x608060405234801561001057600080fd5b506118d4806100206000396000f3fe608060405234801561001057600080fd5b506004361061007d5760003560e01c8063b586a7401161005b578063b586a740146100f2578063c487f8c11461010e578063ee451c9514610142578063f71d96cb146101725761007d565b80631b8493f9146100825780633308f42d1461009e57806379a39ebd146100bc575b600080fd5b61009c60048036038101906100979190610e99565b6101a8565b005b6100a661057c565b6040516100b39190611049565b60405180910390f35b6100d660048036038101906100d1919061106b565b610726565b6040516100e99796959493929190611100565b60405180910390f35b61010c600480360381019061010791906111db565b6107f0565b005b61012860048036038101906101239190611228565b610a80565b604051610139959493929190611286565b60405180910390f35b61015c6004803603810190610157919061106b565b610b1a565b60405161016991906112d9565b60405180910390f35b61018c600480360381019061018791906112f4565b610b3a565b60405161019f9796959493929190611100565b60405180910390f35b6000600160003373ffffffffffffffffffffffffffffffffffffffff1673ffffffffffffffffffffffffffffffffffffffff168152602001908152602001600020600001541161022d576040517f08c379a000000000000000000000000000000000000000000000000000000000815260040161022490611393565b60405180910390fd5b6000600160008573ffffffffffffffffffffffffffffffffffffffff1673ffffffffffffffffffffffffffffffffffffffff16815260200190815260200160002060000154116102b2576040517f08c379a00000000000000000000000000000000000000000000000000000000081526004016102a9906113ff565b60405180910390fd5b60006102bd83610c14565b905060006102ca42610c14565b905080821161030e576040517f08c379a000000000000000000000000000000000000000000000000000000000815260040161030590611491565b60405180910390fd5b620151808161031d91906114e0565b821061035e576040517f08c379a0000000000000000000000000000000000000000000000000000000008152600401610355906115a8565b60405180910390fd5b610366610c35565b156103a6576040517f08c379a000000000000000000000000000000000000000000000000000000000815260040161039d9061163a565b60405180910390fd5b6103ae610c89565b600360003373ffffffffffffffffffffffffffffffffffffffff1673ffffffffffffffffffffffffffffffffffffffff1681526020019081526020016000206040518060a001604052808481526020018773ffffffffffffffffffffffffffffffffffffffff16815260200185151581526020016000151581526020016000151581525090806001815401808255809150506001900390600052602060002090600202016000909190919091506000820151816000015560208201518160010160006101000a81548173ffffffffffffffffffffffffffffffffffffffff021916908373ffffffffffffffffffffffffffffffffffffffff16021790555060408201518160010160146101000a81548160ff02191690831515021790555060608201518160010160156101000a81548160ff02191690831515021790555060808201518160010160166101000a81548160ff02191690831515021790555050508473ffffffffffffffffffffffffffffffffffffffff163373ffffffffffffffffffffffffffffffffffffffff167fb005412a6654cb2de467a8d5793294d014b6315427fc13ba49998a46831abe6a848660405161056d92919061165a565b60405180910390a35050505050565b610584610ce3565b6000600160003373ffffffffffffffffffffffffffffffffffffffff1673ffffffffffffffffffffffffffffffffffffffff1681526020019081526020016000206000015411610609576040517f08c379a000000000000000000000000000000000000000000000000000000000815260040161060090611393565b60405180910390fd5b600160003373ffffffffffffffffffffffffffffffffffffffff1673ffffffffffffffffffffffffffffffffffffffff1681526020019081526020016000206040518060e00160405290816000820154815260200160018201805461066d906116b2565b80601f0160208091040260200160405190810160405280929190818152602001828054610699906116b2565b80156106e65780601f106106bb576101008083540402835291602001916106e6565b820191906000526020600020905b8154815290600101906020018083116106c957829003601f168201915b5050505050815260200160028201548152602001600382015481526020016004820154815260200160058201548152602001600682015481525050905090565b600160205280600052604060002060009150905080600001549080600101805461074f906116b2565b80601f016020809104026020016040519081016040528092919081815260200182805461077b906116b2565b80156107c85780601f1061079d576101008083540402835291602001916107c8565b820191906000526020600020905b8154815290600101906020018083116107ab57829003601f168201915b5050505050908060020154908060030154908060040154908060050154908060060154905087565b6000600160003373ffffffffffffffffffffffffffffffffffffffff1673ffffffffffffffffffffffffffffffffffffffff1681526020019081526020016000206000015414610875576040517f08c379a000000000000000000000000000000000000000000000000000000000815260040161086c90611756565b60405180910390fd5b6000600160008054905061088991906114e0565b905060006040518060e0016040528060016000805490506108aa91906114e0565b815260200185858080601f016020809104026020016040519081016040528093929190818152602001838380828437600081840152601f19601f8201169050808301925050505050505081526020016000815260200160008152602001600081526020016000815260200160008152509050600081908060018154018082558091505060019003906000526020600020906007020160009091909190915060008201518160000155602082015181600101908051906020019061096e929190610d20565b5060408201518160020155606082015181600301556080820151816004015560a0820151816005015560c08201518160060155505080600160003373ffffffffffffffffffffffffffffffffffffffff1673ffffffffffffffffffffffffffffffffffffffff168152602001908152602001600020600082015181600001556020820151816001019080519060200190610a09929190610d20565b5060408201518160020155606082015181600301556080820151816004015560a0820151816005015560c082015181600601559050507fc613856e36141bd14e64b3158acae3752d0dc905757b70c6f8178f7a0747d1e9828585604051610a72939291906117b2565b60405180910390a150505050565b60036020528160005260406000208181548110610a9c57600080fd5b9060005260206000209060020201600091509150508060000154908060010160009054906101000a900473ffffffffffffffffffffffffffffffffffffffff16908060010160149054906101000a900460ff16908060010160159054906101000a900460ff16908060010160169054906101000a900460ff16905085565b60026020528060005260406000206000915054906101000a900460ff1681565b60008181548110610b4a57600080fd5b9060005260206000209060070201600091509050806000015490806001018054610b73906116b2565b80601f0160208091040260200160405190810160405280929190818152602001828054610b9f906116b2565b8015610bec5780601f10610bc157610100808354040283529160200191610bec565b820191906000526020600020905b815481529060010190602001808311610bcf57829003601f168201915b5050505050908060020154908060030154908060040154908060050154908060060154905087565b6000603c8083610c249190611813565b610c2e9190611844565b9050919050565b6000600260003373ffffffffffffffffffffffffffffffffffffffff1673ffffffffffffffffffffffffffffffffffffffff16815260200190815260200160002060009054906101000a900460ff16905090565b6001600260003373ffffffffffffffffffffffffffffffffffffffff1673ffffffffffffffffffffffffffffffffffffffff16815260200190815260200160002060006101000a81548160ff021916908315150217905550565b6040518060e00160405280600081526020016060815260200160008152602001600081526020016000815260200160008152602001600081525090565b828054610d2c906116b2565b90600052602060002090601f016020900481019282610d4e5760008555610d95565b82601f10610d6757805160ff1916838001178555610d95565b82800160010185558215610d95579182015b82811115610d94578251825591602001919060010190610d79565b5b509050610da29190610da6565b5090565b5b80821115610dbf576000816000905550600101610da7565b5090565b600080fd5b600080fd5b600073ffffffffffffffffffffffffffffffffffffffff82169050919050565b6000610df882610dcd565b9050919050565b610e0881610ded565b8114610e1357600080fd5b50565b600081359050610e2581610dff565b92915050565b6000819050919050565b610e3e81610e2b565b8114610e4957600080fd5b50565b600081359050610e5b81610e35565b92915050565b60008115159050919050565b610e7681610e61565b8114610e8157600080fd5b50565b600081359050610e9381610e6d565b92915050565b600080600060608486031215610eb257610eb1610dc3565b5b6000610ec086828701610e16565b9350506020610ed186828701610e4c565b9250506040610ee286828701610e84565b9150509250925092565b610ef581610e2b565b82525050565b600081519050919050565b600082825260208201905092915050565b60005b83811015610f35578082015181840152602081019050610f1a565b83811115610f44576000848401525b50505050565b6000601f19601f8301169050919050565b6000610f6682610efb565b610f708185610f06565b9350610f80818560208601610f17565b610f8981610f4a565b840191505092915050565b6000819050919050565b610fa781610f94565b82525050565b600060e083016000830151610fc56000860182610eec565b5060208301518482036020860152610fdd8282610f5b565b9150506040830151610ff26040860182610eec565b5060608301516110056060860182610eec565b5060808301516110186080860182610eec565b5060a083015161102b60a0860182610eec565b5060c083015161103e60c0860182610f9e565b508091505092915050565b600060208201905081810360008301526110638184610fad565b905092915050565b60006020828403121561108157611080610dc3565b5b600061108f84828501610e16565b91505092915050565b6110a181610e2b565b82525050565b600082825260208201905092915050565b60006110c382610efb565b6110cd81856110a7565b93506110dd818560208601610f17565b6110e681610f4a565b840191505092915050565b6110fa81610f94565b82525050565b600060e082019050611115600083018a611098565b818103602083015261112781896110b8565b90506111366040830188611098565b6111436060830187611098565b6111506080830186611098565b61115d60a0830185611098565b61116a60c08301846110f1565b98975050505050505050565b600080fd5b600080fd5b600080fd5b60008083601f84011261119b5761119a611176565b5b8235905067ffffffffffffffff8111156111b8576111b761117b565b5b6020830191508360018202830111156111d4576111d3611180565b5b9250929050565b600080602083850312156111f2576111f1610dc3565b5b600083013567ffffffffffffffff8111156112105761120f610dc8565b5b61121c85828601611185565b92509250509250929050565b6000806040838503121561123f5761123e610dc3565b5b600061124d85828601610e16565b925050602061125e85828601610e4c565b9150509250929050565b61127181610ded565b82525050565b61128081610e61565b82525050565b600060a08201905061129b6000830188611098565b6112a86020830187611268565b6112b56040830186611277565b6112c26060830185611277565b6112cf6080830184611277565b9695505050505050565b60006020820190506112ee6000830184611277565b92915050565b60006020828403121561130a57611309610dc3565b5b600061131884828501610e4c565b91505092915050565b7f506c617965723a20706c61796572206e6f7420657869737420666f722061646460008201527f7265737300000000000000000000000000000000000000000000000000000000602082015250565b600061137d6024836110a7565b915061138882611321565b604082019050919050565b600060208201905081810360008301526113ac81611370565b9050919050565b7f506c617965723a20646566656e646572206e6f74206578697374000000000000600082015250565b60006113e9601a836110a7565b91506113f4826113b3565b602082019050919050565b60006020820190508181036000830152611418816113dc565b9050919050565b7f506c617965723a207374617274696e67206d696e757465206d7573742062652060008201527f61206675747572652074696d6500000000000000000000000000000000000000602082015250565b600061147b602d836110a7565b91506114868261141f565b604082019050919050565b600060208201905081810360008301526114aa8161146e565b9050919050565b7f4e487b7100000000000000000000000000000000000000000000000000000000600052601160045260246000fd5b60006114eb82610e2b565b91506114f683610e2b565b9250827fffffffffffffffffffffffffffffffffffffffffffffffffffffffffffffffff0382111561152b5761152a6114b1565b5b828201905092915050565b7f506c617965723a207374617274696e67206d696e757465206d757374206e6f7460008201527f2062652066617220617761790000000000000000000000000000000000000000602082015250565b6000611592602c836110a7565b915061159d82611536565b604082019050919050565b600060208201905081810360008301526115c181611585565b9050919050565b7f506c617965723a20616c7265616479207265676973746572656420666f72206160008201527f6e2061747461636b000000000000000000000000000000000000000000000000602082015250565b60006116246028836110a7565b915061162f826115c8565b604082019050919050565b6000602082019050818103600083015261165381611617565b9050919050565b600060408201905061166f6000830185611098565b61167c6020830184611277565b9392505050565b7f4e487b7100000000000000000000000000000000000000000000000000000000600052602260045260246000fd5b600060028204905060018216806116ca57607f821691505b602082108114156116de576116dd611683565b5b50919050565b7f506c617965723a20706c6179657220616c72656164792065786973747320666f60008201527f7220616464726573730000000000000000000000000000000000000000000000602082015250565b60006117406029836110a7565b915061174b826116e4565b604082019050919050565b6000602082019050818103600083015261176f81611733565b9050919050565b82818337600083830152505050565b600061179183856110a7565b935061179e838584611776565b6117a783610f4a565b840190509392505050565b60006040820190506117c76000830186611098565b81810360208301526117da818486611785565b9050949350505050565b7f4e487b7100000000000000000000000000000000000000000000000000000000600052601260045260246000fd5b600061181e82610e2b565b915061182983610e2b565b925082611839576118386117e4565b5b828204905092915050565b600061184f82610e2b565b915061185a83610e2b565b9250817fffffffffffffffffffffffffffffffffffffffffffffffffffffffffffffffff0483118215151615611893576118926114b1565b5b82820290509291505056fea2646970667358221220543f37f12f720f1be2a93552670f0a0337183c8ed6673d0671d5b1f68d42535264736f6c634300080a0033",
  "immutableReferences": {},
  "source": "// SPDX-License-Identifier: MIT\npragma solidity >=0.8.10;\n\ncontract PlayerContract\n{\n\tstruct Player {\n\t\tuint id;\n        string name;\n        uint attackWinCount;\n        uint attackLossCount;\n        uint defendWinCount;\n        uint defendLossCount;\n        int points;\n    }\n\n    struct Attack {\n        uint startingMinute;\n        address defender;\n        bool side;\n        bool finished;\n        bool won;\n    }\n\n    Player[] public players;\n    mapping (address => Player) public addressToPlayer;\n    mapping (address => bool) public addressToHasRegisteredAttack;\n    mapping (address => Attack[]) public addressToAttacks;\n\n\n\n\n    event NewPlayerCreated(uint id, string name);\n    event AttackRegistered(address indexed attacker, address indexed defender, uint startingMinute, bool side);\n\n\n\n\n    modifier senderMustExists ()\n    {\n        require(addressToPlayer[msg.sender].id > 0, \"Player: player not exist for address\");\n\n        _;\n    }\n\n\n\n\n    function createPlayer (string calldata _name) public\n    {\n    \trequire(addressToPlayer[msg.sender].id == 0, \"Player: player already exists for address\");\n\n        uint id = players.length + 1;\n    \tPlayer memory player = Player(players.length + 1, _name, 0, 0, 0, 0, 0);\n\n        players.push(player);\n        addressToPlayer[msg.sender] = player;\n\n        emit NewPlayerCreated(id, _name);\n    }\n\n    function getPlayer () public view senderMustExists returns (Player memory)\n    {\n        return addressToPlayer[msg.sender];\n    }\n\n    function registerAttack (address _defender, uint _startingMinute, bool _side) public senderMustExists\n    {\n        require(addressToPlayer[_defender].id > 0, \"Player: defender not exist\");\n\n        uint startingMinute = _getMinute(_startingMinute);\n        uint currentMinute = _getMinute(block.timestamp);\n\n        require(startingMinute > currentMinute, \"Player: starting minute must be a future time\");\n        require(startingMinute < currentMinute + 1 days, \"Player: starting minute must not be far away\");\n\n        require(!_hasRegisteredAttack(), \"Player: already registered for an attack\");\n\n        _registerAttack();\n\n        addressToAttacks[msg.sender].push(Attack(startingMinute, _defender, _side, false, false));\n\n        emit AttackRegistered(msg.sender, _defender, startingMinute, _side);\n    }\n\n\n\n\n    function _getMinute (uint _datetime) internal pure returns (uint)\n    {\n        return (_datetime / 60) * 60;\n    }\n\n    function _hasRegisteredAttack () internal view returns (bool)\n    {\n        return addressToHasRegisteredAttack[msg.sender];\n    }\n\n    function _registerAttack () internal\n    {\n        addressToHasRegisteredAttack[msg.sender] = true;\n    }\n}\n",
  "sourcePath": "/home/orcun/battle/solidity/contracts/Player.sol",
  "compiler": {
    "name": "solc",
    "version": "0.8.10+commit.fc410830.Emscripten.clang"
  },
  "schemaVersion": "3.4.4",
  "updatedAt": "2022-09-01T16:17:11.620Z",
  "networkType": "ethereum",
  "devdoc": {
    "kind": "dev",
    "methods": {},
    "version": 1
  },
  "userdoc": {
    "kind": "user",
    "methods": {},
    "version": 1
  }
}