{
  "contractName": "PlayerContract",
  "abi": [
    {
      "anonymous": false,
      "inputs": [
        {
          "indexed": true,
          "internalType": "address",
          "name": "attacker",
          "type": "address"
        },
        {
          "indexed": true,
          "internalType": "address",
          "name": "defender",
          "type": "address"
        },
        {
          "indexed": false,
          "internalType": "uint256",
          "name": "startingMinute",
          "type": "uint256"
        },
        {
          "indexed": false,
          "internalType": "bool",
          "name": "side",
          "type": "bool"
        }
      ],
      "name": "AttackRegistered",
      "type": "event"
    },
    {
      "anonymous": false,
      "inputs": [
        {
          "indexed": false,
          "internalType": "uint256",
          "name": "id",
          "type": "uint256"
        },
        {
          "indexed": false,
          "internalType": "string",
          "name": "name",
          "type": "string"
        }
      ],
      "name": "NewPlayerCreated",
      "type": "event"
    },
    {
      "inputs": [
        {
          "internalType": "address",
          "name": "",
          "type": "address"
        },
        {
          "internalType": "uint256",
          "name": "",
          "type": "uint256"
        }
      ],
      "name": "addressToAttacks",
      "outputs": [
        {
          "internalType": "uint256",
          "name": "startingMinute",
          "type": "uint256"
        },
        {
          "internalType": "address",
          "name": "defender",
          "type": "address"
        },
        {
          "internalType": "bool",
          "name": "side",
          "type": "bool"
        },
        {
          "internalType": "bool",
          "name": "finished",
          "type": "bool"
        },
        {
          "internalType": "bool",
          "name": "won",
          "type": "bool"
        }
      ],
      "stateMutability": "view",
      "type": "function",
      "constant": true
    },
    {
      "inputs": [
        {
          "internalType": "address",
          "name": "",
          "type": "address"
        }
      ],
      "name": "addressToHasRegisteredAttack",
      "outputs": [
        {
          "internalType": "bool",
          "name": "",
          "type": "bool"
        }
      ],
      "stateMutability": "view",
      "type": "function",
      "constant": true
    },
    {
      "inputs": [
        {
          "internalType": "address",
          "name": "",
          "type": "address"
        }
      ],
      "name": "addressToPlayer",
      "outputs": [
        {
          "internalType": "uint256",
          "name": "id",
          "type": "uint256"
        },
        {
          "internalType": "string",
          "name": "name",
          "type": "string"
        },
        {
          "internalType": "uint256",
          "name": "attackWinCount",
          "type": "uint256"
        },
        {
          "internalType": "uint256",
          "name": "attackLossCount",
          "type": "uint256"
        },
        {
          "internalType": "uint256",
          "name": "defendWinCount",
          "type": "uint256"
        },
        {
          "internalType": "uint256",
          "name": "defendLossCount",
          "type": "uint256"
        },
        {
          "internalType": "int256",
          "name": "points",
          "type": "int256"
        }
      ],
      "stateMutability": "view",
      "type": "function",
      "constant": true
    },
    {
      "inputs": [
        {
          "internalType": "uint256",
          "name": "",
          "type": "uint256"
        }
      ],
      "name": "players",
      "outputs": [
        {
          "internalType": "uint256",
          "name": "id",
          "type": "uint256"
        },
        {
          "internalType": "string",
          "name": "name",
          "type": "string"
        },
        {
          "internalType": "uint256",
          "name": "attackWinCount",
          "type": "uint256"
        },
        {
          "internalType": "uint256",
          "name": "attackLossCount",
          "type": "uint256"
        },
        {
          "internalType": "uint256",
          "name": "defendWinCount",
          "type": "uint256"
        },
        {
          "internalType": "uint256",
          "name": "defendLossCount",
          "type": "uint256"
        },
        {
          "internalType": "int256",
          "name": "points",
          "type": "int256"
        }
      ],
      "stateMutability": "view",
      "type": "function",
      "constant": true
    },
    {
      "inputs": [
        {
          "internalType": "uint256",
          "name": "",
          "type": "uint256"
        }
      ],
      "name": "priceRequests",
      "outputs": [
        {
          "internalType": "uint256",
          "name": "minuteTimestamp",
          "type": "uint256"
        },
        {
          "internalType": "uint256",
          "name": "price",
          "type": "uint256"
        },
        {
          "internalType": "int256",
          "name": "increasePercent",
          "type": "int256"
        }
      ],
      "stateMutability": "view",
      "type": "function",
      "constant": true
    },
    {
      "inputs": [
        {
          "internalType": "string",
          "name": "_name",
          "type": "string"
        }
      ],
      "name": "createPlayer",
      "outputs": [],
      "stateMutability": "nonpayable",
      "type": "function"
    },
    {
      "inputs": [],
      "name": "getPlayer",
      "outputs": [
        {
          "components": [
            {
              "internalType": "uint256",
              "name": "id",
              "type": "uint256"
            },
            {
              "internalType": "string",
              "name": "name",
              "type": "string"
            },
            {
              "internalType": "uint256",
              "name": "attackWinCount",
              "type": "uint256"
            },
            {
              "internalType": "uint256",
              "name": "attackLossCount",
              "type": "uint256"
            },
            {
              "internalType": "uint256",
              "name": "defendWinCount",
              "type": "uint256"
            },
            {
              "internalType": "uint256",
              "name": "defendLossCount",
              "type": "uint256"
            },
            {
              "internalType": "int256",
              "name": "points",
              "type": "int256"
            }
          ],
          "internalType": "struct PlayerContract.Player",
          "name": "",
          "type": "tuple"
        }
      ],
      "stateMutability": "view",
      "type": "function",
      "constant": true
    },
    {
      "inputs": [
        {
          "internalType": "address",
          "name": "_defender",
          "type": "address"
        },
        {
          "internalType": "uint256",
          "name": "_startingMinute",
          "type": "uint256"
        },
        {
          "internalType": "bool",
          "name": "_side",
          "type": "bool"
        }
      ],
      "name": "registerAttack",
      "outputs": [],
      "stateMutability": "nonpayable",
      "type": "function"
    }
  ],
  "bytecode": "0x608060405234801561001057600080fd5b50611a5e806100206000396000f3fe608060405234801561001057600080fd5b50600436106100885760003560e01c8063c487f8c11161005b578063c487f8c114610119578063e75f9b261461014d578063ee451c951461017f578063f71d96cb146101af57610088565b80631b8493f91461008d5780633308f42d146100a957806379a39ebd146100c7578063b586a740146100fd575b600080fd5b6100a760048036038101906100a29190610fec565b6101e5565b005b6100b1610695565b6040516100be919061119c565b60405180910390f35b6100e160048036038101906100dc91906111be565b61083f565b6040516100f49796959493929190611253565b60405180910390f35b6101176004803603810190610112919061132e565b610909565b005b610133600480360381019061012e919061137b565b610b99565b6040516101449594939291906113d9565b60405180910390f35b6101676004803603810190610162919061142c565b610c33565b60405161017693929190611459565b60405180910390f35b610199600480360381019061019491906111be565b610c6d565b6040516101a69190611490565b60405180910390f35b6101c960048036038101906101c4919061142c565b610c8d565b6040516101dc9796959493929190611253565b60405180910390f35b6000600260003373ffffffffffffffffffffffffffffffffffffffff1673ffffffffffffffffffffffffffffffffffffffff168152602001908152602001600020600001541161026a576040517f08c379a00000000000000000000000000000000000000000000000000000000081526004016102619061151d565b60405180910390fd5b6000600260008573ffffffffffffffffffffffffffffffffffffffff1673ffffffffffffffffffffffffffffffffffffffff16815260200190815260200160002060000154116102ef576040517f08c379a00000000000000000000000000000000000000000000000000000000081526004016102e690611589565b60405180910390fd5b60006102fa83610d67565b9050600061030742610d67565b905080821161034b576040517f08c379a00000000000000000000000000000000000000000000000000000000081526004016103429061161b565b60405180910390fd5b620151808161035a919061166a565b821061039b576040517f08c379a000000000000000000000000000000000000000000000000000000000815260040161039290611732565b60405180910390fd5b6103a3610d88565b156103e3576040517f08c379a00000000000000000000000000000000000000000000000000000000081526004016103da906117c4565b60405180910390fd5b6103eb610ddc565b600460003373ffffffffffffffffffffffffffffffffffffffff1673ffffffffffffffffffffffffffffffffffffffff1681526020019081526020016000206040518060a001604052808481526020018773ffffffffffffffffffffffffffffffffffffffff16815260200185151581526020016000151581526020016000151581525090806001815401808255809150506001900390600052602060002090600202016000909190919091506000820151816000015560208201518160010160006101000a81548173ffffffffffffffffffffffffffffffffffffffff021916908373ffffffffffffffffffffffffffffffffffffffff16021790555060408201518160010160146101000a81548160ff02191690831515021790555060608201518160010160156101000a81548160ff02191690831515021790555060808201518160010160166101000a81548160ff0219169083151502179055505050600160405180606001604052808481526020016000815260200160008152509080600181540180825580915050600190039060005260206000209060030201600090919091909150600082015181600001556020820151816001015560408201518160020155505060016040518060600160405280603c856105cd919061166a565b8152602001600081526020016000815250908060018154018082558091505060019003906000526020600020906003020160009091909190915060008201518160000155602082015181600101556040820151816002015550508473ffffffffffffffffffffffffffffffffffffffff163373ffffffffffffffffffffffffffffffffffffffff167fb005412a6654cb2de467a8d5793294d014b6315427fc13ba49998a46831abe6a84866040516106869291906117e4565b60405180910390a35050505050565b61069d610e36565b6000600260003373ffffffffffffffffffffffffffffffffffffffff1673ffffffffffffffffffffffffffffffffffffffff1681526020019081526020016000206000015411610722576040517f08c379a00000000000000000000000000000000000000000000000000000000081526004016107199061151d565b60405180910390fd5b600260003373ffffffffffffffffffffffffffffffffffffffff1673ffffffffffffffffffffffffffffffffffffffff1681526020019081526020016000206040518060e0016040529081600082015481526020016001820180546107869061183c565b80601f01602080910402602001604051908101604052809291908181526020018280546107b29061183c565b80156107ff5780601f106107d4576101008083540402835291602001916107ff565b820191906000526020600020905b8154815290600101906020018083116107e257829003601f168201915b5050505050815260200160028201548152602001600382015481526020016004820154815260200160058201548152602001600682015481525050905090565b60026020528060005260406000206000915090508060000154908060010180546108689061183c565b80601f01602080910402602001604051908101604052809291908181526020018280546108949061183c565b80156108e15780601f106108b6576101008083540402835291602001916108e1565b820191906000526020600020905b8154815290600101906020018083116108c457829003601f168201915b5050505050908060020154908060030154908060040154908060050154908060060154905087565b6000600260003373ffffffffffffffffffffffffffffffffffffffff1673ffffffffffffffffffffffffffffffffffffffff168152602001908152602001600020600001541461098e576040517f08c379a0000000000000000000000000000000000000000000000000000000008152600401610985906118e0565b60405180910390fd5b600060016000805490506109a2919061166a565b905060006040518060e0016040528060016000805490506109c3919061166a565b815260200185858080601f016020809104026020016040519081016040528093929190818152602001838380828437600081840152601f19601f82011690508083019250505050505050815260200160008152602001600081526020016000815260200160008152602001600081525090506000819080600181540180825580915050600190039060005260206000209060070201600090919091909150600082015181600001556020820151816001019080519060200190610a87929190610e73565b5060408201518160020155606082015181600301556080820151816004015560a0820151816005015560c08201518160060155505080600260003373ffffffffffffffffffffffffffffffffffffffff1673ffffffffffffffffffffffffffffffffffffffff168152602001908152602001600020600082015181600001556020820151816001019080519060200190610b22929190610e73565b5060408201518160020155606082015181600301556080820151816004015560a0820151816005015560c082015181600601559050507fc613856e36141bd14e64b3158acae3752d0dc905757b70c6f8178f7a0747d1e9828585604051610b8b9392919061193c565b60405180910390a150505050565b60046020528160005260406000208181548110610bb557600080fd5b9060005260206000209060020201600091509150508060000154908060010160009054906101000a900473ffffffffffffffffffffffffffffffffffffffff16908060010160149054906101000a900460ff16908060010160159054906101000a900460ff16908060010160169054906101000a900460ff16905085565b60018181548110610c4357600080fd5b90600052602060002090600302016000915090508060000154908060010154908060020154905083565b60036020528060005260406000206000915054906101000a900460ff1681565b60008181548110610c9d57600080fd5b9060005260206000209060070201600091509050806000015490806001018054610cc69061183c565b80601f0160208091040260200160405190810160405280929190818152602001828054610cf29061183c565b8015610d3f5780601f10610d1457610100808354040283529160200191610d3f565b820191906000526020600020905b815481529060010190602001808311610d2257829003601f168201915b5050505050908060020154908060030154908060040154908060050154908060060154905087565b6000603c8083610d77919061199d565b610d8191906119ce565b9050919050565b6000600360003373ffffffffffffffffffffffffffffffffffffffff1673ffffffffffffffffffffffffffffffffffffffff16815260200190815260200160002060009054906101000a900460ff16905090565b6001600360003373ffffffffffffffffffffffffffffffffffffffff1673ffffffffffffffffffffffffffffffffffffffff16815260200190815260200160002060006101000a81548160ff021916908315150217905550565b6040518060e00160405280600081526020016060815260200160008152602001600081526020016000815260200160008152602001600081525090565b828054610e7f9061183c565b90600052602060002090601f016020900481019282610ea15760008555610ee8565b82601f10610eba57805160ff1916838001178555610ee8565b82800160010185558215610ee8579182015b82811115610ee7578251825591602001919060010190610ecc565b5b509050610ef59190610ef9565b5090565b5b80821115610f12576000816000905550600101610efa565b5090565b600080fd5b600080fd5b600073ffffffffffffffffffffffffffffffffffffffff82169050919050565b6000610f4b82610f20565b9050919050565b610f5b81610f40565b8114610f6657600080fd5b50565b600081359050610f7881610f52565b92915050565b6000819050919050565b610f9181610f7e565b8114610f9c57600080fd5b50565b600081359050610fae81610f88565b92915050565b60008115159050919050565b610fc981610fb4565b8114610fd457600080fd5b50565b600081359050610fe681610fc0565b92915050565b60008060006060848603121561100557611004610f16565b5b600061101386828701610f69565b935050602061102486828701610f9f565b925050604061103586828701610fd7565b9150509250925092565b61104881610f7e565b82525050565b600081519050919050565b600082825260208201905092915050565b60005b8381101561108857808201518184015260208101905061106d565b83811115611097576000848401525b50505050565b6000601f19601f8301169050919050565b60006110b98261104e565b6110c38185611059565b93506110d381856020860161106a565b6110dc8161109d565b840191505092915050565b6000819050919050565b6110fa816110e7565b82525050565b600060e083016000830151611118600086018261103f565b506020830151848203602086015261113082826110ae565b9150506040830151611145604086018261103f565b506060830151611158606086018261103f565b50608083015161116b608086018261103f565b5060a083015161117e60a086018261103f565b5060c083015161119160c08601826110f1565b508091505092915050565b600060208201905081810360008301526111b68184611100565b905092915050565b6000602082840312156111d4576111d3610f16565b5b60006111e284828501610f69565b91505092915050565b6111f481610f7e565b82525050565b600082825260208201905092915050565b60006112168261104e565b61122081856111fa565b935061123081856020860161106a565b6112398161109d565b840191505092915050565b61124d816110e7565b82525050565b600060e082019050611268600083018a6111eb565b818103602083015261127a818961120b565b905061128960408301886111eb565b61129660608301876111eb565b6112a360808301866111eb565b6112b060a08301856111eb565b6112bd60c0830184611244565b98975050505050505050565b600080fd5b600080fd5b600080fd5b60008083601f8401126112ee576112ed6112c9565b5b8235905067ffffffffffffffff81111561130b5761130a6112ce565b5b602083019150836001820283011115611327576113266112d3565b5b9250929050565b6000806020838503121561134557611344610f16565b5b600083013567ffffffffffffffff81111561136357611362610f1b565b5b61136f858286016112d8565b92509250509250929050565b6000806040838503121561139257611391610f16565b5b60006113a085828601610f69565b92505060206113b185828601610f9f565b9150509250929050565b6113c481610f40565b82525050565b6113d381610fb4565b82525050565b600060a0820190506113ee60008301886111eb565b6113fb60208301876113bb565b61140860408301866113ca565b61141560608301856113ca565b61142260808301846113ca565b9695505050505050565b60006020828403121561144257611441610f16565b5b600061145084828501610f9f565b91505092915050565b600060608201905061146e60008301866111eb565b61147b60208301856111eb565b6114886040830184611244565b949350505050565b60006020820190506114a560008301846113ca565b92915050565b7f506c617965723a20706c61796572206e6f7420657869737420666f722061646460008201527f7265737300000000000000000000000000000000000000000000000000000000602082015250565b60006115076024836111fa565b9150611512826114ab565b604082019050919050565b60006020820190508181036000830152611536816114fa565b9050919050565b7f506c617965723a20646566656e646572206e6f74206578697374000000000000600082015250565b6000611573601a836111fa565b915061157e8261153d565b602082019050919050565b600060208201905081810360008301526115a281611566565b9050919050565b7f506c617965723a207374617274696e67206d696e757465206d7573742062652060008201527f61206675747572652074696d6500000000000000000000000000000000000000602082015250565b6000611605602d836111fa565b9150611610826115a9565b604082019050919050565b60006020820190508181036000830152611634816115f8565b9050919050565b7f4e487b7100000000000000000000000000000000000000000000000000000000600052601160045260246000fd5b600061167582610f7e565b915061168083610f7e565b9250827fffffffffffffffffffffffffffffffffffffffffffffffffffffffffffffffff038211156116b5576116b461163b565b5b828201905092915050565b7f506c617965723a207374617274696e67206d696e757465206d757374206e6f7460008201527f2062652066617220617761790000000000000000000000000000000000000000602082015250565b600061171c602c836111fa565b9150611727826116c0565b604082019050919050565b6000602082019050818103600083015261174b8161170f565b9050919050565b7f506c617965723a20616c7265616479207265676973746572656420666f72206160008201527f6e2061747461636b000000000000000000000000000000000000000000000000602082015250565b60006117ae6028836111fa565b91506117b982611752565b604082019050919050565b600060208201905081810360008301526117dd816117a1565b9050919050565b60006040820190506117f960008301856111eb565b61180660208301846113ca565b9392505050565b7f4e487b7100000000000000000000000000000000000000000000000000000000600052602260045260246000fd5b6000600282049050600182168061185457607f821691505b602082108114156118685761186761180d565b5b50919050565b7f506c617965723a20706c6179657220616c72656164792065786973747320666f60008201527f7220616464726573730000000000000000000000000000000000000000000000602082015250565b60006118ca6029836111fa565b91506118d58261186e565b604082019050919050565b600060208201905081810360008301526118f9816118bd565b9050919050565b82818337600083830152505050565b600061191b83856111fa565b9350611928838584611900565b6119318361109d565b840190509392505050565b600060408201905061195160008301866111eb565b818103602083015261196481848661190f565b9050949350505050565b7f4e487b7100000000000000000000000000000000000000000000000000000000600052601260045260246000fd5b60006119a882610f7e565b91506119b383610f7e565b9250826119c3576119c261196e565b5b828204905092915050565b60006119d982610f7e565b91506119e483610f7e565b9250817fffffffffffffffffffffffffffffffffffffffffffffffffffffffffffffffff0483118215151615611a1d57611a1c61163b565b5b82820290509291505056fea264697066735822122025f1a5eef3261484586c847736fdbdda98e55ceadad6b93bb40d50aca119c8e964736f6c634300080a0033",
  "immutableReferences": {},
  "source": "// SPDX-License-Identifier: MIT\npragma solidity >=0.8.10;\n\ncontract PlayerContract\n{\n\tstruct Player {\n\t\tuint id;\n        string name;\n        uint attackWinCount;\n        uint attackLossCount;\n        uint defendWinCount;\n        uint defendLossCount;\n        int points;\n    }\n\n    struct Attack {\n        uint startingMinute;\n        address defender;\n        bool side;\n        bool finished;\n        bool won;\n    }\n\n    struct PriceRequest {\n        uint minuteTimestamp;\n        uint price;\n        int increasePercent;\n    }\n\n    Player[] public players;\n    PriceRequest[] public priceRequests;\n    mapping (address => Player) public addressToPlayer;\n    mapping (address => bool) public addressToHasRegisteredAttack;\n    mapping (address => Attack[]) public addressToAttacks;\n\n\n\n\n    event NewPlayerCreated(uint id, string name);\n    event AttackRegistered(address indexed attacker, address indexed defender, uint startingMinute, bool side);\n\n\n\n\n    modifier senderMustExists ()\n    {\n        require(addressToPlayer[msg.sender].id > 0, \"Player: player not exist for address\");\n\n        _;\n    }\n\n\n\n\n    function createPlayer (string calldata _name) public\n    {\n    \trequire(addressToPlayer[msg.sender].id == 0, \"Player: player already exists for address\");\n\n        uint id = players.length + 1;\n    \tPlayer memory player = Player(players.length + 1, _name, 0, 0, 0, 0, 0);\n\n        players.push(player);\n        addressToPlayer[msg.sender] = player;\n\n        emit NewPlayerCreated(id, _name);\n    }\n\n    function getPlayer () public view senderMustExists returns (Player memory)\n    {\n        return addressToPlayer[msg.sender];\n    }\n\n    function registerAttack (address _defender, uint _startingMinute, bool _side) public senderMustExists\n    {\n        require(addressToPlayer[_defender].id > 0, \"Player: defender not exist\");\n\n        uint startingMinute = _getMinute(_startingMinute);\n        uint currentMinute = _getMinute(block.timestamp);\n\n        require(startingMinute > currentMinute, \"Player: starting minute must be a future time\");\n        require(startingMinute < currentMinute + 1 days, \"Player: starting minute must not be far away\");\n\n        require(!_hasRegisteredAttack(), \"Player: already registered for an attack\");\n\n        _registerAttack();\n\n        addressToAttacks[msg.sender].push(Attack(startingMinute, _defender, _side, false, false));\n\n        priceRequests.push(PriceRequest(startingMinute, 0, 0));\n        priceRequests.push(PriceRequest(startingMinute + 60, 0, 0));\n\n        emit AttackRegistered(msg.sender, _defender, startingMinute, _side);\n    }\n\n\n\n\n    function _getMinute (uint _datetime) internal pure returns (uint)\n    {\n        return (_datetime / 60) * 60;\n    }\n\n    function _hasRegisteredAttack () internal view returns (bool)\n    {\n        return addressToHasRegisteredAttack[msg.sender];\n    }\n\n    function _registerAttack () internal\n    {\n        addressToHasRegisteredAttack[msg.sender] = true;\n    }\n}\n",
  "sourcePath": "/home/orcun/battle/solidity/contracts/Player.sol",
  "compiler": {
    "name": "solc",
    "version": "0.8.10+commit.fc410830.Emscripten.clang"
  },
  "schemaVersion": "3.4.4",
  "updatedAt": "2022-09-05T18:09:58.997Z",
  "networkType": "ethereum",
  "devdoc": {
    "kind": "dev",
    "methods": {},
    "version": 1
  },
  "userdoc": {
    "kind": "user",
    "methods": {},
    "version": 1
  }
}