{
  "contractName": "PlayerContract",
  "abi": [
    {
      "anonymous": false,
      "inputs": [
        {
          "indexed": false,
          "internalType": "uint256",
          "name": "id",
          "type": "uint256"
        },
        {
          "indexed": false,
          "internalType": "string",
          "name": "name",
          "type": "string"
        }
      ],
      "name": "NewPlayerCreated",
      "type": "event"
    },
    {
      "inputs": [
        {
          "internalType": "address",
          "name": "",
          "type": "address"
        }
      ],
      "name": "addressToPlayer",
      "outputs": [
        {
          "internalType": "uint256",
          "name": "id",
          "type": "uint256"
        },
        {
          "internalType": "string",
          "name": "name",
          "type": "string"
        },
        {
          "internalType": "uint256",
          "name": "winCount",
          "type": "uint256"
        },
        {
          "internalType": "uint256",
          "name": "lossCount",
          "type": "uint256"
        }
      ],
      "stateMutability": "view",
      "type": "function",
      "constant": true
    },
    {
      "inputs": [
        {
          "internalType": "uint256",
          "name": "",
          "type": "uint256"
        }
      ],
      "name": "players",
      "outputs": [
        {
          "internalType": "uint256",
          "name": "id",
          "type": "uint256"
        },
        {
          "internalType": "string",
          "name": "name",
          "type": "string"
        },
        {
          "internalType": "uint256",
          "name": "winCount",
          "type": "uint256"
        },
        {
          "internalType": "uint256",
          "name": "lossCount",
          "type": "uint256"
        }
      ],
      "stateMutability": "view",
      "type": "function",
      "constant": true
    },
    {
      "inputs": [
        {
          "internalType": "string",
          "name": "_name",
          "type": "string"
        }
      ],
      "name": "createPlayer",
      "outputs": [],
      "stateMutability": "nonpayable",
      "type": "function"
    }
  ],
  "bytecode": "0x608060405234801561001057600080fd5b50610a35806100206000396000f3fe608060405234801561001057600080fd5b50600436106100415760003560e01c806379a39ebd14610046578063b586a74014610079578063f71d96cb14610095575b600080fd5b610060600480360381019061005b9190610555565b6100c8565b6040516100709493929190610634565b60405180910390f35b610093600480360381019061008e91906107b5565b610180565b005b6100af60048036038101906100aa919061082a565b610378565b6040516100bf9493929190610634565b60405180910390f35b60016020528060005260406000206000915090508060000154908060010180546100f190610886565b80601f016020809104026020016040519081016040528092919081815260200182805461011d90610886565b801561016a5780601f1061013f5761010080835404028352916020019161016a565b820191906000526020600020905b81548152906001019060200180831161014d57829003601f168201915b5050505050908060020154908060030154905084565b6000600160003373ffffffffffffffffffffffffffffffffffffffff1673ffffffffffffffffffffffffffffffffffffffff1681526020019081526020016000206000015414610205576040517f08c379a00000000000000000000000000000000000000000000000000000000081526004016101fc9061092a565b60405180910390fd5b600060016000805490506102199190610979565b905060006040518060800160405280600160008054905061023a9190610979565b8152602001848152602001600081526020016000815250905060008190806001815401808255809150506001900390600052602060002090600402016000909190919091506000820151816000015560208201518160010190805190602001906102a5929190610440565b506040820151816002015560608201518160030155505080600160003373ffffffffffffffffffffffffffffffffffffffff1673ffffffffffffffffffffffffffffffffffffffff168152602001908152602001600020600082015181600001556020820151816001019080519060200190610322929190610440565b5060408201518160020155606082015181600301559050507fc613856e36141bd14e64b3158acae3752d0dc905757b70c6f8178f7a0747d1e9828460405161036b9291906109cf565b60405180910390a1505050565b6000818154811061038857600080fd5b90600052602060002090600402016000915090508060000154908060010180546103b190610886565b80601f01602080910402602001604051908101604052809291908181526020018280546103dd90610886565b801561042a5780601f106103ff5761010080835404028352916020019161042a565b820191906000526020600020905b81548152906001019060200180831161040d57829003601f168201915b5050505050908060020154908060030154905084565b82805461044c90610886565b90600052602060002090601f01602090048101928261046e57600085556104b5565b82601f1061048757805160ff19168380011785556104b5565b828001600101855582156104b5579182015b828111156104b4578251825591602001919060010190610499565b5b5090506104c291906104c6565b5090565b5b808211156104df5760008160009055506001016104c7565b5090565b6000604051905090565b600080fd5b600080fd5b600073ffffffffffffffffffffffffffffffffffffffff82169050919050565b6000610522826104f7565b9050919050565b61053281610517565b811461053d57600080fd5b50565b60008135905061054f81610529565b92915050565b60006020828403121561056b5761056a6104ed565b5b600061057984828501610540565b91505092915050565b6000819050919050565b61059581610582565b82525050565b600081519050919050565b600082825260208201905092915050565b60005b838110156105d55780820151818401526020810190506105ba565b838111156105e4576000848401525b50505050565b6000601f19601f8301169050919050565b60006106068261059b565b61061081856105a6565b93506106208185602086016105b7565b610629816105ea565b840191505092915050565b6000608082019050610649600083018761058c565b818103602083015261065b81866105fb565b905061066a604083018561058c565b610677606083018461058c565b95945050505050565b600080fd5b600080fd5b7f4e487b7100000000000000000000000000000000000000000000000000000000600052604160045260246000fd5b6106c2826105ea565b810181811067ffffffffffffffff821117156106e1576106e061068a565b5b80604052505050565b60006106f46104e3565b905061070082826106b9565b919050565b600067ffffffffffffffff8211156107205761071f61068a565b5b610729826105ea565b9050602081019050919050565b82818337600083830152505050565b600061075861075384610705565b6106ea565b90508281526020810184848401111561077457610773610685565b5b61077f848285610736565b509392505050565b600082601f83011261079c5761079b610680565b5b81356107ac848260208601610745565b91505092915050565b6000602082840312156107cb576107ca6104ed565b5b600082013567ffffffffffffffff8111156107e9576107e86104f2565b5b6107f584828501610787565b91505092915050565b61080781610582565b811461081257600080fd5b50565b600081359050610824816107fe565b92915050565b6000602082840312156108405761083f6104ed565b5b600061084e84828501610815565b91505092915050565b7f4e487b7100000000000000000000000000000000000000000000000000000000600052602260045260246000fd5b6000600282049050600182168061089e57607f821691505b602082108114156108b2576108b1610857565b5b50919050565b7f506c617965723a20706c6179657220616c72656164792065786973747320666f60008201527f7220616464726573730000000000000000000000000000000000000000000000602082015250565b60006109146029836105a6565b915061091f826108b8565b604082019050919050565b6000602082019050818103600083015261094381610907565b9050919050565b7f4e487b7100000000000000000000000000000000000000000000000000000000600052601160045260246000fd5b600061098482610582565b915061098f83610582565b9250827fffffffffffffffffffffffffffffffffffffffffffffffffffffffffffffffff038211156109c4576109c361094a565b5b828201905092915050565b60006040820190506109e4600083018561058c565b81810360208301526109f681846105fb565b9050939250505056fea2646970667358221220ea1c6e160d5fd1c5fd12b40980af25ee18e8cc57d3619ebaf7a797a59e33856c64736f6c634300080a0033",
  "immutableReferences": {},
  "source": "// SPDX-License-Identifier: MIT\npragma solidity >=0.8.10;\n\ncontract PlayerContract\n{\n\tstruct Player {\n\t\tuint id;\n        string name;\n        uint winCount;\n        uint lossCount;\n    }\n\n    Player[] public players;\n    mapping (address => Player) public addressToPlayer;\n\n\n\n\n    event NewPlayerCreated(uint id, string name);\n\n\n\n\n    function createPlayer (string memory _name) public\n    {\n    \trequire(addressToPlayer[msg.sender].id == 0, \"Player: player already exists for address\");\n\n        uint id = players.length + 1;\n    \tPlayer memory player = Player(players.length + 1, _name, 0, 0);\n\n        players.push(player);\n        addressToPlayer[msg.sender] = player;\n\n        emit NewPlayerCreated(id, _name);\n    }\n\n    // function getPlayer () public returns (Player)\n    // {\n\n    // }\n}\n",
  "sourcePath": "/home/orcun/battle/solidity/contracts/Player.sol",
  "compiler": {
    "name": "solc",
    "version": "0.8.10+commit.fc410830.Emscripten.clang"
  },
  "schemaVersion": "3.4.4",
  "updatedAt": "2022-08-09T18:05:14.499Z",
  "networkType": "ethereum",
  "devdoc": {
    "kind": "dev",
    "methods": {},
    "version": 1
  },
  "userdoc": {
    "kind": "user",
    "methods": {},
    "version": 1
  }
}