{
  "contractName": "PlayerContract",
  "abi": [
    {
      "anonymous": false,
      "inputs": [
        {
          "indexed": true,
          "internalType": "address",
          "name": "attacker",
          "type": "address"
        },
        {
          "indexed": true,
          "internalType": "address",
          "name": "defender",
          "type": "address"
        },
        {
          "indexed": false,
          "internalType": "uint256",
          "name": "startingMinute",
          "type": "uint256"
        },
        {
          "indexed": false,
          "internalType": "bool",
          "name": "side",
          "type": "bool"
        }
      ],
      "name": "AttackRegistered",
      "type": "event"
    },
    {
      "anonymous": false,
      "inputs": [
        {
          "indexed": true,
          "internalType": "address",
          "name": "attacker",
          "type": "address"
        },
        {
          "indexed": true,
          "internalType": "address",
          "name": "defender",
          "type": "address"
        },
        {
          "indexed": false,
          "internalType": "uint256",
          "name": "startingMinute",
          "type": "uint256"
        },
        {
          "indexed": false,
          "internalType": "bool",
          "name": "won",
          "type": "bool"
        }
      ],
      "name": "AttackResulted",
      "type": "event"
    },
    {
      "anonymous": false,
      "inputs": [
        {
          "indexed": false,
          "internalType": "uint256",
          "name": "id",
          "type": "uint256"
        },
        {
          "indexed": false,
          "internalType": "string",
          "name": "name",
          "type": "string"
        }
      ],
      "name": "NewPlayerCreated",
      "type": "event"
    },
    {
      "anonymous": false,
      "inputs": [
        {
          "indexed": true,
          "internalType": "address",
          "name": "previousOwner",
          "type": "address"
        },
        {
          "indexed": true,
          "internalType": "address",
          "name": "newOwner",
          "type": "address"
        }
      ],
      "name": "OwnershipTransferred",
      "type": "event"
    },
    {
      "anonymous": false,
      "inputs": [
        {
          "indexed": false,
          "internalType": "uint256",
          "name": "startingMinute",
          "type": "uint256"
        },
        {
          "indexed": false,
          "internalType": "uint256",
          "name": "price",
          "type": "uint256"
        }
      ],
      "name": "PriceRequestSet",
      "type": "event"
    },
    {
      "anonymous": false,
      "inputs": [
        {
          "indexed": false,
          "internalType": "uint256",
          "name": "startingMinute",
          "type": "uint256"
        }
      ],
      "name": "PriceRequested",
      "type": "event"
    },
    {
      "inputs": [
        {
          "internalType": "address",
          "name": "",
          "type": "address"
        },
        {
          "internalType": "uint256",
          "name": "",
          "type": "uint256"
        }
      ],
      "name": "addressToMinuteTimestampToAttack",
      "outputs": [
        {
          "internalType": "address",
          "name": "defender",
          "type": "address"
        },
        {
          "internalType": "bool",
          "name": "side",
          "type": "bool"
        },
        {
          "internalType": "bool",
          "name": "finished",
          "type": "bool"
        },
        {
          "internalType": "bool",
          "name": "won",
          "type": "bool"
        }
      ],
      "stateMutability": "view",
      "type": "function",
      "constant": true
    },
    {
      "inputs": [
        {
          "internalType": "address",
          "name": "",
          "type": "address"
        }
      ],
      "name": "addressToPlayer",
      "outputs": [
        {
          "internalType": "uint256",
          "name": "id",
          "type": "uint256"
        },
        {
          "internalType": "string",
          "name": "name",
          "type": "string"
        },
        {
          "internalType": "address",
          "name": "owner",
          "type": "address"
        },
        {
          "internalType": "uint256",
          "name": "attackWinCount",
          "type": "uint256"
        },
        {
          "internalType": "uint256",
          "name": "attackLossCount",
          "type": "uint256"
        },
        {
          "internalType": "uint256",
          "name": "defendWinCount",
          "type": "uint256"
        },
        {
          "internalType": "uint256",
          "name": "defendLossCount",
          "type": "uint256"
        },
        {
          "internalType": "int256",
          "name": "points",
          "type": "int256"
        }
      ],
      "stateMutability": "view",
      "type": "function",
      "constant": true
    },
    {
      "inputs": [],
      "name": "getPendingRequests",
      "outputs": [
        {
          "components": [
            {
              "internalType": "uint256",
              "name": "minuteTimestamp",
              "type": "uint256"
            },
            {
              "internalType": "uint256",
              "name": "price",
              "type": "uint256"
            },
            {
              "internalType": "int256",
              "name": "increasePercent",
              "type": "int256"
            }
          ],
          "internalType": "struct PriceRequestContract.PriceRequest[]",
          "name": "",
          "type": "tuple[]"
        }
      ],
      "stateMutability": "view",
      "type": "function",
      "constant": true
    },
    {
      "inputs": [
        {
          "internalType": "uint256",
          "name": "_minuteTimestamp",
          "type": "uint256"
        }
      ],
      "name": "getPrice",
      "outputs": [
        {
          "internalType": "uint256",
          "name": "",
          "type": "uint256"
        }
      ],
      "stateMutability": "view",
      "type": "function",
      "constant": true
    },
    {
      "inputs": [
        {
          "internalType": "uint256",
          "name": "",
          "type": "uint256"
        }
      ],
      "name": "minuteTimestampToPriceRequest",
      "outputs": [
        {
          "internalType": "uint256",
          "name": "minuteTimestamp",
          "type": "uint256"
        },
        {
          "internalType": "uint256",
          "name": "price",
          "type": "uint256"
        },
        {
          "internalType": "int256",
          "name": "increasePercent",
          "type": "int256"
        }
      ],
      "stateMutability": "view",
      "type": "function",
      "constant": true
    },
    {
      "inputs": [],
      "name": "oracle",
      "outputs": [
        {
          "internalType": "address",
          "name": "",
          "type": "address"
        }
      ],
      "stateMutability": "view",
      "type": "function",
      "constant": true
    },
    {
      "inputs": [],
      "name": "owner",
      "outputs": [
        {
          "internalType": "address",
          "name": "",
          "type": "address"
        }
      ],
      "stateMutability": "view",
      "type": "function",
      "constant": true
    },
    {
      "inputs": [
        {
          "internalType": "uint256",
          "name": "",
          "type": "uint256"
        }
      ],
      "name": "pendingRequests",
      "outputs": [
        {
          "internalType": "uint256",
          "name": "minuteTimestamp",
          "type": "uint256"
        },
        {
          "internalType": "uint256",
          "name": "price",
          "type": "uint256"
        },
        {
          "internalType": "int256",
          "name": "increasePercent",
          "type": "int256"
        }
      ],
      "stateMutability": "view",
      "type": "function",
      "constant": true
    },
    {
      "inputs": [
        {
          "internalType": "uint256",
          "name": "",
          "type": "uint256"
        }
      ],
      "name": "players",
      "outputs": [
        {
          "internalType": "uint256",
          "name": "id",
          "type": "uint256"
        },
        {
          "internalType": "string",
          "name": "name",
          "type": "string"
        },
        {
          "internalType": "address",
          "name": "owner",
          "type": "address"
        },
        {
          "internalType": "uint256",
          "name": "attackWinCount",
          "type": "uint256"
        },
        {
          "internalType": "uint256",
          "name": "attackLossCount",
          "type": "uint256"
        },
        {
          "internalType": "uint256",
          "name": "defendWinCount",
          "type": "uint256"
        },
        {
          "internalType": "uint256",
          "name": "defendLossCount",
          "type": "uint256"
        },
        {
          "internalType": "int256",
          "name": "points",
          "type": "int256"
        }
      ],
      "stateMutability": "view",
      "type": "function",
      "constant": true
    },
    {
      "inputs": [],
      "name": "renounceOwnership",
      "outputs": [],
      "stateMutability": "nonpayable",
      "type": "function"
    },
    {
      "inputs": [
        {
          "internalType": "address",
          "name": "_oracle",
          "type": "address"
        }
      ],
      "name": "setOracle",
      "outputs": [],
      "stateMutability": "nonpayable",
      "type": "function"
    },
    {
      "inputs": [
        {
          "internalType": "uint256",
          "name": "_minuteTimestamp",
          "type": "uint256"
        },
        {
          "internalType": "uint256",
          "name": "_price",
          "type": "uint256"
        }
      ],
      "name": "setPriceRequest",
      "outputs": [],
      "stateMutability": "nonpayable",
      "type": "function"
    },
    {
      "inputs": [
        {
          "internalType": "address",
          "name": "newOwner",
          "type": "address"
        }
      ],
      "name": "transferOwnership",
      "outputs": [],
      "stateMutability": "nonpayable",
      "type": "function"
    },
    {
      "inputs": [
        {
          "internalType": "string",
          "name": "_name",
          "type": "string"
        }
      ],
      "name": "createPlayer",
      "outputs": [],
      "stateMutability": "nonpayable",
      "type": "function"
    },
    {
      "inputs": [],
      "name": "getPlayer",
      "outputs": [
        {
          "components": [
            {
              "internalType": "uint256",
              "name": "id",
              "type": "uint256"
            },
            {
              "internalType": "string",
              "name": "name",
              "type": "string"
            },
            {
              "internalType": "address",
              "name": "owner",
              "type": "address"
            },
            {
              "internalType": "uint256",
              "name": "attackWinCount",
              "type": "uint256"
            },
            {
              "internalType": "uint256",
              "name": "attackLossCount",
              "type": "uint256"
            },
            {
              "internalType": "uint256",
              "name": "defendWinCount",
              "type": "uint256"
            },
            {
              "internalType": "uint256",
              "name": "defendLossCount",
              "type": "uint256"
            },
            {
              "internalType": "int256",
              "name": "points",
              "type": "int256"
            }
          ],
          "internalType": "struct PlayerContract.Player",
          "name": "",
          "type": "tuple"
        }
      ],
      "stateMutability": "view",
      "type": "function",
      "constant": true
    },
    {
      "inputs": [
        {
          "internalType": "address",
          "name": "_owner",
          "type": "address"
        }
      ],
      "name": "getAnyPlayer",
      "outputs": [
        {
          "components": [
            {
              "internalType": "uint256",
              "name": "id",
              "type": "uint256"
            },
            {
              "internalType": "string",
              "name": "name",
              "type": "string"
            },
            {
              "internalType": "address",
              "name": "owner",
              "type": "address"
            },
            {
              "internalType": "uint256",
              "name": "attackWinCount",
              "type": "uint256"
            },
            {
              "internalType": "uint256",
              "name": "attackLossCount",
              "type": "uint256"
            },
            {
              "internalType": "uint256",
              "name": "defendWinCount",
              "type": "uint256"
            },
            {
              "internalType": "uint256",
              "name": "defendLossCount",
              "type": "uint256"
            },
            {
              "internalType": "int256",
              "name": "points",
              "type": "int256"
            }
          ],
          "internalType": "struct PlayerContract.Player",
          "name": "",
          "type": "tuple"
        }
      ],
      "stateMutability": "view",
      "type": "function",
      "constant": true
    },
    {
      "inputs": [
        {
          "internalType": "uint256",
          "name": "_startId",
          "type": "uint256"
        },
        {
          "internalType": "uint256",
          "name": "_endId",
          "type": "uint256"
        }
      ],
      "name": "getPlayers",
      "outputs": [
        {
          "components": [
            {
              "internalType": "uint256",
              "name": "id",
              "type": "uint256"
            },
            {
              "internalType": "string",
              "name": "name",
              "type": "string"
            },
            {
              "internalType": "address",
              "name": "owner",
              "type": "address"
            },
            {
              "internalType": "uint256",
              "name": "attackWinCount",
              "type": "uint256"
            },
            {
              "internalType": "uint256",
              "name": "attackLossCount",
              "type": "uint256"
            },
            {
              "internalType": "uint256",
              "name": "defendWinCount",
              "type": "uint256"
            },
            {
              "internalType": "uint256",
              "name": "defendLossCount",
              "type": "uint256"
            },
            {
              "internalType": "int256",
              "name": "points",
              "type": "int256"
            }
          ],
          "internalType": "struct PlayerContract.Player[]",
          "name": "",
          "type": "tuple[]"
        }
      ],
      "stateMutability": "view",
      "type": "function",
      "constant": true
    },
    {
      "inputs": [
        {
          "internalType": "address",
          "name": "_defender",
          "type": "address"
        },
        {
          "internalType": "uint256",
          "name": "_startingMinute",
          "type": "uint256"
        },
        {
          "internalType": "bool",
          "name": "_side",
          "type": "bool"
        }
      ],
      "name": "registerAttack",
      "outputs": [],
      "stateMutability": "nonpayable",
      "type": "function"
    },
    {
      "inputs": [
        {
          "internalType": "address",
          "name": "_attacker",
          "type": "address"
        },
        {
          "internalType": "uint256",
          "name": "_startingMinute",
          "type": "uint256"
        }
      ],
      "name": "finishAttack",
      "outputs": [],
      "stateMutability": "nonpayable",
      "type": "function"
    },
    {
      "inputs": [
        {
          "internalType": "address",
          "name": "_attacker",
          "type": "address"
        },
        {
          "internalType": "uint256",
          "name": "_startingMinute",
          "type": "uint256"
        }
      ],
      "name": "hasRegisteredAttack",
      "outputs": [
        {
          "internalType": "bool",
          "name": "",
          "type": "bool"
        }
      ],
      "stateMutability": "view",
      "type": "function",
      "constant": true
    }
  ],
  "bytecode": "0x60806040523480156200001157600080fd5b5062000032620000266200007960201b60201c565b6200008160201b60201c565b33600160006101000a81548173ffffffffffffffffffffffffffffffffffffffff021916908373ffffffffffffffffffffffffffffffffffffffff16021790555062000145565b600033905090565b60008060009054906101000a900473ffffffffffffffffffffffffffffffffffffffff169050816000806101000a81548173ffffffffffffffffffffffffffffffffffffffff021916908373ffffffffffffffffffffffffffffffffffffffff1602179055508173ffffffffffffffffffffffffffffffffffffffff168173ffffffffffffffffffffffffffffffffffffffff167f8be0079c531659141344cd1fd0a4f28419497f9722a3daafe3b4186f6b6457e060405160405180910390a35050565b6142de80620001556000396000f3fe608060405234801561001057600080fd5b506004361061012c5760003560e01c806380a1f712116100ad578063d695835411610071578063d695835414610365578063e757223014610381578063f2fde38b146103b1578063f71d96cb146103cd578063f8eec109146104045761012c565b806380a1f712146102ab5780638d9167ba146102c95780638da5cb5b146102fb578063a846cabf14610319578063b586a740146103495761012c565b80636beb9bcb116100f45780636beb9bcb146101fd578063715018a61461023057806379a39ebd1461023a5780637adbf973146102715780637dc0d1d01461028d5761012c565b80630d2dce22146101315780631441cc98146101615780631b8493f9146101915780633308f42d146101ad5780633c652a9a146101cb575b600080fd5b61014b600480360381019061014691906128d4565b610420565b6040516101589190612b88565b60405180910390f35b61017b60048036038101906101769190612bd6565b6106aa565b6040516101889190612cb3565b60405180910390f35b6101ab60048036038101906101a69190612d0d565b6108ad565b005b6101b5610d18565b6040516101c29190612cb3565b60405180910390f35b6101e560048036038101906101e09190612d60565b610f19565b6040516101f493929190612dab565b60405180910390f35b61021760048036038101906102129190612de2565b610f53565b6040516102279493929190612e40565b60405180910390f35b610238610fd7565b005b610254600480360381019061024f9190612bd6565b610feb565b604051610268989796959493929190612ecf565b60405180910390f35b61028b60048036038101906102869190612bd6565b6110db565b005b610295611127565b6040516102a29190612f54565b60405180910390f35b6102b361114d565b6040516102c09190613060565b60405180910390f35b6102e360048036038101906102de9190612d60565b6111ca565b6040516102f293929190612dab565b60405180910390f35b6103036111f4565b6040516103109190612f54565b60405180910390f35b610333600480360381019061032e9190612de2565b61121d565b6040516103409190613082565b60405180910390f35b610363600480360381019061035e91906131d2565b6112ca565b005b61037f600480360381019061037a9190612de2565b61164b565b005b61039b60048036038101906103969190612d60565b612002565b6040516103a8919061321b565b60405180910390f35b6103cb60048036038101906103c69190612bd6565b61207b565b005b6103e760048036038101906103e29190612d60565b6120ff565b6040516103fb989796959493929190612ecf565b60405180910390f35b61041e600480360381019061041991906128d4565b6121ff565b005b6060600083141561043057600192505b60008214156104425760048054905091505b81831115610485576040517f08c379a000000000000000000000000000000000000000000000000000000000815260040161047c906132a8565b60405180910390fd5b60006001848461049591906132f7565b61049f919061332b565b67ffffffffffffffff8111156104b8576104b76130a7565b5b6040519080825280602002602001820160405280156104f157816020015b6104de61278c565b8152602001906001900390816104d65790505b50905060008060018661050491906132f7565b90505b8481101561069e576004818154811061052357610522613381565b5b90600052602060002090600802016040518061010001604052908160008201548152602001600182018054610557906133df565b80601f0160208091040260200160405190810160405280929190818152602001828054610583906133df565b80156105d05780601f106105a5576101008083540402835291602001916105d0565b820191906000526020600020905b8154815290600101906020018083116105b357829003601f168201915b505050505081526020016002820160009054906101000a900473ffffffffffffffffffffffffffffffffffffffff1673ffffffffffffffffffffffffffffffffffffffff1673ffffffffffffffffffffffffffffffffffffffff1681526020016003820154815260200160048201548152602001600582015481526020016006820154815260200160078201548152505083838061066d90613411565b9450815181106106805761067f613381565b5b6020026020010181905250808061069690613411565b915050610507565b50819250505092915050565b6106b261278c565b6000600560008473ffffffffffffffffffffffffffffffffffffffff1673ffffffffffffffffffffffffffffffffffffffff1681526020019081526020016000206000015411610737576040517f08c379a000000000000000000000000000000000000000000000000000000000815260040161072e906134a6565b60405180910390fd5b600560008373ffffffffffffffffffffffffffffffffffffffff1673ffffffffffffffffffffffffffffffffffffffff168152602001908152602001600020604051806101000160405290816000820154815260200160018201805461079c906133df565b80601f01602080910402602001604051908101604052809291908181526020018280546107c8906133df565b80156108155780601f106107ea57610100808354040283529160200191610815565b820191906000526020600020905b8154815290600101906020018083116107f857829003601f168201915b505050505081526020016002820160009054906101000a900473ffffffffffffffffffffffffffffffffffffffff1673ffffffffffffffffffffffffffffffffffffffff1673ffffffffffffffffffffffffffffffffffffffff168152602001600382015481526020016004820154815260200160058201548152602001600682015481526020016007820154815250509050919050565b6000600560003373ffffffffffffffffffffffffffffffffffffffff1673ffffffffffffffffffffffffffffffffffffffff1681526020019081526020016000206000015411610932576040517f08c379a000000000000000000000000000000000000000000000000000000000815260040161092990613538565b60405180910390fd5b6000600560008573ffffffffffffffffffffffffffffffffffffffff1673ffffffffffffffffffffffffffffffffffffffff16815260200190815260200160002060000154116109b7576040517f08c379a00000000000000000000000000000000000000000000000000000000081526004016109ae906135ca565b60405180910390fd5b3373ffffffffffffffffffffffffffffffffffffffff168373ffffffffffffffffffffffffffffffffffffffff161415610a26576040517f08c379a0000000000000000000000000000000000000000000000000000000008152600401610a1d9061365c565b60405180910390fd5b6000610a31836123f1565b90506000610a3e426123f1565b9050808211610a82576040517f08c379a0000000000000000000000000000000000000000000000000000000008152600401610a79906136ee565b60405180910390fd5b610e1081610a90919061332b565b8210610ad1576040517f08c379a0000000000000000000000000000000000000000000000000000000008152600401610ac890613780565b60405180910390fd5b610adb338361121d565b15610b1b576040517f08c379a0000000000000000000000000000000000000000000000000000000008152600401610b1290613812565b60405180910390fd5b60405180608001604052808673ffffffffffffffffffffffffffffffffffffffff168152602001841515815260200160001515815260200160001515815250600660003373ffffffffffffffffffffffffffffffffffffffff1673ffffffffffffffffffffffffffffffffffffffff168152602001908152602001600020600084815260200190815260200160002060008201518160000160006101000a81548173ffffffffffffffffffffffffffffffffffffffff021916908373ffffffffffffffffffffffffffffffffffffffff16021790555060208201518160000160146101000a81548160ff02191690831515021790555060408201518160000160156101000a81548160ff02191690831515021790555060608201518160000160166101000a81548160ff021916908315150217905550905050610c796040518060600160405280848152602001600081526020016000815250612412565b610caa6040518060600160405280603c85610c94919061332b565b8152602001600081526020016000815250612412565b8473ffffffffffffffffffffffffffffffffffffffff163373ffffffffffffffffffffffffffffffffffffffff167fb005412a6654cb2de467a8d5793294d014b6315427fc13ba49998a46831abe6a8486604051610d09929190613832565b60405180910390a35050505050565b610d2061278c565b6000600560003373ffffffffffffffffffffffffffffffffffffffff1673ffffffffffffffffffffffffffffffffffffffff1681526020019081526020016000206000015411610da5576040517f08c379a0000000000000000000000000000000000000000000000000000000008152600401610d9c90613538565b60405180910390fd5b600560003373ffffffffffffffffffffffffffffffffffffffff1673ffffffffffffffffffffffffffffffffffffffff1681526020019081526020016000206040518061010001604052908160008201548152602001600182018054610e0a906133df565b80601f0160208091040260200160405190810160405280929190818152602001828054610e36906133df565b8015610e835780601f10610e5857610100808354040283529160200191610e83565b820191906000526020600020905b815481529060010190602001808311610e6657829003601f168201915b505050505081526020016002820160009054906101000a900473ffffffffffffffffffffffffffffffffffffffff1673ffffffffffffffffffffffffffffffffffffffff1673ffffffffffffffffffffffffffffffffffffffff16815260200160038201548152602001600482015481526020016005820154815260200160068201548152602001600782015481525050905090565b60028181548110610f2957600080fd5b90600052602060002090600302016000915090508060000154908060010154908060020154905083565b6006602052816000526040600020602052806000526040600020600091509150508060000160009054906101000a900473ffffffffffffffffffffffffffffffffffffffff16908060000160149054906101000a900460ff16908060000160159054906101000a900460ff16908060000160169054906101000a900460ff16905084565b610fdf6124b4565b610fe96000612532565b565b6005602052806000526040600020600091509050806000015490806001018054611014906133df565b80601f0160208091040260200160405190810160405280929190818152602001828054611040906133df565b801561108d5780601f106110625761010080835404028352916020019161108d565b820191906000526020600020905b81548152906001019060200180831161107057829003601f168201915b5050505050908060020160009054906101000a900473ffffffffffffffffffffffffffffffffffffffff16908060030154908060040154908060050154908060060154908060070154905088565b6110e36124b4565b80600160006101000a81548173ffffffffffffffffffffffffffffffffffffffff021916908373ffffffffffffffffffffffffffffffffffffffff16021790555050565b600160009054906101000a900473ffffffffffffffffffffffffffffffffffffffff1681565b60606002805480602002602001604051908101604052809291908181526020016000905b828210156111c15783829060005260206000209060030201604051806060016040529081600082015481526020016001820154815260200160028201548152505081526020019060010190611171565b50505050905090565b60036020528060005260406000206000915090508060000154908060010154908060020154905083565b60008060009054906101000a900473ffffffffffffffffffffffffffffffffffffffff16905090565b60008073ffffffffffffffffffffffffffffffffffffffff16600660008573ffffffffffffffffffffffffffffffffffffffff1673ffffffffffffffffffffffffffffffffffffffff168152602001908152602001600020600084815260200190815260200160002060000160009054906101000a900473ffffffffffffffffffffffffffffffffffffffff1673ffffffffffffffffffffffffffffffffffffffff161415905092915050565b6000600560003373ffffffffffffffffffffffffffffffffffffffff1673ffffffffffffffffffffffffffffffffffffffff168152602001908152602001600020600001541461134f576040517f08c379a0000000000000000000000000000000000000000000000000000000008152600401611346906138cd565b60405180910390fd5b60405160200161135e90613913565b60405160208183030381529060405280519060200120816040516020016113859190613933565b6040516020818303038152906040528051906020012014156113dc576040517f08c379a00000000000000000000000000000000000000000000000000000000081526004016113d3906139a1565b60405180910390fd5b600060016004805490506113f0919061332b565b905060006040518061010001604052806001600480549050611412919061332b565b81526020018481526020013373ffffffffffffffffffffffffffffffffffffffff168152602001600081526020016000815260200160008152602001600081526020016000815250905060048190806001815401808255809150506001900390600052602060002090600802016000909190919091506000820151816000015560208201518160010190805190602001906114ae9291906127e7565b5060408201518160020160006101000a81548173ffffffffffffffffffffffffffffffffffffffff021916908373ffffffffffffffffffffffffffffffffffffffff160217905550606082015181600301556080820151816004015560a0820151816005015560c0820151816006015560e08201518160070155505080600560003373ffffffffffffffffffffffffffffffffffffffff1673ffffffffffffffffffffffffffffffffffffffff1681526020019081526020016000206000820151816000015560208201518160010190805190602001906115909291906127e7565b5060408201518160020160006101000a81548173ffffffffffffffffffffffffffffffffffffffff021916908373ffffffffffffffffffffffffffffffffffffffff160217905550606082015181600301556080820151816004015560a0820151816005015560c0820151816006015560e082015181600701559050507fc613856e36141bd14e64b3158acae3752d0dc905757b70c6f8178f7a0747d1e9828460405161163e9291906139c1565b60405180910390a1505050565b611655828261121d565b611694576040517f08c379a000000000000000000000000000000000000000000000000000000000815260040161168b90613a63565b60405180910390fd5b6000600360008381526020019081526020016000206000015414156116ee576040517f08c379a00000000000000000000000000000000000000000000000000000000081526004016116e590613b1b565b60405180910390fd5b600060036000603c84611701919061332b565b815260200190815260200160002060405180606001604052908160008201548152602001600182015481526020016002820154815250509050600081600001511415611782576040517f08c379a000000000000000000000000000000000000000000000000000000000815260040161177990613bad565b60405180910390fd5b6000600660008573ffffffffffffffffffffffffffffffffffffffff1673ffffffffffffffffffffffffffffffffffffffff16815260200190815260200160002060008481526020019081526020016000206040518060800160405290816000820160009054906101000a900473ffffffffffffffffffffffffffffffffffffffff1673ffffffffffffffffffffffffffffffffffffffff1673ffffffffffffffffffffffffffffffffffffffff1681526020016000820160149054906101000a900460ff161515151581526020016000820160159054906101000a900460ff161515151581526020016000820160169054906101000a900460ff161515151581525050905060018160400190151590811515815250506000826040015113156118cd5780602001516118b65760006118b9565b60015b816060019015159081151581525050611914565b6000826040015112156119015780602001516118ea5760016118ed565b60005b816060019015159081151581525050611913565b60018160600190151590811515815250505b5b80600660008673ffffffffffffffffffffffffffffffffffffffff1673ffffffffffffffffffffffffffffffffffffffff168152602001908152602001600020600085815260200190815260200160002060008201518160000160006101000a81548173ffffffffffffffffffffffffffffffffffffffff021916908373ffffffffffffffffffffffffffffffffffffffff16021790555060208201518160000160146101000a81548160ff02191690831515021790555060408201518160000160156101000a81548160ff02191690831515021790555060608201518160000160166101000a81548160ff0219169083151502179055509050506000600560008673ffffffffffffffffffffffffffffffffffffffff1673ffffffffffffffffffffffffffffffffffffffff1681526020019081526020016000206040518061010001604052908160008201548152602001600182018054611a76906133df565b80601f0160208091040260200160405190810160405280929190818152602001828054611aa2906133df565b8015611aef5780601f10611ac457610100808354040283529160200191611aef565b820191906000526020600020905b815481529060010190602001808311611ad257829003601f168201915b505050505081526020016002820160009054906101000a900473ffffffffffffffffffffffffffffffffffffffff1673ffffffffffffffffffffffffffffffffffffffff1673ffffffffffffffffffffffffffffffffffffffff168152602001600382015481526020016004820154815260200160058201548152602001600682015481526020016007820154815250509050600060056000846000015173ffffffffffffffffffffffffffffffffffffffff1673ffffffffffffffffffffffffffffffffffffffff1681526020019081526020016000206040518061010001604052908160008201548152602001600182018054611bed906133df565b80601f0160208091040260200160405190810160405280929190818152602001828054611c19906133df565b8015611c665780601f10611c3b57610100808354040283529160200191611c66565b820191906000526020600020905b815481529060010190602001808311611c4957829003601f168201915b505050505081526020016002820160009054906101000a900473ffffffffffffffffffffffffffffffffffffffff1673ffffffffffffffffffffffffffffffffffffffff1673ffffffffffffffffffffffffffffffffffffffff168152602001600382015481526020016004820154815260200160058201548152602001600682015481526020016007820154815250509050826060015115611d6857816060018051809190611d1590613411565b815250508060c0018051809190611d2b90613411565b8152505060028260e001818151611d429190613bcd565b9150818152505060028160e001818151611d5c9190613c61565b91508181525050611dc1565b816080018051809190611d7a90613411565b815250508060a0018051809190611d9090613411565b815250508160e0018051809190611da690613cf5565b815250508060e0018051809190611dbc90613d3e565b815250505b81600560008873ffffffffffffffffffffffffffffffffffffffff1673ffffffffffffffffffffffffffffffffffffffff168152602001908152602001600020600082015181600001556020820151816001019080519060200190611e279291906127e7565b5060408201518160020160006101000a81548173ffffffffffffffffffffffffffffffffffffffff021916908373ffffffffffffffffffffffffffffffffffffffff160217905550606082015181600301556080820151816004015560a0820151816005015560c0820151816006015560e082015181600701559050508060056000856000015173ffffffffffffffffffffffffffffffffffffffff1673ffffffffffffffffffffffffffffffffffffffff168152602001908152602001600020600082015181600001556020820151816001019080519060200190611f0e9291906127e7565b5060408201518160020160006101000a81548173ffffffffffffffffffffffffffffffffffffffff021916908373ffffffffffffffffffffffffffffffffffffffff160217905550606082015181600301556080820151816004015560a0820151816005015560c0820151816006015560e08201518160070155905050826000015173ffffffffffffffffffffffffffffffffffffffff168673ffffffffffffffffffffffffffffffffffffffff167f4c421741fff3aef70b8a25aef395d9c06233e531529fb35d1790ab8f43d7bf69878660600151604051611ff2929190613832565b60405180910390a3505050505050565b6000806003600084815260200190815260200160002060010154141561205d576040517f08c379a000000000000000000000000000000000000000000000000000000000815260040161205490613df9565b60405180910390fd5b60036000838152602001908152602001600020600101549050919050565b6120836124b4565b600073ffffffffffffffffffffffffffffffffffffffff168173ffffffffffffffffffffffffffffffffffffffff1614156120f3576040517f08c379a00000000000000000000000000000000000000000000000000000000081526004016120ea90613e8b565b60405180910390fd5b6120fc81612532565b50565b6004818154811061210f57600080fd5b9060005260206000209060080201600091509050806000015490806001018054612138906133df565b80601f0160208091040260200160405190810160405280929190818152602001828054612164906133df565b80156121b15780601f10612186576101008083540402835291602001916121b1565b820191906000526020600020905b81548152906001019060200180831161219457829003601f168201915b5050505050908060020160009054906101000a900473ffffffffffffffffffffffffffffffffffffffff16908060030154908060040154908060050154908060060154908060070154905088565b3373ffffffffffffffffffffffffffffffffffffffff16600160009054906101000a900473ffffffffffffffffffffffffffffffffffffffff1673ffffffffffffffffffffffffffffffffffffffff161461228f576040517f08c379a000000000000000000000000000000000000000000000000000000000815260040161228690613ef7565b60405180910390fd5b600061229a836125f6565b9050806122dc576040517f08c379a00000000000000000000000000000000000000000000000000000000081526004016122d390613f89565b60405180910390fd5b60008060036000603c876122f091906132f7565b81526020019081526020016000206040518060600160405290816000820154815260200160018201548152602001600282015481525050905060008160000151146123625761271081602001518561271061234b9190613fa9565b61235591906140ef565b61235f9190613c61565b91505b604051806060016040528086815260200185815260200183815250600360008781526020019081526020016000206000820151816000015560208201518160010155604082015181600201559050507f48a46c9c4d11ab7976c4214edcaa74f83820b5bd03a3427051f776c52d1d6b2085856040516123e2929190614159565b60405180910390a15050505050565b6000603c80836124019190614182565b61240b91906141b3565b9050919050565b61241f8160000151612717565b15612429576124b1565b600281908060018154018082558091505060019003906000526020600020906003020160009091909190915060008201518160000155602082015181600101556040820151816002015550507fd2a7f716b81f08e14a6288aab334904b8eef2bb9b787a99ead7ed8fb12a5ca1a81600001516040516124a8919061321b565b60405180910390a15b50565b6124bc612784565b73ffffffffffffffffffffffffffffffffffffffff166124da6111f4565b73ffffffffffffffffffffffffffffffffffffffff1614612530576040517f08c379a000000000000000000000000000000000000000000000000000000000815260040161252790614259565b60405180910390fd5b565b60008060009054906101000a900473ffffffffffffffffffffffffffffffffffffffff169050816000806101000a81548173ffffffffffffffffffffffffffffffffffffffff021916908373ffffffffffffffffffffffffffffffffffffffff1602179055508173ffffffffffffffffffffffffffffffffffffffff168173ffffffffffffffffffffffffffffffffffffffff167f8be0079c531659141344cd1fd0a4f28419497f9722a3daafe3b4186f6b6457e060405160405180910390a35050565b600080600280549050905060005b8181101561270b57836002828154811061262157612620613381565b5b90600052602060002090600302016000015414156126f857600260018361264891906132f7565b8154811061265957612658613381565b5b90600052602060002090600302016002828154811061267b5761267a613381565b5b906000526020600020906003020160008201548160000155600182015481600101556002820154816002015590505060028054806126bc576126bb614279565b5b60019003818190600052602060002090600302016000808201600090556001820160009055600282016000905550509055600192505050612712565b808061270390613411565b915050612604565b5060009150505b919050565b600080600280549050905060005b8181101561277857836002828154811061274257612741613381565b5b90600052602060002090600302016000015414156127655760019250505061277f565b808061277090613411565b915050612725565b5060009150505b919050565b600033905090565b6040518061010001604052806000815260200160608152602001600073ffffffffffffffffffffffffffffffffffffffff16815260200160008152602001600081526020016000815260200160008152602001600081525090565b8280546127f3906133df565b90600052602060002090601f016020900481019282612815576000855561285c565b82601f1061282e57805160ff191683800117855561285c565b8280016001018555821561285c579182015b8281111561285b578251825591602001919060010190612840565b5b509050612869919061286d565b5090565b5b8082111561288657600081600090555060010161286e565b5090565b6000604051905090565b600080fd5b600080fd5b6000819050919050565b6128b18161289e565b81146128bc57600080fd5b50565b6000813590506128ce816128a8565b92915050565b600080604083850312156128eb576128ea612894565b5b60006128f9858286016128bf565b925050602061290a858286016128bf565b9150509250929050565b600081519050919050565b600082825260208201905092915050565b6000819050602082019050919050565b6129498161289e565b82525050565b600081519050919050565b600082825260208201905092915050565b60005b8381101561298957808201518184015260208101905061296e565b83811115612998576000848401525b50505050565b6000601f19601f8301169050919050565b60006129ba8261294f565b6129c4818561295a565b93506129d481856020860161296b565b6129dd8161299e565b840191505092915050565b600073ffffffffffffffffffffffffffffffffffffffff82169050919050565b6000612a13826129e8565b9050919050565b612a2381612a08565b82525050565b6000819050919050565b612a3c81612a29565b82525050565b600061010083016000830151612a5b6000860182612940565b5060208301518482036020860152612a7382826129af565b9150506040830151612a886040860182612a1a565b506060830151612a9b6060860182612940565b506080830151612aae6080860182612940565b5060a0830151612ac160a0860182612940565b5060c0830151612ad460c0860182612940565b5060e0830151612ae760e0860182612a33565b508091505092915050565b6000612afe8383612a42565b905092915050565b6000602082019050919050565b6000612b1e82612914565b612b28818561291f565b935083602082028501612b3a85612930565b8060005b85811015612b765784840389528151612b578582612af2565b9450612b6283612b06565b925060208a01995050600181019050612b3e565b50829750879550505050505092915050565b60006020820190508181036000830152612ba28184612b13565b905092915050565b612bb381612a08565b8114612bbe57600080fd5b50565b600081359050612bd081612baa565b92915050565b600060208284031215612bec57612beb612894565b5b6000612bfa84828501612bc1565b91505092915050565b600061010083016000830151612c1c6000860182612940565b5060208301518482036020860152612c3482826129af565b9150506040830151612c496040860182612a1a565b506060830151612c5c6060860182612940565b506080830151612c6f6080860182612940565b5060a0830151612c8260a0860182612940565b5060c0830151612c9560c0860182612940565b5060e0830151612ca860e0860182612a33565b508091505092915050565b60006020820190508181036000830152612ccd8184612c03565b905092915050565b60008115159050919050565b612cea81612cd5565b8114612cf557600080fd5b50565b600081359050612d0781612ce1565b92915050565b600080600060608486031215612d2657612d25612894565b5b6000612d3486828701612bc1565b9350506020612d45868287016128bf565b9250506040612d5686828701612cf8565b9150509250925092565b600060208284031215612d7657612d75612894565b5b6000612d84848285016128bf565b91505092915050565b612d968161289e565b82525050565b612da581612a29565b82525050565b6000606082019050612dc06000830186612d8d565b612dcd6020830185612d8d565b612dda6040830184612d9c565b949350505050565b60008060408385031215612df957612df8612894565b5b6000612e0785828601612bc1565b9250506020612e18858286016128bf565b9150509250929050565b612e2b81612a08565b82525050565b612e3a81612cd5565b82525050565b6000608082019050612e556000830187612e22565b612e626020830186612e31565b612e6f6040830185612e31565b612e7c6060830184612e31565b95945050505050565b600082825260208201905092915050565b6000612ea18261294f565b612eab8185612e85565b9350612ebb81856020860161296b565b612ec48161299e565b840191505092915050565b600061010082019050612ee5600083018b612d8d565b8181036020830152612ef7818a612e96565b9050612f066040830189612e22565b612f136060830188612d8d565b612f206080830187612d8d565b612f2d60a0830186612d8d565b612f3a60c0830185612d8d565b612f4760e0830184612d9c565b9998505050505050505050565b6000602082019050612f696000830184612e22565b92915050565b600081519050919050565b600082825260208201905092915050565b6000819050602082019050919050565b606082016000820151612fb16000850182612940565b506020820151612fc46020850182612940565b506040820151612fd76040850182612a33565b50505050565b6000612fe98383612f9b565b60608301905092915050565b6000602082019050919050565b600061300d82612f6f565b6130178185612f7a565b935061302283612f8b565b8060005b8381101561305357815161303a8882612fdd565b975061304583612ff5565b925050600181019050613026565b5085935050505092915050565b6000602082019050818103600083015261307a8184613002565b905092915050565b60006020820190506130976000830184612e31565b92915050565b600080fd5b600080fd5b7f4e487b7100000000000000000000000000000000000000000000000000000000600052604160045260246000fd5b6130df8261299e565b810181811067ffffffffffffffff821117156130fe576130fd6130a7565b5b80604052505050565b600061311161288a565b905061311d82826130d6565b919050565b600067ffffffffffffffff82111561313d5761313c6130a7565b5b6131468261299e565b9050602081019050919050565b82818337600083830152505050565b600061317561317084613122565b613107565b905082815260208101848484011115613191576131906130a2565b5b61319c848285613153565b509392505050565b600082601f8301126131b9576131b861309d565b5b81356131c9848260208601613162565b91505092915050565b6000602082840312156131e8576131e7612894565b5b600082013567ffffffffffffffff81111561320657613205612899565b5b613212848285016131a4565b91505092915050565b60006020820190506132306000830184612d8d565b92915050565b7f506c61796572436f6e74726163743a207374617274206964206d75737420626560008201527f206c657373207468616e20656e64206964000000000000000000000000000000602082015250565b6000613292603183612e85565b915061329d82613236565b604082019050919050565b600060208201905081810360008301526132c181613285565b9050919050565b7f4e487b7100000000000000000000000000000000000000000000000000000000600052601160045260246000fd5b60006133028261289e565b915061330d8361289e565b9250828210156133205761331f6132c8565b5b828203905092915050565b60006133368261289e565b91506133418361289e565b9250827fffffffffffffffffffffffffffffffffffffffffffffffffffffffffffffffff03821115613376576133756132c8565b5b828201905092915050565b7f4e487b7100000000000000000000000000000000000000000000000000000000600052603260045260246000fd5b7f4e487b7100000000000000000000000000000000000000000000000000000000600052602260045260246000fd5b600060028204905060018216806133f757607f821691505b6020821081141561340b5761340a6133b0565b5b50919050565b600061341c8261289e565b91507fffffffffffffffffffffffffffffffffffffffffffffffffffffffffffffffff82141561344f5761344e6132c8565b5b600182019050919050565b7f506c61796572436f6e74726163743a20706c61796572206e6f74206578697374600082015250565b6000613490602083612e85565b915061349b8261345a565b602082019050919050565b600060208201905081810360008301526134bf81613483565b9050919050565b7f506c61796572436f6e74726163743a20706c61796572206e6f7420657869737460008201527f20666f7220616464726573730000000000000000000000000000000000000000602082015250565b6000613522602c83612e85565b915061352d826134c6565b604082019050919050565b6000602082019050818103600083015261355181613515565b9050919050565b7f506c61796572436f6e74726163743a20646566656e646572206e6f742065786960008201527f7374000000000000000000000000000000000000000000000000000000000000602082015250565b60006135b4602283612e85565b91506135bf82613558565b604082019050919050565b600060208201905081810360008301526135e3816135a7565b9050919050565b7f506c61796572436f6e74726163743a20646566656e64657220616e642061747460008201527f61636b6572206172652073616d65000000000000000000000000000000000000602082015250565b6000613646602e83612e85565b9150613651826135ea565b604082019050919050565b6000602082019050818103600083015261367581613639565b9050919050565b7f506c61796572436f6e74726163743a207374617274696e67206d696e7574652060008201527f6d7573742062652061206675747572652074696d650000000000000000000000602082015250565b60006136d8603583612e85565b91506136e38261367c565b604082019050919050565b60006020820190508181036000830152613707816136cb565b9050919050565b7f506c61796572436f6e74726163743a207374617274696e67206d696e7574652060008201527f6d757374206e6f74206265206661722061776179000000000000000000000000602082015250565b600061376a603483612e85565b91506137758261370e565b604082019050919050565b600060208201905081810360008301526137998161375d565b9050919050565b7f506c61796572436f6e74726163743a20616c726561647920726567697374657260008201527f656420666f7220616e2061747461636b00000000000000000000000000000000602082015250565b60006137fc603083612e85565b9150613807826137a0565b604082019050919050565b6000602082019050818103600083015261382b816137ef565b9050919050565b60006040820190506138476000830185612d8d565b6138546020830184612e31565b9392505050565b7f506c61796572436f6e74726163743a20706c6179657220616c7265616479206560008201527f786973747320666f722061646472657373000000000000000000000000000000602082015250565b60006138b7603183612e85565b91506138c28261385b565b604082019050919050565b600060208201905081810360008301526138e6816138aa565b9050919050565b50565b60006138fd600083612e85565b9150613908826138ed565b600082019050919050565b6000602082019050818103600083015261392c816138f0565b9050919050565b6000602082019050818103600083015261394d8184612e96565b905092915050565b7f506c61796572436f6e74726163743a206e616d6520697320656d707479000000600082015250565b600061398b601d83612e85565b915061399682613955565b602082019050919050565b600060208201905081810360008301526139ba8161397e565b9050919050565b60006040820190506139d66000830185612d8d565b81810360208301526139e88184612e96565b90509392505050565b7f506c61796572436f6e74726163743a2061747461636b206e6f7420657869737460008201527f7300000000000000000000000000000000000000000000000000000000000000602082015250565b6000613a4d602183612e85565b9150613a58826139f1565b604082019050919050565b60006020820190508181036000830152613a7c81613a40565b9050919050565b7f506c61796572436f6e74726163743a207072696365207265717565737420666f60008201527f7220626174746c65207374617274696e672074696d65206e6f7420657869737460208201527f7300000000000000000000000000000000000000000000000000000000000000604082015250565b6000613b05604183612e85565b9150613b1082613a83565b606082019050919050565b60006020820190508181036000830152613b3481613af8565b9050919050565b7f506c61796572436f6e74726163743a207072696365207265717565737420666f60008201527f7220626174746c652066696e6973682074696d65206e6f742065786973747300602082015250565b6000613b97603f83612e85565b9150613ba282613b3b565b604082019050919050565b60006020820190508181036000830152613bc681613b8a565b9050919050565b6000613bd882612a29565b9150613be383612a29565b9250817f7fffffffffffffffffffffffffffffffffffffffffffffffffffffffffffffff03831360008312151615613c1e57613c1d6132c8565b5b817f8000000000000000000000000000000000000000000000000000000000000000038312600083121615613c5657613c556132c8565b5b828201905092915050565b6000613c6c82612a29565b9150613c7783612a29565b9250827f800000000000000000000000000000000000000000000000000000000000000001821260008412151615613cb257613cb16132c8565b5b827f7fffffffffffffffffffffffffffffffffffffffffffffffffffffffffffffff018213600084121615613cea57613ce96132c8565b5b828203905092915050565b6000613d0082612a29565b91507f8000000000000000000000000000000000000000000000000000000000000000821415613d3357613d326132c8565b5b600182039050919050565b6000613d4982612a29565b91507f7fffffffffffffffffffffffffffffffffffffffffffffffffffffffffffffff821415613d7c57613d7b6132c8565b5b600182019050919050565b7f507269636552657175657374436f6e74726163743a207072696365206e6f742060008201527f7365740000000000000000000000000000000000000000000000000000000000602082015250565b6000613de3602383612e85565b9150613dee82613d87565b604082019050919050565b60006020820190508181036000830152613e1281613dd6565b9050919050565b7f4f776e61626c653a206e6577206f776e657220697320746865207a65726f206160008201527f6464726573730000000000000000000000000000000000000000000000000000602082015250565b6000613e75602683612e85565b9150613e8082613e19565b604082019050919050565b60006020820190508181036000830152613ea481613e68565b9050919050565b7f4f7261636c653a2063616c6c6572206973206e6f7420746865206f7261636c65600082015250565b6000613ee1602083612e85565b9150613eec82613eab565b602082019050919050565b60006020820190508181036000830152613f1081613ed4565b9050919050565b7f507269636552657175657374436f6e74726163743a207072696365207265717560008201527f657374206e6f7420657869737473000000000000000000000000000000000000602082015250565b6000613f73602e83612e85565b9150613f7e82613f17565b604082019050919050565b60006020820190508181036000830152613fa281613f66565b9050919050565b6000613fb482612a29565b9150613fbf83612a29565b9250827f7fffffffffffffffffffffffffffffffffffffffffffffffffffffffffffffff0482116000841360008413161615613ffe57613ffd6132c8565b5b817f8000000000000000000000000000000000000000000000000000000000000000058312600084126000841316161561403b5761403a6132c8565b5b827f80000000000000000000000000000000000000000000000000000000000000000582126000841360008412161615614078576140776132c8565b5b827f7fffffffffffffffffffffffffffffffffffffffffffffffffffffffffffffff05821260008412600084121616156140b5576140b46132c8565b5b828202905092915050565b7f4e487b7100000000000000000000000000000000000000000000000000000000600052601260045260246000fd5b60006140fa82612a29565b915061410583612a29565b925082614115576141146140c0565b5b600160000383147f80000000000000000000000000000000000000000000000000000000000000008314161561414e5761414d6132c8565b5b828205905092915050565b600060408201905061416e6000830185612d8d565b61417b6020830184612d8d565b9392505050565b600061418d8261289e565b91506141988361289e565b9250826141a8576141a76140c0565b5b828204905092915050565b60006141be8261289e565b91506141c98361289e565b9250817fffffffffffffffffffffffffffffffffffffffffffffffffffffffffffffffff0483118215151615614202576142016132c8565b5b828202905092915050565b7f4f776e61626c653a2063616c6c6572206973206e6f7420746865206f776e6572600082015250565b6000614243602083612e85565b915061424e8261420d565b602082019050919050565b6000602082019050818103600083015261427281614236565b9050919050565b7f4e487b7100000000000000000000000000000000000000000000000000000000600052603160045260246000fdfea2646970667358221220bb28f30074b298fe3c93c21d986550f927604a9750359310191ef840e2181b5f64736f6c634300080a0033",
  "immutableReferences": {},
  "source": "// SPDX-License-Identifier: MIT\npragma solidity >=0.8.10;\n\nimport \"./PriceRequestContract.sol\";\n\n/**\n * @title      Contract for player operations\n * @author     Orun Altnsoy\n * @notice     This contract deals with operations for players and interactions between them\n * @dev        Currently, players can only attack each others.\n */\ncontract PlayerContract is PriceRequestContract\n{\n    /**\n     * @dev        id:              Unique ID of player. Starting from 1 and incremented by 1 for every player\n     *             name:            Name of player.\n     *             owner:           Owner address of player.\n     *             attackWinCount:  Number of times player attacks and wins. Gives 2 points.\n     *             attackLossCount: Number of times player attacks and loses. Takes 1 point.\n     *             defendWinCount:  Number of times player is attacked and wins. Gives 1 point.\n     *             defendLossCount: Number of times player is attacked and loses. Takes 2 points.\n     *             points:          Points of player calculated from winnings and losses.\n     */\n\tstruct Player {\n\t\tuint id;\n        string name;\n        address owner;\n        uint attackWinCount;\n        uint attackLossCount;\n        uint defendWinCount;\n        uint defendLossCount;\n        int points;\n    }\n\n    /**\n     * @dev        defender: Address of attacked player.\n     *             side:     Attacker price prediction. This is true if and only if attacker predicted an increase.\n     *             finished: This value is true if and only if the battle is finished.\n     *             won:      This value is true if and only if the attacker is won.\n     *                       This value is meaningless if the battle is not finished.\n     */\n    struct Attack {\n        address defender;\n        bool side;\n        bool finished;\n        bool won;\n    }\n\n\n\n\n    /**\n     * @notice     List of all players\n     * @dev        Warning! Can become very big.\n     */\n    Player[] public players;\n\n    /**\n     * @notice     Mapping of addresses to players.\n     * @dev        Every address can only have one player.\n     */\n    mapping (address => Player) public addressToPlayer;\n\n    /**\n     * @notice     Mapping of addresses and minute timestamps to attacks.\n     * @dev        Every player can only attack one player for each minute.\n     */\n    mapping (address => mapping (uint => Attack)) public addressToMinuteTimestampToAttack;\n\n\n\n\n    /**\n     * @notice     Emitted when a player is created\n     * @param      id    ID of the created player\n     * @param      name  Name of the created player\n     */\n    event NewPlayerCreated(uint id, string name);\n\n    /**\n     * @notice     Emitted when a player registered a battle\n     * @param      attacker        Address of the registrerer\n     * @param      defender        Address of the registrant\n     * @param      startingMinute  Starting minute timestamp of the battle\n     * @param      side            Attacker price prediction which is true if and only if attacker predicted an increase.\n     */\n    event AttackRegistered(address indexed attacker, address indexed defender, uint startingMinute, bool side);\n\n    /**\n     * @notice     Emitted when a battle is concluded\n     * @param      attacker        Address of the attacker\n     * @param      defender        Address of the defender\n     * @param      startingMinute  Starting minute timestamp of the battle\n     * @param      won             True if and only if attacker has won the battle\n     */\n    event AttackResulted(address indexed attacker, address indexed defender, uint startingMinute, bool won);\n\n\n\n\n    modifier senderMustExists ()\n    {\n        require(addressToPlayer[msg.sender].id > 0, \"PlayerContract: player not exist for address\");\n\n        _;\n    }\n\n\n\n\n    /**\n     * @notice     Creates a new player\n     * @dev        One address can only create one player.\n     *             Name cannot be empty string.\n     * @param      _name  Name of player\n     */\n    function createPlayer (string memory _name) public\n    {\n    \trequire(addressToPlayer[msg.sender].id == 0, \"PlayerContract: player already exists for address\");\n        require(keccak256(abi.encode(_name)) != keccak256(abi.encode(\"\")), \"PlayerContract: name is empty\");\n\n        uint id = players.length + 1;\n    \tPlayer memory player = Player(players.length + 1, _name, msg.sender, 0, 0, 0, 0, 0);\n\n        players.push(player);\n        addressToPlayer[msg.sender] = player;\n\n        emit NewPlayerCreated(id, _name);\n    }\n\n    /**\n     * @notice     Returns the player struct of the sender address\n     * @dev        Sender must have a player.\n     * @return     Player belongs to the sender address\n     */\n    function getPlayer () public view senderMustExists returns (Player memory)\n    {\n        return addressToPlayer[msg.sender];\n    }\n\n    /**\n     * @notice     Returns the player struct of the given address\n     * @dev        Given address must have a player.\n     * @param      _owner  Address of the owner\n     * @return     Player belongs to the given address\n     */\n    function getAnyPlayer (address _owner) public view returns (Player memory)\n    {\n        require(addressToPlayer[_owner].id > 0, \"PlayerContract: player not exist\");\n\n        return addressToPlayer[_owner];\n    }\n\n    /**\n     * @notice     Returns the players optionally given closed interval of IDs\n     * @dev        Start ID of 0 means there is no lower limit while end ID of 0 means there is no upper limit.\n     *             This is sort of like a pagination since the players array can become quite big.\n     *             Start ID cannot be greater than the end ID.\n     * @param      _startId  ID of lower limit\n     * @param      _endId    ID of upper limit\n     * @return     Players belongs to the given ID interval\n     */\n    function getPlayers (uint _startId, uint _endId) public view returns (Player[] memory)\n    {\n        if (_startId == 0) _startId = 1;\n        if (_endId == 0) _endId = players.length;\n        require(_startId <= _endId, \"PlayerContract: start id must be less than end id\");\n\n        Player[] memory returnData = new Player[](_endId - _startId + 1);\n        uint index = 0;\n        for (uint i = _startId - 1; i < _endId; i++) {\n            returnData[index++] = players[i];\n        }\n\n        return returnData;\n    }\n\n    /**\n     * @notice     Registers a battle.\n     * @dev        Sender address is an attacker of battle and it must have a player.\n     *             Defender must have a player.\n     *             Player cannot attack itself.\n     *             Player can only register one attack for a given starting minute.\n     *             Starting minute of battle must be greater than current minute.\n     *             Starting minute of battle must not be too much greater than current minute (currently 1 hour).\n     *             This function adds a pending price request for a starting minute and the next (ending) minute.\n     * @param      _defender        Address of the attacked player\n     * @param      _startingMinute  Starting minute timestamp of the battle\n     * @param      _side            Attacker price prediction which is true if and only if attacker predicted an increase\n     */\n    function registerAttack (address _defender, uint _startingMinute, bool _side) public senderMustExists\n    {\n        require(addressToPlayer[_defender].id > 0, \"PlayerContract: defender not exist\");\n\n        require(_defender != msg.sender, \"PlayerContract: defender and attacker are same\");\n\n        uint startingMinute = _getMinute(_startingMinute);\n        uint currentMinute = _getMinute(block.timestamp);\n\n        require(startingMinute > currentMinute, \"PlayerContract: starting minute must be a future time\");\n        require(startingMinute < currentMinute + 1 hours, \"PlayerContract: starting minute must not be far away\");\n\n        require(!hasRegisteredAttack(msg.sender, startingMinute), \"PlayerContract: already registered for an attack\");\n\n        addressToMinuteTimestampToAttack[msg.sender][startingMinute] = Attack(_defender, _side, false, false);\n\n        _addPendingRequest(PriceRequest(startingMinute, 0, 0));\n        _addPendingRequest(PriceRequest(startingMinute + 60, 0, 0));\n\n        emit AttackRegistered(msg.sender, _defender, startingMinute, _side);\n    }\n\n    /**\n     * @notice     Finishes a battle.\n     * @dev        Player should finish their won battles to increase its points.\n     *             Attack must exists for a given attacker and starting minute.\n     *             Bitcoin prices for both the starting and ending minutes must be set.\n     *             Updates the corresponding attack and player structs.\n     * @param      _attacker        Address of the attacked player\n     * @param      _startingMinute  Starting minute timestamp of the battle\n     */\n    function finishAttack (address _attacker, uint _startingMinute) public\n    {\n        require(hasRegisteredAttack(_attacker, _startingMinute), \"PlayerContract: attack not exists\");\n\n        require(minuteTimestampToPriceRequest[_startingMinute].minuteTimestamp != 0, \"PlayerContract: price request for battle starting time not exists\");\n\n        PriceRequest memory finishTimePriceRequest = minuteTimestampToPriceRequest[_startingMinute + 60];\n\n        require(finishTimePriceRequest.minuteTimestamp != 0, \"PlayerContract: price request for battle finish time not exists\");\n\n        Attack memory attack = addressToMinuteTimestampToAttack[_attacker][_startingMinute];\n\n        attack.finished = true;\n\n        if (finishTimePriceRequest.increasePercent > 0) {\n            attack.won = attack.side ? true : false;\n        } else if (finishTimePriceRequest.increasePercent < 0) {\n            attack.won = attack.side ? false : true;\n        } else {\n            attack.won = true;\n        }\n\n        addressToMinuteTimestampToAttack[_attacker][_startingMinute] = attack;\n\n        Player memory attacker = addressToPlayer[_attacker];\n        Player memory defender = addressToPlayer[attack.defender];\n\n        if (attack.won) {\n            attacker.attackWinCount++;\n            defender.defendLossCount++;\n            attacker.points += 2;\n            defender.points -= 2;\n        } else {\n            attacker.attackLossCount++;\n            defender.defendWinCount++;\n            attacker.points--;\n            defender.points++;\n        }\n\n        addressToPlayer[_attacker] = attacker;\n        addressToPlayer[attack.defender] = defender;\n\n        emit AttackResulted(_attacker, attack.defender, _startingMinute, attack.won);\n    }\n\n    /**\n     * @notice     Checks if the given address has registered attack for a given minute\n     * @param      _attacker        Address of the attacking player\n     * @param      _startingMinute  Starting minute timestamp of the battle\n     * @return     True if and only if attack has been registered\n     */\n    function hasRegisteredAttack (address _attacker, uint _startingMinute) public view returns (bool)\n    {\n        return addressToMinuteTimestampToAttack[_attacker][_startingMinute].defender != address(0);\n    }\n\n\n\n\n    /**\n     * @notice     Get given timestamp's minute timestamp\n     * @dev        This function effectively zeroes the seconds in a datetime (e.g. 23:59:59 become 23:59:00.).\n     * @param      _datetime        Timestamp value\n     * @return     Given timestamp's minute timestamp\n     */\n    function _getMinute (uint _datetime) internal pure returns (uint)\n    {\n        return (_datetime / 60) * 60;\n    }\n}\n",
  "sourcePath": "/home/orcun/battle/solidity/contracts/PlayerContract.sol",
  "compiler": {
    "name": "solc",
    "version": "0.8.10+commit.fc410830.Emscripten.clang"
  },
  "schemaVersion": "3.4.4",
  "updatedAt": "2022-10-31T17:38:41.581Z",
  "networkType": "ethereum",
  "devdoc": {
    "author": "Orun Altnsoy",
    "details": "Currently, players can only attack each others.",
    "events": {
      "AttackRegistered(address,address,uint256,bool)": {
        "params": {
          "attacker": "Address of the registrerer",
          "defender": "Address of the registrant",
          "side": "Attacker price prediction which is true if and only if attacker predicted an increase.",
          "startingMinute": "Starting minute timestamp of the battle"
        }
      },
      "AttackResulted(address,address,uint256,bool)": {
        "params": {
          "attacker": "Address of the attacker",
          "defender": "Address of the defender",
          "startingMinute": "Starting minute timestamp of the battle",
          "won": "True if and only if attacker has won the battle"
        }
      },
      "NewPlayerCreated(uint256,string)": {
        "params": {
          "id": "ID of the created player",
          "name": "Name of the created player"
        }
      }
    },
    "kind": "dev",
    "methods": {
      "createPlayer(string)": {
        "details": "One address can only create one player.             Name cannot be empty string.",
        "params": {
          "_name": "Name of player"
        }
      },
      "finishAttack(address,uint256)": {
        "details": "Player should finish their won battles to increase its points.             Attack must exists for a given attacker and starting minute.             Bitcoin prices for both the starting and ending minutes must be set.             Updates the corresponding attack and player structs.",
        "params": {
          "_attacker": "Address of the attacked player",
          "_startingMinute": "Starting minute timestamp of the battle"
        }
      },
      "getAnyPlayer(address)": {
        "details": "Given address must have a player.",
        "params": {
          "_owner": "Address of the owner"
        },
        "returns": {
          "_0": "Player belongs to the given address"
        }
      },
      "getPendingRequests()": {
        "details": "Since returned array would never became too big, returning all of it are safe.",
        "returns": {
          "_0": "All pending requests"
        }
      },
      "getPlayer()": {
        "details": "Sender must have a player.",
        "returns": {
          "_0": "Player belongs to the sender address"
        }
      },
      "getPlayers(uint256,uint256)": {
        "details": "Start ID of 0 means there is no lower limit while end ID of 0 means there is no upper limit.             This is sort of like a pagination since the players array can become quite big.             Start ID cannot be greater than the end ID.",
        "params": {
          "_endId": "ID of upper limit",
          "_startId": "ID of lower limit"
        },
        "returns": {
          "_0": "Players belongs to the given ID interval"
        }
      },
      "getPrice(uint256)": {
        "details": "Returns only if the price is set.",
        "params": {
          "_minuteTimestamp": "Minute timestamp of the requested price"
        },
        "returns": {
          "_0": "Bitcoin price multiplied by 100"
        }
      },
      "hasRegisteredAttack(address,uint256)": {
        "params": {
          "_attacker": "Address of the attacking player",
          "_startingMinute": "Starting minute timestamp of the battle"
        },
        "returns": {
          "_0": "True if and only if attack has been registered"
        }
      },
      "owner()": {
        "details": "Returns the address of the current owner."
      },
      "registerAttack(address,uint256,bool)": {
        "details": "Sender address is an attacker of battle and it must have a player.             Defender must have a player.             Player cannot attack itself.             Player can only register one attack for a given starting minute.             Starting minute of battle must be greater than current minute.             Starting minute of battle must not be too much greater than current minute (currently 1 hour).             This function adds a pending price request for a starting minute and the next (ending) minute.",
        "params": {
          "_defender": "Address of the attacked player",
          "_side": "Attacker price prediction which is true if and only if attacker predicted an increase",
          "_startingMinute": "Starting minute timestamp of the battle"
        }
      },
      "renounceOwnership()": {
        "details": "Leaves the contract without owner. It will not be possible to call `onlyOwner` functions anymore. Can only be called by the current owner. NOTE: Renouncing ownership will leave the contract without an owner, thereby removing any functionality that is only available to the owner."
      },
      "setOracle(address)": {
        "details": "Only contract owner can set the address.",
        "params": {
          "_oracle": "New oracle address"
        }
      },
      "setPriceRequest(uint256,uint256)": {
        "details": "Only oracle can set the price request.             Removes the corresponding request from pending requests.             If price request of previous minute timestamp exists, then calculates the increase percent.",
        "params": {
          "_minuteTimestamp": "Minute timestamp of the price request",
          "_price": "Bitcoin price multiplied by 100"
        }
      },
      "transferOwnership(address)": {
        "details": "Transfers ownership of the contract to a new account (`newOwner`). Can only be called by the current owner."
      }
    },
    "stateVariables": {
      "addressToMinuteTimestampToAttack": {
        "details": "Every player can only attack one player for each minute."
      },
      "addressToPlayer": {
        "details": "Every address can only have one player."
      },
      "players": {
        "details": "Warning! Can become very big."
      }
    },
    "title": "Contract for player operations",
    "version": 1
  },
  "userdoc": {
    "events": {
      "AttackRegistered(address,address,uint256,bool)": {
        "notice": "Emitted when a player registered a battle"
      },
      "AttackResulted(address,address,uint256,bool)": {
        "notice": "Emitted when a battle is concluded"
      },
      "NewPlayerCreated(uint256,string)": {
        "notice": "Emitted when a player is created"
      },
      "PriceRequestSet(uint256,uint256)": {
        "notice": "Emitted when price request is set"
      },
      "PriceRequested(uint256)": {
        "notice": "Emitted when price is requested"
      }
    },
    "kind": "user",
    "methods": {
      "addressToMinuteTimestampToAttack(address,uint256)": {
        "notice": "Mapping of addresses and minute timestamps to attacks."
      },
      "addressToPlayer(address)": {
        "notice": "Mapping of addresses to players."
      },
      "createPlayer(string)": {
        "notice": "Creates a new player"
      },
      "finishAttack(address,uint256)": {
        "notice": "Finishes a battle."
      },
      "getAnyPlayer(address)": {
        "notice": "Returns the player struct of the given address"
      },
      "getPendingRequests()": {
        "notice": "Returns pending requests"
      },
      "getPlayer()": {
        "notice": "Returns the player struct of the sender address"
      },
      "getPlayers(uint256,uint256)": {
        "notice": "Returns the players optionally given closed interval of IDs"
      },
      "getPrice(uint256)": {
        "notice": "Gets the Bitcoin price of a given minute"
      },
      "hasRegisteredAttack(address,uint256)": {
        "notice": "Checks if the given address has registered attack for a given minute"
      },
      "minuteTimestampToPriceRequest(uint256)": {
        "notice": "Mapping of minute timestamps to finished price requests"
      },
      "oracle()": {
        "notice": "Stores the address of oracle"
      },
      "pendingRequests(uint256)": {
        "notice": "Stores pending requests"
      },
      "players(uint256)": {
        "notice": "List of all players"
      },
      "registerAttack(address,uint256,bool)": {
        "notice": "Registers a battle."
      },
      "setOracle(address)": {
        "notice": "Sets the address of oracle"
      },
      "setPriceRequest(uint256,uint256)": {
        "notice": "Sets the parameters of pending price request"
      }
    },
    "notice": "This contract deals with operations for players and interactions between them",
    "version": 1
  }
}