{
  "contractName": "PlayerContract",
  "abi": [
    {
      "anonymous": false,
      "inputs": [
        {
          "indexed": true,
          "internalType": "address",
          "name": "attacker",
          "type": "address"
        },
        {
          "indexed": true,
          "internalType": "address",
          "name": "defender",
          "type": "address"
        },
        {
          "indexed": false,
          "internalType": "uint256",
          "name": "startingMinute",
          "type": "uint256"
        },
        {
          "indexed": false,
          "internalType": "bool",
          "name": "side",
          "type": "bool"
        }
      ],
      "name": "AttackRegistered",
      "type": "event"
    },
    {
      "anonymous": false,
      "inputs": [
        {
          "indexed": false,
          "internalType": "uint256",
          "name": "id",
          "type": "uint256"
        },
        {
          "indexed": false,
          "internalType": "string",
          "name": "name",
          "type": "string"
        }
      ],
      "name": "NewPlayerCreated",
      "type": "event"
    },
    {
      "inputs": [
        {
          "internalType": "address",
          "name": "",
          "type": "address"
        },
        {
          "internalType": "uint256",
          "name": "",
          "type": "uint256"
        }
      ],
      "name": "addressToAttacks",
      "outputs": [
        {
          "internalType": "uint256",
          "name": "startingMinute",
          "type": "uint256"
        },
        {
          "internalType": "address",
          "name": "defender",
          "type": "address"
        },
        {
          "internalType": "bool",
          "name": "side",
          "type": "bool"
        },
        {
          "internalType": "bool",
          "name": "finished",
          "type": "bool"
        },
        {
          "internalType": "bool",
          "name": "won",
          "type": "bool"
        }
      ],
      "stateMutability": "view",
      "type": "function",
      "constant": true
    },
    {
      "inputs": [
        {
          "internalType": "address",
          "name": "",
          "type": "address"
        }
      ],
      "name": "addressToHasRegisteredAttack",
      "outputs": [
        {
          "internalType": "bool",
          "name": "",
          "type": "bool"
        }
      ],
      "stateMutability": "view",
      "type": "function",
      "constant": true
    },
    {
      "inputs": [
        {
          "internalType": "address",
          "name": "",
          "type": "address"
        }
      ],
      "name": "addressToPlayer",
      "outputs": [
        {
          "internalType": "uint256",
          "name": "id",
          "type": "uint256"
        },
        {
          "internalType": "string",
          "name": "name",
          "type": "string"
        },
        {
          "internalType": "uint256",
          "name": "attackWinCount",
          "type": "uint256"
        },
        {
          "internalType": "uint256",
          "name": "attackLossCount",
          "type": "uint256"
        },
        {
          "internalType": "uint256",
          "name": "defendWinCount",
          "type": "uint256"
        },
        {
          "internalType": "uint256",
          "name": "defendLossCount",
          "type": "uint256"
        },
        {
          "internalType": "int256",
          "name": "points",
          "type": "int256"
        }
      ],
      "stateMutability": "view",
      "type": "function",
      "constant": true
    },
    {
      "inputs": [
        {
          "internalType": "uint256",
          "name": "",
          "type": "uint256"
        }
      ],
      "name": "players",
      "outputs": [
        {
          "internalType": "uint256",
          "name": "id",
          "type": "uint256"
        },
        {
          "internalType": "string",
          "name": "name",
          "type": "string"
        },
        {
          "internalType": "uint256",
          "name": "attackWinCount",
          "type": "uint256"
        },
        {
          "internalType": "uint256",
          "name": "attackLossCount",
          "type": "uint256"
        },
        {
          "internalType": "uint256",
          "name": "defendWinCount",
          "type": "uint256"
        },
        {
          "internalType": "uint256",
          "name": "defendLossCount",
          "type": "uint256"
        },
        {
          "internalType": "int256",
          "name": "points",
          "type": "int256"
        }
      ],
      "stateMutability": "view",
      "type": "function",
      "constant": true
    },
    {
      "inputs": [
        {
          "internalType": "uint256",
          "name": "",
          "type": "uint256"
        }
      ],
      "name": "priceRequests",
      "outputs": [
        {
          "internalType": "uint256",
          "name": "minuteTimestamp",
          "type": "uint256"
        },
        {
          "internalType": "uint256",
          "name": "price",
          "type": "uint256"
        },
        {
          "internalType": "int256",
          "name": "increasePercent",
          "type": "int256"
        }
      ],
      "stateMutability": "view",
      "type": "function",
      "constant": true
    },
    {
      "inputs": [
        {
          "internalType": "string",
          "name": "_name",
          "type": "string"
        }
      ],
      "name": "createPlayer",
      "outputs": [],
      "stateMutability": "nonpayable",
      "type": "function"
    },
    {
      "inputs": [],
      "name": "getPlayer",
      "outputs": [
        {
          "components": [
            {
              "internalType": "uint256",
              "name": "id",
              "type": "uint256"
            },
            {
              "internalType": "string",
              "name": "name",
              "type": "string"
            },
            {
              "internalType": "uint256",
              "name": "attackWinCount",
              "type": "uint256"
            },
            {
              "internalType": "uint256",
              "name": "attackLossCount",
              "type": "uint256"
            },
            {
              "internalType": "uint256",
              "name": "defendWinCount",
              "type": "uint256"
            },
            {
              "internalType": "uint256",
              "name": "defendLossCount",
              "type": "uint256"
            },
            {
              "internalType": "int256",
              "name": "points",
              "type": "int256"
            }
          ],
          "internalType": "struct PlayerContract.Player",
          "name": "",
          "type": "tuple"
        }
      ],
      "stateMutability": "view",
      "type": "function",
      "constant": true
    },
    {
      "inputs": [
        {
          "internalType": "address",
          "name": "_defender",
          "type": "address"
        },
        {
          "internalType": "uint256",
          "name": "_startingMinute",
          "type": "uint256"
        },
        {
          "internalType": "bool",
          "name": "_side",
          "type": "bool"
        }
      ],
      "name": "registerAttack",
      "outputs": [],
      "stateMutability": "nonpayable",
      "type": "function"
    },
    {
      "inputs": [],
      "name": "getPriceRequests",
      "outputs": [
        {
          "components": [
            {
              "internalType": "uint256",
              "name": "minuteTimestamp",
              "type": "uint256"
            },
            {
              "internalType": "uint256",
              "name": "price",
              "type": "uint256"
            },
            {
              "internalType": "int256",
              "name": "increasePercent",
              "type": "int256"
            }
          ],
          "internalType": "struct PlayerContract.PriceRequest[]",
          "name": "",
          "type": "tuple[]"
        }
      ],
      "stateMutability": "view",
      "type": "function",
      "constant": true
    }
  ],
  "bytecode": "0x608060405234801561001057600080fd5b50611c68806100206000396000f3fe608060405234801561001057600080fd5b50600436106100935760003560e01c8063c487f8c111610066578063c487f8c114610124578063e75f9b2614610158578063ee451c951461018a578063f71d96cb146101ba578063fea507d7146101f057610093565b80631b8493f9146100985780633308f42d146100b457806379a39ebd146100d2578063b586a74014610108575b600080fd5b6100b260048036038101906100ad9190611055565b61020e565b005b6100bc6106be565b6040516100c99190611205565b60405180910390f35b6100ec60048036038101906100e79190611227565b610868565b6040516100ff97969594939291906112bc565b60405180910390f35b610122600480360381019061011d9190611467565b610932565b005b61013e600480360381019061013991906114b0565b610b7b565b60405161014f95949392919061150e565b60405180910390f35b610172600480360381019061016d9190611561565b610c15565b6040516101819392919061158e565b60405180910390f35b6101a4600480360381019061019f9190611227565b610c4f565b6040516101b191906115c5565b60405180910390f35b6101d460048036038101906101cf9190611561565b610c6f565b6040516101e797969594939291906112bc565b60405180910390f35b6101f8610d49565b60405161020591906116d1565b60405180910390f35b6000600260003373ffffffffffffffffffffffffffffffffffffffff1673ffffffffffffffffffffffffffffffffffffffff1681526020019081526020016000206000015411610293576040517f08c379a000000000000000000000000000000000000000000000000000000000815260040161028a90611765565b60405180910390fd5b6000600260008573ffffffffffffffffffffffffffffffffffffffff1673ffffffffffffffffffffffffffffffffffffffff1681526020019081526020016000206000015411610318576040517f08c379a000000000000000000000000000000000000000000000000000000000815260040161030f906117d1565b60405180910390fd5b600061032383610dc6565b9050600061033042610dc6565b9050808211610374576040517f08c379a000000000000000000000000000000000000000000000000000000000815260040161036b90611863565b60405180910390fd5b620151808161038391906118b2565b82106103c4576040517f08c379a00000000000000000000000000000000000000000000000000000000081526004016103bb9061197a565b60405180910390fd5b6103cc610de7565b1561040c576040517f08c379a000000000000000000000000000000000000000000000000000000000815260040161040390611a0c565b60405180910390fd5b610414610e3b565b600460003373ffffffffffffffffffffffffffffffffffffffff1673ffffffffffffffffffffffffffffffffffffffff1681526020019081526020016000206040518060a001604052808481526020018773ffffffffffffffffffffffffffffffffffffffff16815260200185151581526020016000151581526020016000151581525090806001815401808255809150506001900390600052602060002090600202016000909190919091506000820151816000015560208201518160010160006101000a81548173ffffffffffffffffffffffffffffffffffffffff021916908373ffffffffffffffffffffffffffffffffffffffff16021790555060408201518160010160146101000a81548160ff02191690831515021790555060608201518160010160156101000a81548160ff02191690831515021790555060808201518160010160166101000a81548160ff0219169083151502179055505050600160405180606001604052808481526020016000815260200160008152509080600181540180825580915050600190039060005260206000209060030201600090919091909150600082015181600001556020820151816001015560408201518160020155505060016040518060600160405280603c856105f691906118b2565b8152602001600081526020016000815250908060018154018082558091505060019003906000526020600020906003020160009091909190915060008201518160000155602082015181600101556040820151816002015550508473ffffffffffffffffffffffffffffffffffffffff163373ffffffffffffffffffffffffffffffffffffffff167fb005412a6654cb2de467a8d5793294d014b6315427fc13ba49998a46831abe6a84866040516106af929190611a2c565b60405180910390a35050505050565b6106c6610e95565b6000600260003373ffffffffffffffffffffffffffffffffffffffff1673ffffffffffffffffffffffffffffffffffffffff168152602001908152602001600020600001541161074b576040517f08c379a000000000000000000000000000000000000000000000000000000000815260040161074290611765565b60405180910390fd5b600260003373ffffffffffffffffffffffffffffffffffffffff1673ffffffffffffffffffffffffffffffffffffffff1681526020019081526020016000206040518060e0016040529081600082015481526020016001820180546107af90611a84565b80601f01602080910402602001604051908101604052809291908181526020018280546107db90611a84565b80156108285780601f106107fd57610100808354040283529160200191610828565b820191906000526020600020905b81548152906001019060200180831161080b57829003601f168201915b5050505050815260200160028201548152602001600382015481526020016004820154815260200160058201548152602001600682015481525050905090565b600260205280600052604060002060009150905080600001549080600101805461089190611a84565b80601f01602080910402602001604051908101604052809291908181526020018280546108bd90611a84565b801561090a5780601f106108df5761010080835404028352916020019161090a565b820191906000526020600020905b8154815290600101906020018083116108ed57829003601f168201915b5050505050908060020154908060030154908060040154908060050154908060060154905087565b6000600260003373ffffffffffffffffffffffffffffffffffffffff1673ffffffffffffffffffffffffffffffffffffffff16815260200190815260200160002060000154146109b7576040517f08c379a00000000000000000000000000000000000000000000000000000000081526004016109ae90611b28565b60405180910390fd5b600060016000805490506109cb91906118b2565b905060006040518060e0016040528060016000805490506109ec91906118b2565b815260200184815260200160008152602001600081526020016000815260200160008152602001600081525090506000819080600181540180825580915050600190039060005260206000209060070201600090919091909150600082015181600001556020820151816001019080519060200190610a6c929190610ed2565b5060408201518160020155606082015181600301556080820151816004015560a0820151816005015560c08201518160060155505080600260003373ffffffffffffffffffffffffffffffffffffffff1673ffffffffffffffffffffffffffffffffffffffff168152602001908152602001600020600082015181600001556020820151816001019080519060200190610b07929190610ed2565b5060408201518160020155606082015181600301556080820151816004015560a0820151816005015560c082015181600601559050507fc613856e36141bd14e64b3158acae3752d0dc905757b70c6f8178f7a0747d1e98284604051610b6e929190611b48565b60405180910390a1505050565b60046020528160005260406000208181548110610b9757600080fd5b9060005260206000209060020201600091509150508060000154908060010160009054906101000a900473ffffffffffffffffffffffffffffffffffffffff16908060010160149054906101000a900460ff16908060010160159054906101000a900460ff16908060010160169054906101000a900460ff16905085565b60018181548110610c2557600080fd5b90600052602060002090600302016000915090508060000154908060010154908060020154905083565b60036020528060005260406000206000915054906101000a900460ff1681565b60008181548110610c7f57600080fd5b9060005260206000209060070201600091509050806000015490806001018054610ca890611a84565b80601f0160208091040260200160405190810160405280929190818152602001828054610cd490611a84565b8015610d215780601f10610cf657610100808354040283529160200191610d21565b820191906000526020600020905b815481529060010190602001808311610d0457829003601f168201915b5050505050908060020154908060030154908060040154908060050154908060060154905087565b60606001805480602002602001604051908101604052809291908181526020016000905b82821015610dbd5783829060005260206000209060030201604051806060016040529081600082015481526020016001820154815260200160028201548152505081526020019060010190610d6d565b50505050905090565b6000603c8083610dd69190611ba7565b610de09190611bd8565b9050919050565b6000600360003373ffffffffffffffffffffffffffffffffffffffff1673ffffffffffffffffffffffffffffffffffffffff16815260200190815260200160002060009054906101000a900460ff16905090565b6001600360003373ffffffffffffffffffffffffffffffffffffffff1673ffffffffffffffffffffffffffffffffffffffff16815260200190815260200160002060006101000a81548160ff021916908315150217905550565b6040518060e00160405280600081526020016060815260200160008152602001600081526020016000815260200160008152602001600081525090565b828054610ede90611a84565b90600052602060002090601f016020900481019282610f005760008555610f47565b82601f10610f1957805160ff1916838001178555610f47565b82800160010185558215610f47579182015b82811115610f46578251825591602001919060010190610f2b565b5b509050610f549190610f58565b5090565b5b80821115610f71576000816000905550600101610f59565b5090565b6000604051905090565b600080fd5b600080fd5b600073ffffffffffffffffffffffffffffffffffffffff82169050919050565b6000610fb482610f89565b9050919050565b610fc481610fa9565b8114610fcf57600080fd5b50565b600081359050610fe181610fbb565b92915050565b6000819050919050565b610ffa81610fe7565b811461100557600080fd5b50565b60008135905061101781610ff1565b92915050565b60008115159050919050565b6110328161101d565b811461103d57600080fd5b50565b60008135905061104f81611029565b92915050565b60008060006060848603121561106e5761106d610f7f565b5b600061107c86828701610fd2565b935050602061108d86828701611008565b925050604061109e86828701611040565b9150509250925092565b6110b181610fe7565b82525050565b600081519050919050565b600082825260208201905092915050565b60005b838110156110f15780820151818401526020810190506110d6565b83811115611100576000848401525b50505050565b6000601f19601f8301169050919050565b6000611122826110b7565b61112c81856110c2565b935061113c8185602086016110d3565b61114581611106565b840191505092915050565b6000819050919050565b61116381611150565b82525050565b600060e08301600083015161118160008601826110a8565b50602083015184820360208601526111998282611117565b91505060408301516111ae60408601826110a8565b5060608301516111c160608601826110a8565b5060808301516111d460808601826110a8565b5060a08301516111e760a08601826110a8565b5060c08301516111fa60c086018261115a565b508091505092915050565b6000602082019050818103600083015261121f8184611169565b905092915050565b60006020828403121561123d5761123c610f7f565b5b600061124b84828501610fd2565b91505092915050565b61125d81610fe7565b82525050565b600082825260208201905092915050565b600061127f826110b7565b6112898185611263565b93506112998185602086016110d3565b6112a281611106565b840191505092915050565b6112b681611150565b82525050565b600060e0820190506112d1600083018a611254565b81810360208301526112e38189611274565b90506112f26040830188611254565b6112ff6060830187611254565b61130c6080830186611254565b61131960a0830185611254565b61132660c08301846112ad565b98975050505050505050565b600080fd5b600080fd5b7f4e487b7100000000000000000000000000000000000000000000000000000000600052604160045260246000fd5b61137482611106565b810181811067ffffffffffffffff821117156113935761139261133c565b5b80604052505050565b60006113a6610f75565b90506113b2828261136b565b919050565b600067ffffffffffffffff8211156113d2576113d161133c565b5b6113db82611106565b9050602081019050919050565b82818337600083830152505050565b600061140a611405846113b7565b61139c565b90508281526020810184848401111561142657611425611337565b5b6114318482856113e8565b509392505050565b600082601f83011261144e5761144d611332565b5b813561145e8482602086016113f7565b91505092915050565b60006020828403121561147d5761147c610f7f565b5b600082013567ffffffffffffffff81111561149b5761149a610f84565b5b6114a784828501611439565b91505092915050565b600080604083850312156114c7576114c6610f7f565b5b60006114d585828601610fd2565b92505060206114e685828601611008565b9150509250929050565b6114f981610fa9565b82525050565b6115088161101d565b82525050565b600060a0820190506115236000830188611254565b61153060208301876114f0565b61153d60408301866114ff565b61154a60608301856114ff565b61155760808301846114ff565b9695505050505050565b60006020828403121561157757611576610f7f565b5b600061158584828501611008565b91505092915050565b60006060820190506115a36000830186611254565b6115b06020830185611254565b6115bd60408301846112ad565b949350505050565b60006020820190506115da60008301846114ff565b92915050565b600081519050919050565b600082825260208201905092915050565b6000819050602082019050919050565b60608201600082015161162260008501826110a8565b50602082015161163560208501826110a8565b506040820151611648604085018261115a565b50505050565b600061165a838361160c565b60608301905092915050565b6000602082019050919050565b600061167e826115e0565b61168881856115eb565b9350611693836115fc565b8060005b838110156116c45781516116ab888261164e565b97506116b683611666565b925050600181019050611697565b5085935050505092915050565b600060208201905081810360008301526116eb8184611673565b905092915050565b7f506c617965723a20706c61796572206e6f7420657869737420666f722061646460008201527f7265737300000000000000000000000000000000000000000000000000000000602082015250565b600061174f602483611263565b915061175a826116f3565b604082019050919050565b6000602082019050818103600083015261177e81611742565b9050919050565b7f506c617965723a20646566656e646572206e6f74206578697374000000000000600082015250565b60006117bb601a83611263565b91506117c682611785565b602082019050919050565b600060208201905081810360008301526117ea816117ae565b9050919050565b7f506c617965723a207374617274696e67206d696e757465206d7573742062652060008201527f61206675747572652074696d6500000000000000000000000000000000000000602082015250565b600061184d602d83611263565b9150611858826117f1565b604082019050919050565b6000602082019050818103600083015261187c81611840565b9050919050565b7f4e487b7100000000000000000000000000000000000000000000000000000000600052601160045260246000fd5b60006118bd82610fe7565b91506118c883610fe7565b9250827fffffffffffffffffffffffffffffffffffffffffffffffffffffffffffffffff038211156118fd576118fc611883565b5b828201905092915050565b7f506c617965723a207374617274696e67206d696e757465206d757374206e6f7460008201527f2062652066617220617761790000000000000000000000000000000000000000602082015250565b6000611964602c83611263565b915061196f82611908565b604082019050919050565b6000602082019050818103600083015261199381611957565b9050919050565b7f506c617965723a20616c7265616479207265676973746572656420666f72206160008201527f6e2061747461636b000000000000000000000000000000000000000000000000602082015250565b60006119f6602883611263565b9150611a018261199a565b604082019050919050565b60006020820190508181036000830152611a25816119e9565b9050919050565b6000604082019050611a416000830185611254565b611a4e60208301846114ff565b9392505050565b7f4e487b7100000000000000000000000000000000000000000000000000000000600052602260045260246000fd5b60006002820490506001821680611a9c57607f821691505b60208210811415611ab057611aaf611a55565b5b50919050565b7f506c617965723a20706c6179657220616c72656164792065786973747320666f60008201527f7220616464726573730000000000000000000000000000000000000000000000602082015250565b6000611b12602983611263565b9150611b1d82611ab6565b604082019050919050565b60006020820190508181036000830152611b4181611b05565b9050919050565b6000604082019050611b5d6000830185611254565b8181036020830152611b6f8184611274565b90509392505050565b7f4e487b7100000000000000000000000000000000000000000000000000000000600052601260045260246000fd5b6000611bb282610fe7565b9150611bbd83610fe7565b925082611bcd57611bcc611b78565b5b828204905092915050565b6000611be382610fe7565b9150611bee83610fe7565b9250817fffffffffffffffffffffffffffffffffffffffffffffffffffffffffffffffff0483118215151615611c2757611c26611883565b5b82820290509291505056fea26469706673582212206f809b66e3b67c62064688d9071ccb2ce2b6750f6dba901e0b399117d465970464736f6c634300080a0033",
  "immutableReferences": {},
  "source": "// SPDX-License-Identifier: MIT\npragma solidity >=0.8.10;\n\ncontract PlayerContract\n{\n\tstruct Player {\n\t\tuint id;\n        string name;\n        uint attackWinCount;\n        uint attackLossCount;\n        uint defendWinCount;\n        uint defendLossCount;\n        int points;\n    }\n\n    struct Attack {\n        uint startingMinute;\n        address defender;\n        bool side;\n        bool finished;\n        bool won;\n    }\n\n    struct PriceRequest {\n        uint minuteTimestamp;\n        uint price;\n        int increasePercent;\n    }\n\n    Player[] public players;\n    PriceRequest[] public priceRequests;\n    mapping (address => Player) public addressToPlayer;\n    mapping (address => bool) public addressToHasRegisteredAttack;\n    mapping (address => Attack[]) public addressToAttacks;\n\n\n\n\n    event NewPlayerCreated(uint id, string name);\n    event AttackRegistered(address indexed attacker, address indexed defender, uint startingMinute, bool side);\n\n\n\n\n    modifier senderMustExists ()\n    {\n        require(addressToPlayer[msg.sender].id > 0, \"Player: player not exist for address\");\n\n        _;\n    }\n\n\n\n\n    function createPlayer (string memory _name) public\n    {\n    \trequire(addressToPlayer[msg.sender].id == 0, \"Player: player already exists for address\");\n\n        uint id = players.length + 1;\n    \tPlayer memory player = Player(players.length + 1, _name, 0, 0, 0, 0, 0);\n\n        players.push(player);\n        addressToPlayer[msg.sender] = player;\n\n        emit NewPlayerCreated(id, _name);\n    }\n\n    function getPlayer () public view senderMustExists returns (Player memory)\n    {\n        return addressToPlayer[msg.sender];\n    }\n\n    function registerAttack (address _defender, uint _startingMinute, bool _side) public senderMustExists\n    {\n        require(addressToPlayer[_defender].id > 0, \"Player: defender not exist\");\n\n        uint startingMinute = _getMinute(_startingMinute);\n        uint currentMinute = _getMinute(block.timestamp);\n\n        require(startingMinute > currentMinute, \"Player: starting minute must be a future time\");\n        require(startingMinute < currentMinute + 1 days, \"Player: starting minute must not be far away\");\n\n        require(!_hasRegisteredAttack(), \"Player: already registered for an attack\");\n\n        _registerAttack();\n\n        addressToAttacks[msg.sender].push(Attack(startingMinute, _defender, _side, false, false));\n\n        priceRequests.push(PriceRequest(startingMinute, 0, 0));\n        priceRequests.push(PriceRequest(startingMinute + 60, 0, 0));\n\n        emit AttackRegistered(msg.sender, _defender, startingMinute, _side);\n    }\n\n    function getPriceRequests () public view returns (PriceRequest[] memory)\n    {\n        return priceRequests;\n    }\n\n\n\n\n    function _getMinute (uint _datetime) internal pure returns (uint)\n    {\n        return (_datetime / 60) * 60;\n    }\n\n    function _hasRegisteredAttack () internal view returns (bool)\n    {\n        return addressToHasRegisteredAttack[msg.sender];\n    }\n\n    function _registerAttack () internal\n    {\n        addressToHasRegisteredAttack[msg.sender] = true;\n    }\n}\n",
  "sourcePath": "/home/orcun/battle/solidity/contracts/Player.sol",
  "compiler": {
    "name": "solc",
    "version": "0.8.10+commit.fc410830.Emscripten.clang"
  },
  "schemaVersion": "3.4.4",
  "updatedAt": "2022-09-06T22:00:51.052Z",
  "networkType": "ethereum",
  "devdoc": {
    "kind": "dev",
    "methods": {},
    "version": 1
  },
  "userdoc": {
    "kind": "user",
    "methods": {},
    "version": 1
  }
}