{
  "contractName": "PriceRequestContract",
  "abi": [
    {
      "anonymous": false,
      "inputs": [
        {
          "indexed": true,
          "internalType": "address",
          "name": "previousOwner",
          "type": "address"
        },
        {
          "indexed": true,
          "internalType": "address",
          "name": "newOwner",
          "type": "address"
        }
      ],
      "name": "OwnershipTransferred",
      "type": "event"
    },
    {
      "anonymous": false,
      "inputs": [
        {
          "indexed": false,
          "internalType": "uint256",
          "name": "startingMinute",
          "type": "uint256"
        },
        {
          "indexed": false,
          "internalType": "uint256",
          "name": "price",
          "type": "uint256"
        }
      ],
      "name": "PriceRequestSet",
      "type": "event"
    },
    {
      "anonymous": false,
      "inputs": [
        {
          "indexed": false,
          "internalType": "uint256",
          "name": "startingMinute",
          "type": "uint256"
        }
      ],
      "name": "PriceRequested",
      "type": "event"
    },
    {
      "inputs": [
        {
          "internalType": "uint256",
          "name": "",
          "type": "uint256"
        }
      ],
      "name": "minuteTimestampToPriceRequest",
      "outputs": [
        {
          "internalType": "uint256",
          "name": "minuteTimestamp",
          "type": "uint256"
        },
        {
          "internalType": "uint256",
          "name": "price",
          "type": "uint256"
        },
        {
          "internalType": "int256",
          "name": "increasePercent",
          "type": "int256"
        }
      ],
      "stateMutability": "view",
      "type": "function"
    },
    {
      "inputs": [],
      "name": "oracle",
      "outputs": [
        {
          "internalType": "address",
          "name": "",
          "type": "address"
        }
      ],
      "stateMutability": "view",
      "type": "function"
    },
    {
      "inputs": [],
      "name": "owner",
      "outputs": [
        {
          "internalType": "address",
          "name": "",
          "type": "address"
        }
      ],
      "stateMutability": "view",
      "type": "function"
    },
    {
      "inputs": [
        {
          "internalType": "uint256",
          "name": "",
          "type": "uint256"
        }
      ],
      "name": "pendingRequests",
      "outputs": [
        {
          "internalType": "uint256",
          "name": "minuteTimestamp",
          "type": "uint256"
        },
        {
          "internalType": "uint256",
          "name": "price",
          "type": "uint256"
        },
        {
          "internalType": "int256",
          "name": "increasePercent",
          "type": "int256"
        }
      ],
      "stateMutability": "view",
      "type": "function"
    },
    {
      "inputs": [],
      "name": "renounceOwnership",
      "outputs": [],
      "stateMutability": "nonpayable",
      "type": "function"
    },
    {
      "inputs": [
        {
          "internalType": "address",
          "name": "_oracle",
          "type": "address"
        }
      ],
      "name": "setOracle",
      "outputs": [],
      "stateMutability": "nonpayable",
      "type": "function"
    },
    {
      "inputs": [
        {
          "internalType": "address",
          "name": "newOwner",
          "type": "address"
        }
      ],
      "name": "transferOwnership",
      "outputs": [],
      "stateMutability": "nonpayable",
      "type": "function"
    },
    {
      "inputs": [],
      "name": "getPendingRequests",
      "outputs": [
        {
          "components": [
            {
              "internalType": "uint256",
              "name": "minuteTimestamp",
              "type": "uint256"
            },
            {
              "internalType": "uint256",
              "name": "price",
              "type": "uint256"
            },
            {
              "internalType": "int256",
              "name": "increasePercent",
              "type": "int256"
            }
          ],
          "internalType": "struct PriceRequestContract.PriceRequest[]",
          "name": "",
          "type": "tuple[]"
        }
      ],
      "stateMutability": "view",
      "type": "function"
    },
    {
      "inputs": [
        {
          "internalType": "uint256",
          "name": "_minuteTimestamp",
          "type": "uint256"
        },
        {
          "internalType": "uint256",
          "name": "_price",
          "type": "uint256"
        }
      ],
      "name": "setPriceRequest",
      "outputs": [],
      "stateMutability": "nonpayable",
      "type": "function"
    },
    {
      "inputs": [
        {
          "internalType": "uint256",
          "name": "_minuteTimestamp",
          "type": "uint256"
        }
      ],
      "name": "getPrice",
      "outputs": [
        {
          "internalType": "uint256",
          "name": "",
          "type": "uint256"
        }
      ],
      "stateMutability": "view",
      "type": "function"
    }
  ],
  "bytecode": "0x608060405234801561001057600080fd5b5061002d61002261007360201b60201c565b61007b60201b60201c565b33600160006101000a81548173ffffffffffffffffffffffffffffffffffffffff021916908373ffffffffffffffffffffffffffffffffffffffff16021790555061013f565b600033905090565b60008060009054906101000a900473ffffffffffffffffffffffffffffffffffffffff169050816000806101000a81548173ffffffffffffffffffffffffffffffffffffffff021916908373ffffffffffffffffffffffffffffffffffffffff1602179055508173ffffffffffffffffffffffffffffffffffffffff168173ffffffffffffffffffffffffffffffffffffffff167f8be0079c531659141344cd1fd0a4f28419497f9722a3daafe3b4186f6b6457e060405160405180910390a35050565b61122d8061014e6000396000f3fe608060405234801561001057600080fd5b506004361061009e5760003560e01c80638d9167ba116100665780638d9167ba146101375780638da5cb5b14610169578063e757223014610187578063f2fde38b146101b7578063f8eec109146101d35761009e565b80633c652a9a146100a3578063715018a6146100d55780637adbf973146100df5780637dc0d1d0146100fb57806380a1f71214610119575b600080fd5b6100bd60048036038101906100b89190610914565b6101ef565b6040516100cc93929190610969565b60405180910390f35b6100dd610229565b005b6100f960048036038101906100f491906109fe565b61023d565b005b610103610289565b6040516101109190610a3a565b60405180910390f35b6101216102af565b60405161012e9190610b64565b60405180910390f35b610151600480360381019061014c9190610914565b61032c565b60405161016093929190610969565b60405180910390f35b610171610356565b60405161017e9190610a3a565b60405180910390f35b6101a1600480360381019061019c9190610914565b61037f565b6040516101ae9190610b86565b60405180910390f35b6101d160048036038101906101cc91906109fe565b6103f8565b005b6101ed60048036038101906101e89190610ba1565b61047c565b005b600281815481106101ff57600080fd5b90600052602060002090600302016000915090508060000154908060010154908060020154905083565b61023161066e565b61023b60006106ec565b565b61024561066e565b80600160006101000a81548173ffffffffffffffffffffffffffffffffffffffff021916908373ffffffffffffffffffffffffffffffffffffffff16021790555050565b600160009054906101000a900473ffffffffffffffffffffffffffffffffffffffff1681565b60606002805480602002602001604051908101604052809291908181526020016000905b8282101561032357838290600052602060002090600302016040518060600160405290816000820154815260200160018201548152602001600282015481525050815260200190600101906102d3565b50505050905090565b60036020528060005260406000206000915090508060000154908060010154908060020154905083565b60008060009054906101000a900473ffffffffffffffffffffffffffffffffffffffff16905090565b600080600360008481526020019081526020016000206001015414156103da576040517f08c379a00000000000000000000000000000000000000000000000000000000081526004016103d190610c64565b60405180910390fd5b60036000838152602001908152602001600020600101549050919050565b61040061066e565b600073ffffffffffffffffffffffffffffffffffffffff168173ffffffffffffffffffffffffffffffffffffffff161415610470576040517f08c379a000000000000000000000000000000000000000000000000000000000815260040161046790610cf6565b60405180910390fd5b610479816106ec565b50565b3373ffffffffffffffffffffffffffffffffffffffff16600160009054906101000a900473ffffffffffffffffffffffffffffffffffffffff1673ffffffffffffffffffffffffffffffffffffffff161461050c576040517f08c379a000000000000000000000000000000000000000000000000000000000815260040161050390610d62565b60405180910390fd5b6000610517836107b0565b905080610559576040517f08c379a000000000000000000000000000000000000000000000000000000000815260040161055090610df4565b60405180910390fd5b60008060036000603c8761056d9190610e43565b81526020019081526020016000206040518060600160405290816000820154815260200160018201548152602001600282015481525050905060008160000151146105df576127108160200151856127106105c89190610e77565b6105d29190610fbd565b6105dc9190611027565b91505b604051806060016040528086815260200185815260200183815250600360008781526020019081526020016000206000820151816000015560208201518160010155604082015181600201559050507f48a46c9c4d11ab7976c4214edcaa74f83820b5bd03a3427051f776c52d1d6b20858560405161065f9291906110bb565b60405180910390a15050505050565b6106766108d1565b73ffffffffffffffffffffffffffffffffffffffff16610694610356565b73ffffffffffffffffffffffffffffffffffffffff16146106ea576040517f08c379a00000000000000000000000000000000000000000000000000000000081526004016106e190611130565b60405180910390fd5b565b60008060009054906101000a900473ffffffffffffffffffffffffffffffffffffffff169050816000806101000a81548173ffffffffffffffffffffffffffffffffffffffff021916908373ffffffffffffffffffffffffffffffffffffffff1602179055508173ffffffffffffffffffffffffffffffffffffffff168173ffffffffffffffffffffffffffffffffffffffff167f8be0079c531659141344cd1fd0a4f28419497f9722a3daafe3b4186f6b6457e060405160405180910390a35050565b600080600280549050905060005b818110156108c55783600282815481106107db576107da611150565b5b90600052602060002090600302016000015414156108b25760026001836108029190610e43565b8154811061081357610812611150565b5b90600052602060002090600302016002828154811061083557610834611150565b5b906000526020600020906003020160008201548160000155600182015481600101556002820154816002015590505060028054806108765761087561117f565b5b600190038181906000526020600020906003020160008082016000905560018201600090556002820160009055505090556001925050506108cc565b80806108bd906111ae565b9150506107be565b5060009150505b919050565b600033905090565b600080fd5b6000819050919050565b6108f1816108de565b81146108fc57600080fd5b50565b60008135905061090e816108e8565b92915050565b60006020828403121561092a576109296108d9565b5b6000610938848285016108ff565b91505092915050565b61094a816108de565b82525050565b6000819050919050565b61096381610950565b82525050565b600060608201905061097e6000830186610941565b61098b6020830185610941565b610998604083018461095a565b949350505050565b600073ffffffffffffffffffffffffffffffffffffffff82169050919050565b60006109cb826109a0565b9050919050565b6109db816109c0565b81146109e657600080fd5b50565b6000813590506109f8816109d2565b92915050565b600060208284031215610a1457610a136108d9565b5b6000610a22848285016109e9565b91505092915050565b610a34816109c0565b82525050565b6000602082019050610a4f6000830184610a2b565b92915050565b600081519050919050565b600082825260208201905092915050565b6000819050602082019050919050565b610a8a816108de565b82525050565b610a9981610950565b82525050565b606082016000820151610ab56000850182610a81565b506020820151610ac86020850182610a81565b506040820151610adb6040850182610a90565b50505050565b6000610aed8383610a9f565b60608301905092915050565b6000602082019050919050565b6000610b1182610a55565b610b1b8185610a60565b9350610b2683610a71565b8060005b83811015610b57578151610b3e8882610ae1565b9750610b4983610af9565b925050600181019050610b2a565b5085935050505092915050565b60006020820190508181036000830152610b7e8184610b06565b905092915050565b6000602082019050610b9b6000830184610941565b92915050565b60008060408385031215610bb857610bb76108d9565b5b6000610bc6858286016108ff565b9250506020610bd7858286016108ff565b9150509250929050565b600082825260208201905092915050565b7f507269636552657175657374436f6e74726163743a207072696365206e6f742060008201527f7365740000000000000000000000000000000000000000000000000000000000602082015250565b6000610c4e602383610be1565b9150610c5982610bf2565b604082019050919050565b60006020820190508181036000830152610c7d81610c41565b9050919050565b7f4f776e61626c653a206e6577206f776e657220697320746865207a65726f206160008201527f6464726573730000000000000000000000000000000000000000000000000000602082015250565b6000610ce0602683610be1565b9150610ceb82610c84565b604082019050919050565b60006020820190508181036000830152610d0f81610cd3565b9050919050565b7f4f7261636c653a2063616c6c6572206973206e6f7420746865206f7261636c65600082015250565b6000610d4c602083610be1565b9150610d5782610d16565b602082019050919050565b60006020820190508181036000830152610d7b81610d3f565b9050919050565b7f507269636552657175657374436f6e74726163743a207072696365207265717560008201527f657374206e6f7420657869737473000000000000000000000000000000000000602082015250565b6000610dde602e83610be1565b9150610de982610d82565b604082019050919050565b60006020820190508181036000830152610e0d81610dd1565b9050919050565b7f4e487b7100000000000000000000000000000000000000000000000000000000600052601160045260246000fd5b6000610e4e826108de565b9150610e59836108de565b925082821015610e6c57610e6b610e14565b5b828203905092915050565b6000610e8282610950565b9150610e8d83610950565b9250827f7fffffffffffffffffffffffffffffffffffffffffffffffffffffffffffffff0482116000841360008413161615610ecc57610ecb610e14565b5b817f80000000000000000000000000000000000000000000000000000000000000000583126000841260008413161615610f0957610f08610e14565b5b827f80000000000000000000000000000000000000000000000000000000000000000582126000841360008412161615610f4657610f45610e14565b5b827f7fffffffffffffffffffffffffffffffffffffffffffffffffffffffffffffff0582126000841260008412161615610f8357610f82610e14565b5b828202905092915050565b7f4e487b7100000000000000000000000000000000000000000000000000000000600052601260045260246000fd5b6000610fc882610950565b9150610fd383610950565b925082610fe357610fe2610f8e565b5b600160000383147f80000000000000000000000000000000000000000000000000000000000000008314161561101c5761101b610e14565b5b828205905092915050565b600061103282610950565b915061103d83610950565b9250827f80000000000000000000000000000000000000000000000000000000000000000182126000841215161561107857611077610e14565b5b827f7fffffffffffffffffffffffffffffffffffffffffffffffffffffffffffffff0182136000841216156110b0576110af610e14565b5b828203905092915050565b60006040820190506110d06000830185610941565b6110dd6020830184610941565b9392505050565b7f4f776e61626c653a2063616c6c6572206973206e6f7420746865206f776e6572600082015250565b600061111a602083610be1565b9150611125826110e4565b602082019050919050565b600060208201905081810360008301526111498161110d565b9050919050565b7f4e487b7100000000000000000000000000000000000000000000000000000000600052603260045260246000fd5b7f4e487b7100000000000000000000000000000000000000000000000000000000600052603160045260246000fd5b60006111b9826108de565b91507fffffffffffffffffffffffffffffffffffffffffffffffffffffffffffffffff8214156111ec576111eb610e14565b5b60018201905091905056fea2646970667358221220613735af8f940ea6b68e7768a289a0c74ad2027dbeed4a3fe104b5c59e435ebf64736f6c634300080a0033",
  "immutableReferences": {},
  "source": "// SPDX-License-Identifier: MIT\npragma solidity >=0.8.10;\n\nimport \"./Oracle.sol\";\n\n/**\n * @title      Contract for price request operations\n * @author     Orun Altnsoy\n * @notice     This contract deals with operations for Bitcoin prices at requested minutes\n * @dev        This contract can also deal with calculations of prices if necessary.\n */\ncontract PriceRequestContract is Oracle\n{\n    /**\n     * @dev        minuteTimestamp: Timestamp of minute of the corresponding request.\n     *                              This value is unique for every price request.\n     *             price:           Bitcoin price of corresponding minute multiplied by 100.\n     *                              0 price means the request is pending.\n     *             increasePercent: Percent of price increase compared to previous minute multiplied by 100.\n     *                              e.g. 1234 means increase by 12.34%, while -123 means decrease by -1.23%.\n     */\n\tstruct PriceRequest {\n        uint minuteTimestamp;\n        uint price;\n        int increasePercent;\n    }\n\n\n\n\n    /**\n     * @notice     Stores pending requests\n     * @dev        This array should never become too big.\n     *             This array holds only requests that has a price of 0.\n     */\n    PriceRequest[] public pendingRequests;\n\n    /**\n     * @notice     Mapping of minute timestamps to finished price requests\n     * @dev        Prices are set for these price requests.\n     */\n    mapping (uint => PriceRequest) public minuteTimestampToPriceRequest;\n\n\n\n\n    /**\n     * @notice     Emitted when price is requested\n     * @param      startingMinute    Minute timestamp of the price request\n     */\n    event PriceRequested(uint startingMinute);\n\n    /**\n     * @notice     Emitted when price request is set\n     * @param      startingMinute    Minute timestamp of the price request\n     * @param      price             Bitcoin price at a given minute\n     */\n    event PriceRequestSet(uint startingMinute, uint price);\n\n\n\n\n    /**\n     * @notice     Returns pending requests\n     * @dev        Since returned array would never became too big, returning all of it are safe.\n     * @return     All pending requests\n     */\n\tfunction getPendingRequests () public view returns (PriceRequest[] memory)\n    {\n        return pendingRequests;\n    }\n\n\n    /**\n     * @notice     Sets the parameters of pending price request\n     * @dev        Only oracle can set the price request.\n     *             Removes the corresponding request from pending requests.\n     *             If price request of previous minute timestamp exists, then calculates the increase percent.\n     * @param      _minuteTimestamp  Minute timestamp of the price request\n     * @param      _price            Bitcoin price multiplied by 100\n     */\n    function setPriceRequest (uint _minuteTimestamp, uint _price) public onlyOracle\n    {\n        bool removed = _removePendingRequest(_minuteTimestamp);\n        require(removed, \"PriceRequestContract: price request not exists\");\n\n        int increasePercent = 0;\n\n        PriceRequest memory previousPriceRequest = minuteTimestampToPriceRequest[_minuteTimestamp - 60];\n        if (previousPriceRequest.minuteTimestamp != 0) {\n            increasePercent = 10000 * int(_price) / int(previousPriceRequest.price) - 10000;\n        }\n\n        minuteTimestampToPriceRequest[_minuteTimestamp] = PriceRequest(_minuteTimestamp, _price, increasePercent);\n\n        emit PriceRequestSet(_minuteTimestamp, _price);\n    }\n\n    /**\n     * @notice     Gets the Bitcoin price of a given minute\n     * @dev        Returns only if the price is set.\n     * @param      _minuteTimestamp  Minute timestamp of the requested price\n     * @return     Bitcoin price multiplied by 100\n     */\n    function getPrice (uint _minuteTimestamp) public view returns (uint)\n    {\n        require(minuteTimestampToPriceRequest[_minuteTimestamp].price != 0, \"PriceRequestContract: price not set\");\n\n        return minuteTimestampToPriceRequest[_minuteTimestamp].price;\n    }\n\n\n\n\n    /**\n     * @notice     Adds given request to pending request array\n     * @dev        Adds only if the price request not exists in the array.\n     * @param      _priceRequest  Price request to add\n     */\n    function _addPendingRequest (PriceRequest memory _priceRequest) internal\n    {\n        if (_hasPendingRequest(_priceRequest.minuteTimestamp)) {\n            return;\n        }\n\n        pendingRequests.push(_priceRequest);\n\n        emit PriceRequested(_priceRequest.minuteTimestamp);\n    }\n\n    /**\n     * @notice     Checks if there is a pending request for a given minute\n     * @dev        It is okay to loop over all pending requests because the array will never became too big.\n     * @param      _minuteTimestamp  Minute timestamp to check\n     * @return     Returns true if only if there is a pending request\n     */\n    function _hasPendingRequest (uint _minuteTimestamp) internal view returns (bool)\n    {\n        uint length = pendingRequests.length;\n\n        for (uint i = 0; i < length; i++) {\n            if (pendingRequests[i].minuteTimestamp == _minuteTimestamp) {\n                return true;\n            }\n        }\n\n        return false;\n    }\n\n    /**\n     * @notice     Removes a request for a given minute from the pending requests\n     * @dev        It is okay to loop over all pending requests because the array will never became too big.\n     * @param      _minuteTimestamp  Minute timestamp to remove\n     * @return     Returns true if only if request corresponding with the given minute is removed\n     */\n    function _removePendingRequest (uint _minuteTimestamp) internal returns (bool)\n    {\n        uint length = pendingRequests.length;\n\n        for (uint i = 0; i < length; i++) {\n            if (pendingRequests[i].minuteTimestamp == _minuteTimestamp) {\n                pendingRequests[i] = pendingRequests[length - 1];\n                pendingRequests.pop();\n                return true;\n            }\n        }\n\n        return false;\n    }\n}\n",
  "sourcePath": "/battle/contracts/PriceRequestContract.sol",
  "compiler": {
    "name": "solc",
    "version": "0.8.10+commit.fc410830.Emscripten.clang"
  },
  "schemaVersion": "3.4.13",
  "updatedAt": "2023-03-21T14:43:18.729Z",
  "devdoc": {
    "author": "Orun Altnsoy",
    "details": "This contract can also deal with calculations of prices if necessary.",
    "events": {
      "PriceRequestSet(uint256,uint256)": {
        "params": {
          "price": "Bitcoin price at a given minute",
          "startingMinute": "Minute timestamp of the price request"
        }
      },
      "PriceRequested(uint256)": {
        "params": {
          "startingMinute": "Minute timestamp of the price request"
        }
      }
    },
    "kind": "dev",
    "methods": {
      "getPendingRequests()": {
        "details": "Since returned array would never became too big, returning all of it are safe.",
        "returns": {
          "_0": "All pending requests"
        }
      },
      "getPrice(uint256)": {
        "details": "Returns only if the price is set.",
        "params": {
          "_minuteTimestamp": "Minute timestamp of the requested price"
        },
        "returns": {
          "_0": "Bitcoin price multiplied by 100"
        }
      },
      "owner()": {
        "details": "Returns the address of the current owner."
      },
      "renounceOwnership()": {
        "details": "Leaves the contract without owner. It will not be possible to call `onlyOwner` functions anymore. Can only be called by the current owner. NOTE: Renouncing ownership will leave the contract without an owner, thereby removing any functionality that is only available to the owner."
      },
      "setOracle(address)": {
        "details": "Only contract owner can set the address.",
        "params": {
          "_oracle": "New oracle address"
        }
      },
      "setPriceRequest(uint256,uint256)": {
        "details": "Only oracle can set the price request.             Removes the corresponding request from pending requests.             If price request of previous minute timestamp exists, then calculates the increase percent.",
        "params": {
          "_minuteTimestamp": "Minute timestamp of the price request",
          "_price": "Bitcoin price multiplied by 100"
        }
      },
      "transferOwnership(address)": {
        "details": "Transfers ownership of the contract to a new account (`newOwner`). Can only be called by the current owner."
      }
    },
    "stateVariables": {
      "minuteTimestampToPriceRequest": {
        "details": "Prices are set for these price requests."
      },
      "pendingRequests": {
        "details": "This array should never become too big.             This array holds only requests that has a price of 0."
      }
    },
    "title": "Contract for price request operations",
    "version": 1
  },
  "userdoc": {
    "events": {
      "PriceRequestSet(uint256,uint256)": {
        "notice": "Emitted when price request is set"
      },
      "PriceRequested(uint256)": {
        "notice": "Emitted when price is requested"
      }
    },
    "kind": "user",
    "methods": {
      "getPendingRequests()": {
        "notice": "Returns pending requests"
      },
      "getPrice(uint256)": {
        "notice": "Gets the Bitcoin price of a given minute"
      },
      "minuteTimestampToPriceRequest(uint256)": {
        "notice": "Mapping of minute timestamps to finished price requests"
      },
      "oracle()": {
        "notice": "Stores the address of oracle"
      },
      "pendingRequests(uint256)": {
        "notice": "Stores pending requests"
      },
      "setOracle(address)": {
        "notice": "Sets the address of oracle"
      },
      "setPriceRequest(uint256,uint256)": {
        "notice": "Sets the parameters of pending price request"
      }
    },
    "notice": "This contract deals with operations for Bitcoin prices at requested minutes",
    "version": 1
  }
}